:020000040000fa
:080000000002040000000000f2
:020000040000fa
:10000800fc040000fc040000fc040000fc040000e8
:10001800fc040000fc040000fc040000fc040000d8
:10002800fc040000ac040000fc040000960400007e
:1000380018040000d4040000fc040000fc040000c4
:10004800fc040000fc040000fc040000fc040000a8
:10005800fc040000fc04000010040000fc04000084
:10006800fc040000fc040000fc040000fc04000088
:10007800fc040000fc040000fc040000fc04000078
:1000880094020000fc040000fc040000fc040000d2
:10009800fc040000fc040000fc040000fc04000058
:1000a800fc040000fc040000fc040000fc04000048
:1000b800fc040000fc040000fc040000fc04000038
:1000c800fc040000fc040000fc040000fc04000028
:1000d800fc040000fc040000fc040000fc04000018
:1000e800fc040000fc040000fc040000fc04000008
:1000f800fc040000fc040000fc040000fc040000f8
:10010800fc040000fc040000fc040000fc040000e7
:10011800fc040000fc040000fc040000fc040000d7
:10012800fc040000fc0400008e040000fc04000035
:10013800fc040000fc040000fc040000fc040000b7
:10014800fc040000fc040000fc040000fc040000a7
:10015800fc040000fc040000fc040000fc04000097
:10016800fc040000fc040000fc040000fc04000087
:10017800fc040000fc040000fc040000fc04000077
:10018800fc040000fc040000fc040000fc04000067
:10019800fc040000fc040000fc040000fc04000057
:1001a800fc040000fc040000fc040000fc04000047
:1001b800fc040000fc040000fc040000fc04000037
:1001c800fc040000fc040000fc040000fc04000027
:1001d800fc040000fc040000fc040000fc04000017
:1001e800fc040000fc040000fc040000fc04000007
:0801f800fc040000fc040000ff
:020000040000fa
:10020800fc040000fc040000fc040000fc040000e6
:10021800fc040000fc040000fc040000fc040000d6
:10022800fc040000ac040000fc040000960400007c
:1002380018040000d4040000fc040000fc040000c2
:10024800fc040000fc040000fc040000fc040000a6
:10025800fc040000fc04000010040000fc04000082
:10026800fc040000fc040000fc040000fc04000086
:10027800fc040000fc040000fc040000fc04000076
:1002880094020000fc040000fc040000fc040000d0
:10029800fc040000fc040000fc040000fc04000056
:1002a800fc040000fc040000fc040000fc04000046
:1002b800fc040000fc040000fc040000fc04000036
:1002c800fc040000fc040000fc040000fc04000026
:1002d800fc040000fc040000fc040000fc04000016
:1002e800fc040000fc040000fc040000fc04000006
:1002f800fc040000fc040000fc040000fc040000f6
:10030800fc040000fc040000fc040000fc040000e5
:10031800fc040000fc040000fc040000fc040000d5
:10032800fc040000fc0400008e040000fc04000033
:10033800fc040000fc040000fc040000fc040000b5
:10034800fc040000fc040000fc040000fc040000a5
:10035800fc040000fc040000fc040000fc04000095
:10036800fc040000fc040000fc040000fc04000085
:10037800fc040000fc040000fc040000fc04000075
:10038800fc040000fc040000fc040000fc04000065
:10039800fc040000fc040000fc040000fc04000055
:1003a800fc040000fc040000fc040000fc04000045
:1003b800fc040000fc040000fc040000fc04000035
:1003c800fc040000fc040000fc040000fc04000025
:1003d800fc040000fc040000fc040000fc04000015
:1003e800fc040000fc040000fc040000fc04000005
:0803f800fc040000fc040000fd
:020000040000fa
:100400008fbc20000e3f24000e0188000000000079
:1004100000012000200288000c000700c02f2200ed
:100420000100200011000700000020000000e00093
:100430000200320000000200000000006c1f0200f9
:10044000000000000040da000000fe004440a90067
:10045000200020000000e000030032000000200027
:10046000a00188004440a800000006009101880017
:10047000800078000000eb0015003700e2804000ab
:1004800032a0b4009101ba00e280400032a0b40072
:100490009102ba00e280400032a0b4000002eb00fa
:1004a000472bde00f507b200602ce10004003a00a3
:1004b0000059eb008301e900fdff3e000400370016
:1004c0006128e100010032000082eb000400070017
:1004d0001101ba000200e000e8ff3a000000060047
:1004e0003159ba008301e9000c0032002159ba00e9
:1004f0008301e900080032000400e00003003a0034
:10050000e280400032a0b400f5ff370011d9ba00f4
:100510008301e900faff3a008100e800e180400031
:1005200032a0b400000006003600f800809fbe0034
:10053000829fbe00849fbe00869fbe00889fbe0033
:100540008a9fbe008c9fbe001c00fa00e45c800005
:10055000e00f520030003a0006402400070020005f
:100560000602d0000418b0004220a800e0824b0030
:100570004220ae004200a8000482d300229e200048
:100580000400be00ba08070008402400090020004b
:100590000802d0000420b0004220a800e0824c00f5
:1005a0004220ae004200a8000482d300229c20001a
:1005b0000400be00ae0807000a4024000b00200023
:1005c0000a02d0000414b0004220a800e0824d00ce
:1005d0004220ae004200a8000482d30022982000ee
:1005e0000400be00a20807000c4024000d002000fb
:1005f0000c02d000040cb0004220a800e0824e00a3
:100600004220ae004200a8000482d300229a2000bb
:100610000400be0096080700e45c8000e10f520071
:100620006f003a0000402400000f78000400200012
:10063000140798001e03be000602d0000404b00098
:100640004220a800e0824b004220ae004200a800f9
:100650000482d30022a820000400be008408070002
:10066000074024002707980000002000300798006a
:100670002e039000be0390000602d000041cb000c0
:100680004220a800e0824b004220ae004200a800b9
:100690000482d30022a620000400be0074080700d4
:1006a00007402400470798000000200050079800ea
:1006b0004e039000de0390000602d0000424b00038
:1006c0004220a800e0824b004220ae004200a80079
:1006d0000482d30022a220000400be0064080700a8
:1006e000074024006707980000002000700798006a
:1006f0006e039000fe0390000602d0000408b000d4
:100700004220a800e0824b004220ae004200a80038
:100710000482d30022a020000400be005408070079
:1007200007402400070f980000002000100f9800d9
:100730000e0b90009e0b90000602d0000410b0003b
:100740004220a800e0824b004220ae004200a800f8
:100750000482d30022a420000400be004408070045
:1007600007402400270f980000002000300f980059
:100770002e0b9000be0b90000602d000042cb0009f
:100780004220a800e0824b004220ae004200a800b8
:100790000482d30022ac20000400be00340807000d
:1007a00007402400470f980000002000500f9800d9
:1007b0004e0b9000de0b90000602d0000428b00023
:1007c0004220a800e0824b004220ae004200a80078
:1007d0000482d30022aa20000400be0024080700df
:1007e0008700a90014c0b30004407800a3ebb70051
:1007f00021e3a90099e3a9000080fa004f06be009a
:100800004f05be004f04be004f03be004f02be00a6
:100810004f01be004f00be003600f9000040060048
:100820000000fa0085c0a9000080fa000040060020
:100830003600f800809fbe00829fbe00849fbe00ed
:10084000869fbe000400fa00245e8000e00f520084
:1008500012003a000002eb00040f78000800370095
:10086000445b24001e024200144278000482fb0014
:1008700084007800008020007b0c07001e0fe80039
:1008800094bb2000144278000482fb006402420002
:100890009e0f5200f2ff3c00150037000002eb00f3
:1008a000140798000b003700e55b24001e0290003f
:1008b00004824200144278000482fb008400780025
:1008c00000802000680c07001e0290000402e8006f
:1008d0001407980094bb2000144278000482fb00a7
:1008e000e40242001e029000848f5200eeff3c00a2
:1008f000245e80000400a200245e88008480a90099
:100900000080fa004f03be004f02be004f01be0040
:100910004f00be003600f900004006000000fa005b
:100920008c40a9000080fa0000400600801f78007b
:10093000841f78000000fa0014c0b300044078005f
:10094000a2ebb7008460a9000080fa004f02780093
:100950004f00780000400600801f7800841f780058
:100960003400f80000002000a00188000000fa0018
:10097000445d80000402e800445d8800040a8000b1
:10098000b45c880014c0b30004407800a5ebb70045
:100990008420a9000080fa003400f9004f0278009a
:1009a0004f00780000400600801f7800841f780008
:1009b0003400f80000002000a00188000000fa00c8
:1009c000545d80000402e800545d8800240a800021
:1009d000c45c880014c0b30004407800a6ebb700e4
:1009e00084a0a9000080fa003400f9004f027800ca
:1009f0004f007800004006000040da000000fe00d2
:100a000003f0a200889fbe008a9fbe008c1f780062
:100a1000170107001e0133006450e1004f0032004f
:100a20006420e1005200320003826c0007003b00aa
:100a30000905d0000306d000820f54000c065d00ab
:100a400002003900020032008901780003067800b4
:100a50008582550004003d000003fd008103fd0078
:100a60008502ea008b854200840f720002003b0081
:100a700060001000e08018006011b8000005eb0075
:100a80007a28e1000a00390006007800c75ddd0021
:100a9000f707b200878075002d0037008281710052
:100aa0000a017800610560008180d1000080d300d8
:100ab0008502e900f9ff3b000604400087844800f6
:100ac00002003b0060041400e0841c000988a300bd
:100ad000070032008a817100828171006101640027
:100ae0008904d1000884d3008b05e8001700370083
:100af0000978a30013003a000b00e0001300340053
:100b00008b05e9000804440089844c000a44740001
:100b10000978a3000d003a000b00e0000700340044
:100b20008b05e9000804440089844c0001003a0068
:100b30000b0020000978a300f7ff32000001eb0052
:100b400002003700828171000a0178008d000700e1
:100b50000cf0a70001f0a000d60037006420e100ef
:100b600002003a00838f6c00d60033000801be00fb
:100b70000200be00cf003700889fbe008a9fbe00e3
:100b80008c1f7800ba000700c100330003866c0098
:100b90006450e1002e0032006420e1003300320096
:100ba0006150e1002f0032006120e100310032008d
:100bb00085855500eb07b0000900200008042000df
:100bc000050037000804440089844c000a00310005
:100bd0000603430087834b000001530081815b00c3
:100be000f8ff33000203be000800a0000804440020
:100bf00089844c00f6ff3900c639dd00830173009b
:100c000001003200130020008904d1000884d300c1
:100c10000998a300050032000800a7000300a00007
:100c20008904d1000884d3008b05e8008904d10031
:100c30000884d3000001eb000281d20051000700bc
:100c400001f0a1000cf0a70001f0a000990037000e
:100c50006420e1009b0032000801be000200be00db
:100c6000f7ff37006120e100960032006000b80015
:100c7000f3ff37000000200001f82700f0ff3700e5
:100c80000001be00650007000470a70003f0a1008a
:100c90006509b100160032000d0035006828e1003a
:100ca00006003500f0ff2f00f1ff27000300e000f1
:100cb00013003b0001002800000005000000400078
:100cc000818048008502e900fcff3a0008003700f7
:100cd000f88f420002003c008000eb00000005009d
:100ce0008100d1000080d3008502e800fcff3a00bb
:100cf0000300e00002003b0060001000e0801800ec
:100d0000000006000001be00440007000470a700b8
:100d100003f0a10003f8a30013003a006509b10035
:100d200010003200090035006928e100020035009a
:100d300001002800000005000000400081804800fc
:100d40008502e900fcff3a0000000600f88f42002f
:100d5000050035008100d1000080d3008502e80045
:100d6000fcff3a00000006008000eb0000000500d8
:100d70004f89de0082017800060237006011b8005a
:100d80001402370081002000618055000b003d00f7
:100d90000b00200061fe2f000100e1001d00340067
:100da00082817100610164008904d1000884d3004c
:100db0000000e800faff3a007100200061006400c2
:100dc000030070000200600009003200610444006a
:100dd000e0844c000988a500050032008b05e8007e
:100de0006808e10002003a008904d1000884d300b9
:100df000f20f20000258e10005003d00c75ddd0054
:100e0000f907b2008980750008007800000006002c
:100e10000bf827008b00780000000500c70ade00f1
:100e2000f107b200f50fb20008003200e1cf420036
:100e3000020032000170a00024000500810f700044
:100e4000010032000408050044000500810f700015
:100e500002003a00140005008502e900000040008d
:100e600081c04800fcff3b000170a0002400050089
:100e70000004be00e9ff07000003be000405be0039
:100e80000200be00e5ff0700844f75000000060069
:100e90000200be006450e100050036006420e1005d
:100ea000020036000968a30001003a000800be00f5
:100eb0000160a0004f0678004f05be004f04be0041
:100ec00000000600f0ff2f00f1ff2700f9ff3700b8
:100ed000889fbe008a9fbe008c1f7800e4ff070039
:100ee000ebff330003866c006450e1002400320005
:100ef0006420e100270032006150e100220032004e
:100f00006120e100210032008b854200eb07b10037
:100f10000134b800003ab8000804420089844a004d
:100f2000013ab8000030b8008880400009014a004a
:100f300004003300000040008180480002014900a5
:100f40008b05e900c909dd00830170000100320052
:100f500013002000c814de004814dd004709de003d
:100f60001200b200c808de000884700085ff070088
:100f700001f0a1000cf0a70001f0a000cdff3700a8
:100f80006120e100cfff32000801be000200be0078
:100f9000f7ff37006150e100fcff3a00c9ff37005e
:100fa0000c00fa00889fbe008a9fbe008c9fbe0086
:100fb000afff07000206be00840578000200be00f5
:100fc000020020004801070005003a008b02b30030
:100fd000120020004401070001003a00f8856d006e
:100fe0000c01be00c60007000800be009b003200d6
:100ff0000b08a3009e003a000df0a7000be0a00034
:1010000009f0a7000bf0a00009f0a1000801be0044
:10101000bb0007000bf0a6009500320001003c0069
:101020000bd0a0008acf7500b20033006000b8007a
:101030006250e10099003900a1003e000b28a30096
:10104000a2003a000bf8a300060032000b58a300e0
:10105000a70032000801be00a90007000800be007a
:10106000940032000800be00b00007000004be007b
:10107000050578000bf0a7000b30a6000bf0a100cf
:101080005b079800324f200053f323003d01070017
:1010900005003d000800be00120020007c01070092
:1010a0000004be000a05e9004a0798006150b90033
:1010b0002fff0700008fbe000c01be0084ff070059
:1010c000effe0700300798000100e00002003d003d
:1010d00060001000e0801800f2ff2700820f50002f
:1010e000e08f580064003e000c00be00e4fe0700e4
:1010f00020079800f2072000820f5000e08f580070
:1011000005003c0012f82f00f3ff2f00820f500063
:10111000838f580009003d000a00e0000300320000
:1011200001003c000201ea00020578006000b800fe
:10113000200798003a079800190037003e009000f9
:101140006100b9000aff0700809fbe000c00be00ce
:101150004109dd004811de007208b100e20007001d
:101160000005be001e01be0059ff07004f01be0072
:1011700023fe0700809fbe000c00be000a01be00d7
:101180001ffe07001e01be0051ff07004f01be00f9
:101190001cfe07008221270013f323004cff0700e9
:1011a0000005be002e0090006100b900f0fe0700af
:1011b00001f0a2000c01be0012fe07000006be00f6
:1011c0000800be00540107000c01be0040ff0700ec
:1011d0000a01be000bfe0700809fbe004a00070008
:1011e0002e0590000af0a7000a05ea000500370066
:1011f0000800be000801be0035ff07000004be0065
:101200000c00be000801be000a00a70030ff070066
:101210000006be000a05d100f5ff3a005e0190000d
:1012200002e0a600030037000001be003600070000
:1012300051fe07000004be004f00be00480007003a
:101240000801be0022ff07003e01900010010700c8
:10125000de0590000bf0a70001f0a2004f06be00d3
:101260004f05be004f04be000080fa0000000600db
:1012700025000700f9ff3700270007006000b800cd
:101280000bd0a7000bc0a0000be0a7000bc0a20072
:101290000bc0a70001f82700f0ff37000df8a300ee
:1012a000020032001e000700190007000bf8a3001f
:1012b000eaff32000b30a70001f0a200e7ff370081
:1012c0000df8a300f9ff3a00f7ff37000801be0050
:1012d0000b000700e6ff320001003c000df0a20009
:1012e0006000b8000df0a70009000700dbff370021
:1012f0000b000700f1ff2700f0ff2f00d7ff37009a
:10130000010007009f00370001f8230000000500de
:1013100001f827000000050020022000010037002e
:1013200010022000305e8800000006000003be00ae
:10133000bafe07006220e100020032000600be0093
:1013400005000500e507b100f107b20004f0230035
:101350008480700007f0a70001f0a00024000500c1
:10136000889fbe008a9fbe008c9fbe000004be0006
:10137000aafe07000800be006420e10048003e000d
:101380005500320072212700132b24007f00070034
:1013900047003c000800be00c2ec2800e32c2c00f3
:1013a00078000700470035000800be0001f0a100ea
:1013b00002002000033823007200070043003500bc
:1013c0000800be00b2a32a0083fb2300c0fe070072
:1013d0000200200003f0230001f0a70003f0a000aa
:1013e00088fd070026fe07000005be0060fe07001e
:1013f00001f0a2000006be000200280013f3230043
:10140000b3fe07000801be007efd0700809fbe00fe
:101410000c00be0032082800e3952b00acfe07004c
:101420004f01be0077fd07000006be000001be00b0
:10143000a7fe0700809fbe004241250083b823001d
:10144000a3fe07000200200003e823006dfd070053
:101450000c01be009efe07000006be004f00be004d
:10146000f2f92b00c3d4230099fe070002002000ec
:1014700003f0230063fd07000c01be0060fd0700c0
:101480000001be000c00be00bbfd070002002000f2
:1014900003f023005bfd0700610145007c000700ad
:1014a0004f06be004f05be004f04be000000060000
:1014b00001f827000000200022022000325e880090
:1014c000f7ff37006000b800fbff370001f823008a
:1014d00000002000f2ff370009f8a300f0ff3200ff
:1014e0006000b800eeff3700889fbe008a9fbe00f4
:1014f0000003be0049fe0700850578008281520086
:10150000020020006220e10004003a00f307b1006d
:10151000040035007718e100040035000600be0025
:10152000140037006000b8000f003700f50f2000ee
:10153000faff2f008502d1000a85d3008301e9005c
:10154000fcff3b008184620000046500890f740089
:10155000f2ff32008582ea000a85ea008184620097
:101560000004650007fe070007f0a70001f0a000d7
:101570000081eb000200e0004f05be004f04be00fa
:101580000000060014002000ba003700f4ff2f000e
:10159000b8003700881f7800030478000300e000db
:1015a00007003d0060001000e08018006001190095
:1015b000e081190002003b0001f02d00030037001c
:1015c0000400070008f0a70001f0a0004f04780015
:1015d00000000600889fbe008a9fbe000082700047
:1015e0000402710004827100260032000004be0073
:1015f0000200be006011b8006b09200095022000b7
:101600000182cf000a0039000541b1000082cf00fd
:10161000070039000541b1000982cf0004003900fc
:101620000541b1000882cf00010039000541b10039
:1016300005425200120032000a003b008281710014
:10164000610164008100d1000080d3008984d3004f
:101650000884d3008b05e8000442e800f7ff3a0055
:10166000070037000804440089844c00000048004b
:10167000818048008b05e9000442e900f9ff3a0047
:10168000c0fd07004f05be004f04be00000006006d
:101690000003be00e1fd07006220e100020032000d
:1016a0000600be000000060085024100e30f200096
:1016b0000328e10005003c00a3fe2f000328e10001
:1016c00007003d000500200001003700f50f200055
:1016d00020022000305e88006000b800080037005b
:1016e000130020008381520005003d008100d100dd
:1016f0000080d3008301e800fcff3a0005002000d1
:10170000c72add00f107b2008580700007f0a7004e
:1017100001f0a00000000600889fbe008a9fbe0066
:101720008c9fbe0001ff0700850478000005be0005
:101730006420e10049003e006220e1000300320025
:10174000090035000bf8a300440032000bf8a30099
:101750000800320010022000305e8800f0ff2f00e9
:10176000f1ff27003d00370001f82f0000002000a6
:101770003a0037003d000700a1fc07000006be004c
:101780000a00be00324f200053f323007fff070002
:10179000060034000c00be003400070098fc07006f
:1017a0000006be000a00be00020037008904e900fe
:1017b0000c00be002d000700c5fd07002b00070030
:1017c00090fc07000001be000c00be00eafc070010
:1017d0000005be000001be00bdfd07000006be0002
:1017e000a2f32300430d2c0086fc0700809fbe005f
:1017f0000c00be00d2e32700d3f02b00b4fd07009d
:101800004f01be00dcfc07000006be000a01be005e
:10181000affd07000a01be007afc07000006be000b
:101820006148b90052fd07000005be0032082800db
:10183000e3952b00a6fd07000c01be0071fc07001c
:101840000006be000a00be000200280013f32300b9
:101850009ffd07000c01be006afc07004f06be009a
:101860004f05be004f04be000000060003f0230039
:1018700002000500889fbe008a9fbe00841f78007a
:101880007bfd07004f00780011003300f0ff2f00b0
:10189000838f6c0006003b00040565000a00a7006a
:1018a0000800370009f0a6001000200008003700eb
:1018b000820f5400838f5c00030039001000200069
:1018c00001003e000000200009f0a7000000ea002f
:1018d0004f05be004f04be000000e00000000600ff
:1018e000e4874700889fbe008a9fbe008c9fbe0091
:1018f0008e1f7800845c2400452e8200e08f520009
:101900000b003a00e4024200452e8a00952e8a0020
:1019100024029800842e8a00a44290000504a000ae
:1019200025429800e44290000504a000654298001a
:10193000670440004244de004244dd00822e820003
:10194000a45d2400e97c2400848454002500200048
:10195000110009008504d80080bf9f0005074400de
:101960000e0747000003eb00e40544001c7d240043
:101970000406560008064600020037001600200044
:101980000d017800224290006102620002003200e4
:101990000a0037001509780092027800254290006d
:1019a00061026200fbff320008024100848f520096
:1019b00002003900e00f54003f003d00920678001d
:1019c0000d00a100828f5600edff3e00e10f530095
:1019d000eaff3a000fba9700840f54000200360065
:1019e000890f5400100039006143b800614ab90002
:1019f000b0ff2f0001002000040250008582580033
:101a0000840f5300858f5b00020035000b057800c2
:101a100006003700110009000986d8000982b900c4
:101a200004057800010037000e0578000a007800f0
:101a300090000700e10f400005003a000b05780018
:101a40000b0078008b000700e10f40002b003200f4
:101a5000942e8200000a7800942e820064034200d3
:101a6000a4429000860f5000020032000504a0003e
:101a7000010037000504a1002542980064055500c7
:101a80000a0540000a0878009a2e8a00845c240027
:101a9000040d7800952e8200254290000404a000d9
:101aa000a4429800204290000404a1002440980021
:101ab0000003eb00b2ff3700842e8a00848f5200af
:101ac000070036001403be00a62e8a00b72e8a0037
:101ad000120a78008042eb00842e82002542980092
:101ae000872e820007097800224290000404a0009b
:101af0002441980064004100010037000000eb0021
:101b00004f0778004f06be004f05be004f04be00d1
:101b10004f00b10000000600e00f50000800320046
:101b200064005000842e8200840f500001003100b8
:101b3000802e8a00204290000404a10024409800d6
:101b400000000600889fbe008a9fbe000004be0001
:101b5000e08f540005003a00e00f540032003200dc
:101b600008007800ecff070030003700e00f540059
:101b700004003a000900780059ff0700800478004b
:101b80002a003700640254009405780068fa970030
:101b9000610262000200320008007800deff0700e8
:101ba000090078004eff070080047800e08f5400a1
:101bb0001e003200888f54001b00320069bd970060
:101bc0000905550042d5de0088855500c2ddde00de
:101bd0000a0178008b0f5500010036000b017800d8
:101be0004211dd008800780009007800130007002a
:101bf000888f54000d0031004255dd000a854400f5
:101c0000880f5500090036000804550042c4de0064
:101c10004244dd0008844400a42e8200b52e8200d8
:101c2000048cbe00010037008804780009007800a9
:101c30004f05be004f04be00000006000002780001
:101c400002003700315a78000201e900e00f51002c
:101c5000fcff3a0000000600000278000200370096
:101c6000015a78000201e900e00f5100fcff3a0040
:101c700000000600889fbe0080047800c02e82000d
:101c8000e00f500004003a000e0007000084eb0053
:101c9000e00f500008003500c82e8200e08f54008d
:101ca000050032000900440006000700e00f500064
:101cb00001003d000084eb00080078004f04be00e6
:101cc00000000600e00f500004003a00a45d24006c
:101cd000c42e8a0000027800060037000082eb0064
:101ce000e57c2400850f500002003e00c02e8a00d3
:0c1cf0000002eb00040078000000060079
:020000040000fa
:101cfc000800fa006003070000027800040f780067
:101d0c003003070000027800140798000003070056
:101d1c00000278002407980098030700000278005e
:101d2c0034079800809320003c08070000027800dc
:101d3c00e20120009e00780004007800bc0307003c
:101d4c0000427800e04f5200040032009e00780000
:101d5c00809320001c0807000a00370080932000a5
:101d6c002e080700000278009e007800040078001e
:101d7c00c3030700000278008400780080932000e1
:101d8c0011080700009520002408070000027800c5
:101d9c00e20120009e00900004007800a4030700dc
:101dac0000427800e04f5200040032009e00900088
:101dbc0000952000040807000a0037000095200059
:101dcc0016080700000278009e00900004007800be
:101ddc00ab03070000027800840078000095200017
:101dec00f9070700c09520000c08070000027800d6
:101dfc00e2012000ae009000040078008c03070084
:101e0c0000427800e04f520004003200ae00900017
:101e1c00c0952000ec0707000a003700c095200091
:101e2c00fe07070000027800ae0090000400780066
:101e3c00930307000002780084007800c09520000e
:101e4c00e107070040942000f40707000002780027
:101e5c00e2012000be00900004007800740307002b
:101e6c0000427800e04f520004003200be009000a7
:101e7c0040942000d40707000a003700409420004b
:101e8c00e607070000027800be009000040078000e
:101e9c007b03070000027800840078004094200047
:101eac00c90707000080fa00000006000000fa00d5
:101ebc00881f7800808820008d07070000027800ba
:101ecc00351f2000850f52003d003c00608f200024
:101edc008707070000047800008e200084070700a5
:101eec000002780084024400d4122000848f520037
:101efc0007003400808820007d070700000278006e
:101f0c008400780080932000af0707002f00370073
:101f1c00608f20007607070000047800008e2000f8
:101f2c00730707000002780084024400740c200040
:101f3c00848f52000f003c00608f20006c0707005c
:101f4c0000047800008e200069070700000278006a
:101f5c008402440024002000110009008402d800ef
:101f6c000002780084007800809320009607070018
:101f7c0016003700608f20005d0707000004780012
:101f8c00008e20005a070700000278000404440069
:101f9c008088200056070700000278008402440065
:101fac0034002000110009008402d80000027800df
:101fbc00840078008093200083070700030037001b
:101fcc00411f2000809320007f070700c085200060
:101fdc004707070000027800351f2000850f5200cc
:101fec0029003c00a08c200041070700000278006b
:101ffc0065092000850f520007003400c0852000c1
:10200c003b0707000002780084007800c095200090
:10201c006d0707001f003700a08c20003407070055
:10202c000002780035062000850f520007003c00a6
:10203c00a08c20002e070700000278008400780096
:10204c00c09520006007070012003700a08c20000c
:10205c002707070000047800c0852000240707002c
:10206c0000027800840244002400200011000900c2
:10207c008402d8000002780084007800c09520000b
:10208c005107070003003700411f2000c0952000b6
:10209c004d07070020872000150707000002780075
:1020ac00351f2000850f520029003c00408b20007a
:1020bc000f0707000002780065092000850f520009
:1020cc000700340020872000090707000002780071
:1020dc0084007800009520003b0707001f003700a4
:1020ec00408b200002070700000278003506200014
:1020fc00850f520007003c00408b2000fc060700b7
:10210c000002780084007800009520002e0707005c
:10211c0012003700408b2000f50607000004780001
:10212c0020872000f2060700000278008402440099
:10213c0024002000110009008402d800000278005d
:10214c0084007800009520001f070700030037006b
:10215c00411f2000009520001b0707006084200011
:10216c00e306070000027800351f2000850f52009f
:10217c0029003c00e0892000dd0607000002780001
:10218c0065092000850f5200070034006084200090
:10219c00d7060700000278008400780040942000e5
:1021ac00090707001f003700e0892000d006070050
:1021bc000002780035062000850f520007003c0015
:1021cc00e0892000ca06070000027800840078002d
:1021dc0040942000fc06070012003700e089200024
:1021ec00c30607000004780060842000c0060700c6
:1021fc000002780084024400240020001100090031
:10220c008402d800000278008400780040942000fa
:10221c00ed06070003003700411f2000409420000a
:10222c00e90607004f0478000080fa000000060061
:10223c000200fa0001022000209e20007d08070009
:10224c0001022000209c20007a08070001022000d7
:10225c00209820007708070001022000209a200017
:10226c00740807000002eb00040f78002d00370003
:10227c009e0278006482420084024200249e200068
:10228c0004824200940278001e027800040342008b
:10229c0024b1200004024300050a78009e02780055
:1022ac006482420084024200249c2000048242008a
:1022bc00940278001e0278000403420024b020002f
:1022cc0004024300050a78009e02780064824200f2
:1022dc008402420024982000048242009402780078
:1022ec001e0278000403420024ae200004024300c6
:1022fc00050a78009e027800648242008402420043
:10230c00249a200004824200940278001e02780075
:10231c000403420024af200004024300050a7800a5
:10232c001e0fe8001e027800e70f5200d0ff3400a9
:10233c000101200020b12000d90007000002780024
:10234c0004007800f6000700000278008400780092
:10235c0060842000510607000101200020b02000fd
:10236c00cf0007000002780004007800ec000700a2
:10237c000002780084007800c08520004706070022
:10238c000101200020ae2000c500070000027800eb
:10239c0004007800e2000700000278008400780056
:1023ac00808820003d0607000101200020af20009e
:1023bc00bb0007000002780004007800d80007007a
:1023cc000002780084007800208720003306070084
:1023dc000080fa00000006000200fa000102200052
:1023ec0020a82000130807000102200020a42000d0
:1023fc00100807000102200020a620000d0807008d
:10240c000102200020a220000a080700010220007f
:10241c0020a02000070807000102200020ac2000ab
:10242c00040807000102200020aa20000108070070
:10243c000002eb00040f78004e0037009e0278007b
:10244c00648242008402420024a8200004824200dc
:10245c00940278001e0278000403420024b6200087
:10246c0004024300050a78009e0278006482420050
:10247c008402420024a420000482420094027800ca
:10248c001e0278000403420024b42000040243001e
:10249c00050a78009e0278006482420084024200a1
:1024ac0024a6200004824200940278001e027800c8
:1024bc000403420024b5200004024300050a7800fe
:1024cc009e027800648242008402420024a2200012
:1024dc0004824200940278001e0278000403420039
:1024ec0024b3200004024300050a78009e02780001
:1024fc00648242008402420024a020000482420034
:10250c00940278001e0278000403420024b22000da
:10251c0004024300050a78009e027800648242009f
:10252c008402420024ac2000048242009402780011
:10253c001e0278000403420024b820000402430069
:10254c00050a78009e0278006482420084024200f0
:10255c0024aa200004824200940278001e02780013
:10256c000403420024b7200004024300050a78004b
:10257c001e0fe8001e027800e70f5200afff340078
:10258c000101200020b62000450007000002780061
:10259c0004007800810007000002780084007800b5
:1025ac00e0892000bd0507000101200020b42000b7
:1025bc003b00070000027800040078007700070059
:1025cc000002780084007800408b2000b3050700df
:1025dc000101200020b52000310007000002780026
:1025ec00040078006d000700000278008400780079
:1025fc00a08c2000a90507000101200020b32000b9
:10260c002700070000027800040078006300070030
:10261c000002780084007800608f20009f0507007e
:10262c000101200020b220001d00070000027800ec
:10263c00040078005900070000027800840078003c
:10264c00008e2000950507000101200020b8200015
:10265c0013000700000278000400780068000700ef
:10266c000002780084007800c09020008b050700e1
:10267c000101200020b720000900070000027800ab
:10268c00040078005e0007000002780084007800e7
:10269c0020922000810507000080fa00000006004f
:1026ac000800fa0020079800310798003e029000bd
:1026bc000402d100340798000002eb00040f7800ec
:1026cc000002eb0014079800090037001e0290006e
:1026dc0004024200ae029000048242001402780010
:1026ec001e0f42001e0290000402e800140798001e
:1026fc009e0290003e029000848f5200f3ff39003e
:10270c009e0278003e029000110009008482d800dd
:10271c0000027800040078000080fa000000060037
:10272c000400fa00100798009e029000146c200020
:10273c00848f520002003e006422200014003700f7
:10274c001e029000050020000400be0088f907005e
:10275c000002be0072be2f0093002c000400be00cd
:10276c000cfa07000002be0012202b0043f42400d8
:10277c000400be00d3f907000002be000400be0036
:10278c003cf907000002be00040f78001e0278001e
:10279c00040078000080fa00000006000400fa0033
:1027ac00100798001e029000050020000400be00d7
:1027bc006ff907000002be00b2f32d00f3f82b00f6
:1027cc000400be00f3f907000002be00022c2d002d
:1027dc00338324000400be00baf907000002be00d7
:1027ec000400be0023f907000002be00040f7800ad
:1027fc001e027800040078000080fa000000060039
:10280c000400fa00100798001e029000050020003a
:10281c000400be0056f907000002be00e2f92e00cb
:10282c0073f82b000400be00daf907000002be00aa
:10283c0002602100c36b24000400be00a1f9070054
:10284c000002be000400be000af907000002be0030
:10285c00040f78001e027800040078000080fa0053
:10286c00000006000800fa001007980021079800e5
:10287c00320798000002eb00040f78001f003700ad
:10288c001e02780004024200be0290000480420046
:10289c001e027800cfa2de000402420085824a00ac
:1028ac00848fd2008582d2000402780004f0a1004b
:1028bc001e039000ae0390008600d0000401d000ef
:1028cc00028240004220a80085824b004200a900f1
:1028dc004220ae004200a8000482d300a601800072
:1028ec0085037800a70188000402780014027800a0
:1028fc00a6018800040878001e0fe8001e0278006c
:10290c00ef0f5200deff34000080fa0000000600da
:10291c000000fa00881f7800c0852000f40407002e
:10292c0000027800351f2000850f520020003c006b
:10293c00a08c2000ee04070000027800650920003e
:10294c00850f520004003400c0852000e804070005
:10295c000002780017003700a08c2000e404070068
:10296c000002780035062000850f520004003c0060
:10297c00a08c2000de040700000278000d00370058
:10298c00a08c2000da04070000047800c085200029
:10299c00d7040700000278008402440024002000c1
:1029ac00110009008402d8000002780001003700f1
:1029bc00441f2000040078004f0478000080fa00c7
:1029cc00000006000000fa00881f78002087200015
:1029dc00c704070000027800351f2000850f520045
:1029ec0020003c00408b2000c1040700000278004e
:1029fc0065092000850f5200040034002087200058
:102a0c00bb0407000002780017003700408b200041
:102a1c00b70407000002780035062000850f52002d
:102a2c0004003c00408b2000b10407000002780039
:102a3c000d003700408b2000ad0407000004780027
:102a4c0020872000aa0407000002780084024400ba
:102a5c0024002000110009008402d8000002780034
:102a6c0001003700441f2000040078004f04780058
:102a7c000080fa00000006000000fa00881f7800b1
:102a8c00808820009a04070000027800351f20007f
:102a9c00850f520034003c00608f20009404070026
:102aac0000047800008e20009104070000027800da
:102abc0084024400d4122000848f5200040034009d
:102acc00808820008a040700000278002700370065
:102adc00608f20008604070000047800008e200020
:102aec00830407000002780084024400740c200068
:102afc00848f52000c003c00608f20007c04070087
:102b0c0000047800008e2000790407000002780091
:102b1c008402440024002000110009008402d80023
:102b2c000002780011003700608f2000700407004d
:102b3c0000047800008e20006d040700000278006d
:102b4c000404440080882000690407000002780017
:102b5c008402440034002000110009008402d800d3
:102b6c000002780001003700441f200004007800a8
:102b7c004f0478000080fa00000006000000fa0004
:102b8c00881f780060842000590407000002780038
:102b9c00351f2000850f520020003c00e0892000ea
:102bac00530407000002780065092000850f5200cd
:102bbc0004003400608420004d04070000027800fb
:102bcc0017003700e0892000490407000002780054
:102bdc0035062000850f520004003c00e0892000df
:102bec0043040700000278000d003700e089200044
:102bfc003f04070000047800608420003c040700b8
:102c0c000002780084024400240020001100090016
:102c1c008402d8000002780001003700441f200015
:102c2c00040078004f0478000080fa0000000600d1
:102c3c000600fa00000f7800110798002207980090
:102c4c002e0290009e0242001e029000848f5200c1
:102c5c00070034002e0290009e0212001e0290000b
:102c6c00848f520002003d0014c0b30001003700f5
:102c7c000042eb00044078000080fa0000000600df
:102c8c000600fa00889fbe001007980021079800e4
:102c9c00ae0290001e029000048f52001e029000a3
:102cac00cfa2de000400be002ef807000004be0018
:102cbc001e027800cfa2de000400be0029f8070037
:102ccc000002be000200200003f023000400be003e
:102cdc007cf807000002be000401be000800be0024
:102cec0045f707000002be000400be00e1f7070034
:102cfc000002be0004027800040078004f04be00fd
:102d0c000080fa00000006000a00fa00b55c8000a2
:102d1c00645d8000048f52001e02780005002000c4
:102d2c000400be0012f807000002be0052f92b008e
:102d3c00637523000400be0062f807000002be00a9
:102d4c0014079800250798001e019000ae01900012
:102d5c00f0282c005108240084f707000002be0064
:102d6c0002002000832c24000400be0055f807004c
:102d7c000002be0034079800450798003e00900002
:102d8c00ce009000dcf707000002be008402780041
:102d9c00845d8000048242000402d100845d8800be
:102dac00b45c8000645d88000080fa0000000600be
:102dbc000a00fa00c55c8000745d8000048f52002c
:102dcc001e027800050020000400be00e8f7070092
:102ddc000002be0052f92b00637523000400be00f4
:102dec0038f807000002be00140798002507980069
:102dfc001e019000ae019000f0282c005108240018
:102e0c005af707000002be0002002000832c2400a9
:102e1c000400be002bf807000002be003407980027
:102e2c00450798003e009000ce009000b2f70700d6
:102e3c000002be0084027800945d8000048242008f
:102e4c000402d100945d8800c45c8000745d88002d
:102e5c000080fa00000006000000fa000f000700d6
:102e6c0039000700820007009d0007006300200066
:102e7c00c29720000101200080962000c3010700aa
:102e8c005000070062000700320107006c010700c8
:102e9c00840107000080fa00000006000000fa0020
:102eac00e4012000343a8800243a80000460a10038
:102ebc000470a100243a8800253a800004fe2f00fb
:102ecc00048262003400b300243a880036002000eb
:102edc0084072000a509200037742000844b78005b
:102eec00854b7800864b7800143a800004037800f8
:102efc000600a00064042000750520002774200043
:102f0c00844b7800854b7800864b780000000000dd
:102f1c00153a80000400270084826200040023001c
:102f2c00848f5200faff3a0000000000153a80002e
:102f3c000402200004826200e00f5200fbff32000a
:102f4c000080fa00000006000000fa002535800021
:102f5c0004fe2f00048262007401b3002435880043
:102f6c00b536800004fe2f00048262003400b300ea
:102f7c00b4368800d4c2a800d4e2a8002002a9006c
:102f8c00041180000410a1000420a1000411880089
:102f9c0020a2a900040420004411880023a2a90047
:102fac0023e2a800141180000460a1000470a100a9
:102fbc001411880021e2a8002342a8000080fa0026
:102fcc00000006000000fa00c41c80000440a100b0
:102fdc000450a000c41c8800c41c80000400a00085
:102fec000410a100c41c880004302000041d8800bb
:102ffc00d4002000d41c880004402000e41c88006d
:10300c008700a9009700a8000080fa0000000600c5
:10301c000000fa00041980000480a1000490a100b3
:10302c0004198800041980000450a0000460a0005a
:10303c000470a000041988002043a8002143a800b4
:10304c002343a80025e3a8002183a900941980003c
:10305c000400a1000410a1000420a0009419880011
:10306c0085a0a90095a0a9000080fa000000060028
:10307c000000fa00c022a800c802a800c822a800bc
:10308c00c842a800c862a800d002a800d022a8009c
:10309c00d042a800c9e2a800c9c2a800c9a2a800d1
:1030ac00c882a900c082a900c122a900d062a900cf
:1030bc00d082a900d0a2a900c902a900c922a900e6
:1030cc00c982a900c142a900c0e2a900d102a8008e
:1030dc00d122a800c962a9000080fa0000000600f5
:1030ec000400fa00cc82a8006022b800048fbe0055
:1030fc000400370014002000050020001e0f4200c1
:10310c005e974a00f4232400f50020001e03be0045
:10311c00840f5300858f5b00f6ff3600c482a80035
:10312c006022b800048fbe00040037001400200099
:10313c00050020001e0f42005e974a00f423240075
:10314c00f50020001e03be00840f5300858f5b002a
:10315c00f6ff3600c522a8006022b800048fbe001e
:10316c000400370014002000050020001e0f420050
:10317c005e974a00f4232400f50020001e03be00d5
:10318c00840f5300858f5b00f6ff3600d462a800d5
:10319c006022b800048fbe00040037001400200029
:1031ac00050020001e0f42005e974a00f423240005
:1031bc00f50020001e03be00840f5300858f5b00ba
:1031cc00f6ff3600d482a8006022b800048fbe003f
:1031dc000400370014002000050020001e0f4200e0
:1031ec005e974a00f4232400f50020001e03be0065
:1031fc00840f5300858f5b00f6ff3600d4a2a80025
:10320c006022b800048fbe000400370014002000b8
:10321c00050020001e0f42005e974a00f423240094
:10322c00f50020001e03be00840f5300858f5b0049
:10323c00f6ff3600cd02a8006022b800048fbe0055
:10324c000400370014002000050020001e0f42006f
:10325c005e974a00f4232400f50020001e03be00f4
:10326c00840f5300858f5b00f6ff3600cd22a8003b
:10327c006022b800048fbe00040037001400200048
:10328c00050020001e0f42005e974a00f423240024
:10329c00f50020001e03be00840f5300858f5b00d9
:1032ac00f6ff3600cd82a8006022b800048fbe0065
:1032bc000400370014002000050020001e0f4200ff
:1032cc005e974a00f4232400f50020001e03be0084
:1032dc00840f5300858f5b00f6ff3600c542a800b3
:1032ec006022b800048fbe000400370014002000d8
:1032fc00050020001e0f42005e974a00f4232400b4
:10330c00f50020001e03be00840f5300858f5b0068
:10331c00f6ff3600c4e2a8006022b800048fbe009d
:10332c000400370014002000050020001e0f42008e
:10333c005e974a00f4232400f50020001e03be0013
:10334c00840f5300858f5b00f6ff36000080fa0077
:10335c00000006000000fa0005e1a9000421a90004
:10336c0004c1a900240880000440a0000450a0005f
:10337c00240888000002eb000408880044e82100bf
:10338c00140888002405800004c0a00004d0a1000b
:10339c0004e0a100240588008460a9009460a800c2
:1033ac0011e1a9001021a90010c1a9008408800016
:1033bc000440a0000450a000840888000002eb0028
:1033cc00340888000082eb00640888003405800013
:1033dc0004c0a00004d0a10004e0a10034058800c2
:1033ec0084e0a90094e0a90011e1a8001fe1a90064
:1033fc001e21a9001ec1a900f40880000440a000f1
:10340c000450a000f40888000002eb00a408880017
:10341c0034f42000d40888008405800004c0a00087
:10342c0004d0a10004e0a100840588008760a900f5
:10343c009760a9001fe1a8000080fa0000000600b8
:10344c000000fa006084200057020700c0852000ad
:10345c0055020700208720005302070080882000b7
:10346c0051020700e08920004f020700408b20002a
:10347c004d020700a08c20004b020700008e20009c
:10348c0049020700608f200047020700c09020000f
:10349c004502070020922000430207000080fa003a
:1034ac00000006000000fa00140a80000400a100cd
:1034bc000410a1000420a100140a880042e1a80015
:1034cc00140a80000450a1000460a100140a8800b2
:1034dc00140a80000400a1000410a0000420a10024
:1034ec00140a8800240580000440a0000450a100a8
:1034fc000460a100240588008420a9009420a80061
:10350c007534800004fe2f00048262008401b30035
:10351c0074348800340a80000400a1000410a10057
:10352c000420a100340a880046e1a800340a800077
:10353c000450a1000460a100340a8800340a800001
:10354c000400a1000410a0000420a100340a88008b
:10355c00340580000440a0000450a1000460a100c8
:10356c003405880084a0a90094a0a80075348000bc
:10357c00f40f2e00848262000490210004827200f9
:10358c00743488000080fa00000006000800fa007d
:10359c00000f780021479800220798006347980095
:1035ac0000802000250107001e007800a05d880027
:1035bc002e029000b45d88002e409000b8ebb7004e
:1035cc006e409000b9ebb70094bb20001442780019
:1035dc000482fb0004007800bef8070000027800ab
:1035ec00d45d880014002600641c880084bb200075
:1035fc00144278000482fb0063024200b41c880071
:10360c00751c800004f82f0004826200c400b30013
:10361c00741c880044222000a41c8800045a20003a
:10362c00841c880085c0a90095c0a8002400240033
:10363c00041c880094bb2000144278000482fb0018
:10364c0063024200541c8800151c800004f82f00f3
:10365c0004826200b400b300141c880064222000b1
:10366c00441c8800445b2000241c8800e45b200080
:10367c00341c88008480a9009480a80081e3a800f1
:10368c0000482800e1012000060407000080fa0031
:10369c00000006000800fa00200798006147980017
:1036ac000042eb00044f7800200037002e029000ff
:1036bc0094427800154798002e0290000402e8000e
:1036cc002407980084c0b3002447980014003700e6
:1036dc001e4290001e426a0061426200344798000c
:1036ec009e4278000582fb000402d100044f780052
:1036fc003e429000e04f520002003200c4c8b300ba
:10370c001e4f6a001e4290000482fb000402d1008e
:10371c00144798002e4290000442e9002447980078
:10372c002e429000e04f5200e9ff3a006e429000aa
:10373c000482fb000402ea004f22de0004427800ff
:10374c00ee4290008542e90065479800e04f520038
:10375c00d6ff3a001e427800044078000080fa0040
:10376c00000006000400fa0084bb2000144278001c
:10377c00a55d80008440780005007800c5ff070037
:10378c000042780024479800055a240064c0b30016
:10379c00844a7800155a240054c8b300844a78002f
:1037ac0084bb200014427800255a2400844a7800f7
:1037bc000002eb00040f7800090037001e027800ad
:1037cc00e3024200a65d80001e0278000402430062
:1037dc0014427800065a240004f37a001e0fe80005
:1037ec0084bb2000144278000482fb009e0f520020
:1037fc00f2ff3c0084bb2000144278000482fb00e2
:10380c0063024200055a24002e43900086727a000f
:10381c008de3a8008fe3a8000080fa0000000600ea
:10382c000000fa00889fbe00d4bb20001442780030
:10383c00e04f520029003a0000802000f100070000
:10384c0000027800e20f5200240034000700370019
:10385c0000802000eb00070000027800e20f52000d
:10386c0002003c000042eb0070003700008020009a
:10387c00af00070000027800e60f5200f4ff3a0098
:10388c0000802000aa0007000002780055082000e4
:10389c00850f520011003a0000802000a4000700a0
:1038ac00000278000442780004407800bdebb700b9
:1038bc00d5bb20009542780094bb200014427800c0
:1038cc0084cf5200050032000042eb000440780027
:1038dc00bdebb7000042eb0054003700d4bb200016
:1038ec0014427800e04f52004f0032000d003700b8
:1038fc00d55d8000c8bb2000184478000882fb000e
:10390c0084844200008020008900070000027800b7
:10391c0004427800844c78000842e80004407800a7
:10392c00bcebb70000802000b60007000002780056
:10393c00e00f520006003200c5bb20009542780013
:10394c00d4bb20001442780084cf5200e8ff36002c
:10395c00d4bb2000144278008482fb00c4bb20003e
:10396c00144278000482fb000402e900848f5200a8
:10397c002d003a00d4bb200014427800d55d8000a5
:10398c00844078000500780042ff07000042780070
:10399c0004407800beebb700d55d8000c4bb2000ae
:1039ac00144278000482fb000402e9000482420005
:1039bc0094427800e4bb20001442780084cf52007b
:1039cc0011003a0094bb2000144278000483fb00e1
:1039dc00d55d8000b45d800006017800850078001c
:1039ec000400780092f807000042eb0004407800d5
:1039fc00bdebb7000042eb0004407800bcebb70015
:103a0c0014c0b300090037000042eb0004407800fa
:103a1c00bdebb7000042eb0004407800bcebb700f4
:103a2c000042eb00010037000042eb00044078003c
:103a3c004f04be000080fa00000006000200fa00ed
:103a4c00000f7800620420008000eb001e0078005c
:103a5c007ef807000080fa00000006000400fa005f
:103a6c00000f7800214798001e027800a4229000d5
:103a7c00f4032000848f520014003c001e027800d6
:103a8c00042290009e0278002e43900086727a00e9
:103a9c001e0278000422900001042000040078002b
:103aac005f00070000027800840278001e02780094
:103abc00052298001e027800242290008402e8005f
:103acc001e02780025229800170037001e0278008d
:103adc00042290009e0278002e43900086727a0099
:103aec001e027800042290000104200004007800db
:103afc004b00070000027800840278001e02780058
:103b0c00052298001e027800142290000104200067
:103b1c00040078004200070000027800840278005c
:103b2c001e027800152298000080fa0000000600a2
:103b3c000400fa00100798001e0290002422900046
:103b4c00e00f5200130034001e029000142290006b
:103b5c009e029000654f7a001e0290001422900085
:103b6c0001042000040078002d00070000027800fa
:103b7c00840278001e029000152298001e0290000c
:103b8c00242290008402e9001e0290002522980055
:103b9c00020037000042eb00044f78001e42780010
:103bac00044078000080fa00000006000400fa00cf
:103bbc00000f7800110798001e0278008002eb00bd
:103bcc00252298001e0278008002eb000522980046
:103bdc001e0278008002eb00152298001e02900055
:103bec00e00f5200050032001e0278000204200093
:103bfc008000eb000400780014f807000080fa0045
:103c0c00000006000200fa00000f78001e02780087
:103c1c0024229000040078000080fa0000000600c6
:103c2c000600fa0010079800210798001e02900069
:103c3c00040fe8002e0290009e027800848f520040
:103c4c00020039000002eb00040f78001e0278001d
:103c5c00040078000080fa00000006000600fa005c
:103c6c0010079800210798001e029000e00f5200e8
:103c7c0003003a002e0290000402e9000200370013
:103c8c001e0290000402e900040f78001e02780066
:103c9c00040078000080fa00000006000400fa001e
:103cac00000f7800110798001e027800240a90007b
:103cbc009e02780004024200048242009e029000a0
:103ccc00050a78001e027800240a9000a10020004a
:103cdc0004007800d2ff070000027800840278000c
:103cec001e027800250a98000080fa0000000600e9
:103cfc000200fa00000f78001e027800240a9000df
:103d0c00e00f520003003a001e027800140a9000e3
:103d1c00060037001e027800240a90000402e90015
:103d2c009e0278000402420065027a0004007800ca
:103d3c000080fa00000006000800fa003007980026
:103d4c000002eb00040f78000002eb00140798004f
:103d5c0008003700be0290001e02900004024200d0
:103d6c0065027a001e0f42001e0290000402e80059
:103d7c00140798001e029000e90f5200f5ff340062
:103d8c009e027800a4002000110009008482d80053
:103d9c0000027800240798002e029000040078009e
:103dac000080fa00000006000200fa00000f780004
:103dbc00620120008000eb001e007800a3f70700d2
:103dcc000080fa00000006000400fa00000f7800e2
:103ddc00110798001e027800540290009e02780091
:103dec0004024200048242009e029000050a780000
:103dfc001e0278005402900051002000040078004c
:103e0c0087ff070000027800840278001e02780009
:103e1c00550298000080fa00000006000200fa002b
:103e2c00000f78001e02780054029000e00f520040
:103e3c0003003a001e02780044029000060037008e
:103e4c001e027800540290000402e9009e027800e1
:103e5c000402420065027a00040078000080fa0037
:103e6c00000006000800fa00300798000002eb0082
:103e7c001407980008003700be0290001e02900044
:103e8c000402420065027a001e0f42001e029000de
:103e9c000402e800140798001e029000e40f520080
:103eac00f5ff34009e027800540020001100090038
:103ebc008482d80000027800240798002e0290001b
:103ecc00040078000080fa00000006000000fa00f0
:103edc00e1fb0700cd62a80005e1a8000500370052
:103eec000000000003003700000000000100370054
:103efc0000000000641680004b22de00614262006c
:103f0c000404a200614262000482fb0061026200b0
:103f1c004b22dd0066168000f57f2f0085026300c2
:103f2c0004827200641688003dfe070000027800cf
:103f3c00e00f5200010032002a01070024ba2000d1
:103f4c0014427800e04f5200050032000042eb00b2
:103f5c0004407800a2ebb700d300070001fe070075
:103f6c0054ba200014427800e04f52000400320092
:103f7c000042eb0004407800a5ebb70062fb0700a1
:103f8c0064ba200014427800e04f52000400320062
:103f9c000042eb0004407800a5ebb70084fb07005f
:103fac00d45c8000e00f52005f003a00e45c8000bb
:103fbc00e00f52002e003a0004ba200014427800a0
:103fcc000404a200e04f52000500320014c0b300fc
:103fdc0004407800a0ebb70052010700b3f70700cc
:103fec0014ba2000144278000404a200e04f5200de
:103ffc000400320014c0b30004407800a1ebb700f9
:10400c007001070034ba200014427800e04f5200cf
:10401c001700320086f807000042eb0004407800dd
:10402c00a0ebb7000042eb0004407800a1ebb70016
:10403c000042eb0004407800a3ebb7001400200012
:10404c00e45c880014c0b30004407800a4ebb70013
:10405c00d55c8000f45c8000848f52000400320038
:10406c00f45c8000d45c88000002eb00e45c880007
:10407c00e45c8000e10f52002b003a0004ba2000ef
:10408c00144278000404a200e04f520004003200f5
:10409c0014c0b30004407800a0ebb7003501070052
:1040ac0014ba2000144278000404a200e04f52001d
:1040bc000400320014c0b30004407800a1ebb70038
:1040cc004501070034ba200014427800e04f52003a
:1040dc0015003200c0f807000042eb0004407800e5
:1040ec00a0ebb7000042eb0004407800a1ebb70056
:1040fc000042eb0004407800a3ebb70014c0b300ff
:10410c0004407800a4ebb700d55c8000f45c800020
:10411c00848f520002003200f45c8000d45c880072
:10412c000002eb00e45c8800d45c8000e10f5200dc
:10413c006bff3a00e45c8000e00f52002e003a0066
:10414c0004ba2000144278000404a200e04f52008c
:10415c000800320014c0b30004407800a0ebb70094
:10416c00f0000700e2f6070014c0b300044078002a
:10417c00a4ebb70014ba2000144278000404a20087
:10418c00e04f52000400320014c0b3000440780029
:10419c00a1ebb7000b01070034ba200014427800e1
:1041ac00e04f52001400320021f807000042eb00ef
:1041bc0004407800a0ebb7000042eb00044078000c
:1041cc00a1ebb7000042eb0004407800a3ebb70072
:1041dc0014002000e45c8800d55c8000f45c800056
:1041ec00848f520004003200f45c8000d45c8800a0
:1041fc000002eb00e45c8800e45c8000e10f5200fc
:10420c0039ff3a0004ba2000144278000404a200da
:10421c00e04f52000400320014c0b3000440780098
:10422c00a0ebb700d300070014ba200014427800aa
:10423c000404a200e04f52000400320014c0b3008a
:10424c0004407800a1ebb700e300070034ba20006b
:10425c0014427800e04f520025ff32005ef8070050
:10426c000042eb0004407800a0ebb7000042eb00ea
:10427c0004407800a1ebb7000042eb00044078004a
:10428c00a3ebb700d55c8000f45c8000848f5200f7
:10429c0002003200f45c8000d45c88000002eb0069
:1042ac00e45c880013ff37000000fa0080932000c4
:1042bc00dafe070000027800444b880000952000cd
:1042cc00d6fe070000027800544b8800c0952000f1
:1042dc00d2fe070000027800644b88004094200056
:1042ec00cefe070000027800744b8800209220005c
:1042fc0091fe070000027800844b8800c0902000db
:10430c008dfe070000027800944b8800445d80000d
:10431c00945c88000002eb00445d8800545d8000d2
:10432c00a45c88000002eb00545d8800945c800063
:10433c00040078003000070000027800a44b8800cd
:10434c00a45c8000040078002b00070000027800b9
:10435c00b44b8800a45c8000e00f52000a003a00c5
:10436c00045e8000ea0f5200030034000002eb00f0
:10437c00945d880006003700045e80000402e800ab
:10438c00045e8800020037000002eb00045e880027
:10439c00945c8000e00f52000a003a00145e80002a
:1043ac00ea0f5200030034000002eb00845d880029
:1043bc0006003700145e80000402e800145e8800da
:1043cc00020037000002eb00145e8800845d800060
:1043dc00c44b8800945d8000d44b88000080fa00a8
:1043ec00000006000000fa00e44b8000f45c88003a
:1043fc000080fa00000006000200fa00000f7800ae
:10440c009e027800241a200004aab9000402780045
:10441c00040078000080fa00000006000200fa0098
:10442c00000f78001e027800040078000080fa006b
:10443c00000006000a00fa003007980041079800b7
:10444c00ce02900024002000110009008402d80044
:10445c00000278004407980014002000140798000c
:10446c002a0037001e02900004024200be02900097
:10447c000482420014027800240798001e02900067
:10448c00040fe9000c0037001e0278000402e8005b
:10449c0004024200be029000848242001e02780098
:1044ac00040242003e039000040243001402780010
:1044bc00840a78001e0fe9001e027800e00f5200fb
:1044cc00080035001e02780004024200be02900073
:1044dc0004824200940278002e029000848f5200d5
:1044ec00e9ff39001e0278000402e80004024200d1
:1044fc00be02900004824200ae029000050a7800d1
:10450c001e0290000402e800140798009e0290001e
:10451c004e029000848f5200d2ff35000080fa00ca
:10452c00000006000000fa000002eb00841988006d
:10453c003063a80030a3a80030c3a8003103a80042
:10454c00f4032000141d8800141980000420a0001e
:10455c000430a0000440a1000450a10014198800ec
:10456c000080fa00000006000000fa000080fa004b
:10457c00000006000000fa000002eb00841988001d
:10458c003023a8003043a8003083a80030e3a800f3
:10459c003123a8003143a8003163a800f4062000a1
:1045ac00141d8800141980000420a1000430a00000
:1045bc000440a0000450a100141988000080fa00e7
:1045cc00000006000000fa0099e3a80021e3a8000f
:1045dc000080fa00000006000000fa0099e3a80031
:0c45ec0021e3a8000080fa000000060097
:020000040000fa
:1045f800000800009a03000000000000b445000015
:104608000a00000000000000be4500000a0000008b
:1046180000000000a0450000140000000000000099
:1046280000440000a0010000000000009a0b0000f8
:104638001a00000002000000010000000001000054
:104648000000000000000000000000000000000062
:10465800000000000000000000000000b40b000093
:104668000c00000000000000c40b00000200000065
:1046780000000000c00b0000040000000000000063
:10468800c60b00000200000000000000c845000042
:104698001000000000000000d845000002000000e3
:0846a80000000000000000000a
:020000040000fa
:1046b000f03fb1000180b10006003500ee030900b3
:1046c00000000000403fb1000180b100fbff3d0051
:1046d0001000b000203fb00002003500008009004b
:0846e0000000000000000600cc
:020000040000fa
:0200000401f009
:04000000cf0000002d
:020000040000fa
:0200000401f009
:04000400cf00000029
:020000040000fa
:0200000401f009
:0400080007000000ed
:020000040000fa
:0200000401f009
:04000c0002000000ee
:020000040000fa
:0200000401f009
:0400100042000000aa
:020000040000fa
:0200000401f009
:040014005f00000089
:020000040000fa
:0200000401f009
:04001800f7000000ed
:020000040000fa
:0200000401f009
:04001c00deff000003
:00000001FF
