:020000040000fa
:080000000002040000000000f2
:020000040000fa
:0400080030030000c1
:020000040000fa
:04000c0030030000bd
:020000040000fa
:0400100030030000b9
:020000040000fa
:0400140030030000b5
:020000040000fa
:0400180030030000b1
:020000040000fa
:04001c0030030000ad
:020000040000fa
:0400200030030000a9
:020000040000fa
:0400240030030000a5
:020000040000fa
:0400280030030000a1
:020000040000fa
:04002c00300300009d
:020000040000fa
:040030003003000099
:020000040000fa
:040034003003000095
:020000040000fa
:040038003003000091
:020000040000fa
:04003c00300300008d
:020000040000fa
:040040003003000089
:020000040000fa
:040044003003000085
:020000040000fa
:040048003003000081
:020000040000fa
:04004c00300300007d
:020000040000fa
:040050003003000079
:020000040000fa
:040054003003000075
:020000040000fa
:040058003003000071
:020000040000fa
:04005c00300300006d
:020000040000fa
:040060003003000069
:020000040000fa
:040064003003000065
:020000040000fa
:040068003003000061
:020000040000fa
:04006c00800f000001
:020000040000fa
:040070003003000059
:020000040000fa
:040074003003000055
:020000040000fa
:040078003003000051
:020000040000fa
:04007c00300300004d
:020000040000fa
:040080003003000049
:020000040000fa
:040084003003000045
:020000040000fa
:040088003003000041
:020000040000fa
:04008c00300300003d
:020000040000fa
:040090003003000039
:020000040000fa
:040094003003000035
:020000040000fa
:040098003003000031
:020000040000fa
:04009c00300300002d
:020000040000fa
:0400a0003003000029
:020000040000fa
:0400a4003003000025
:020000040000fa
:0400a8003003000021
:020000040000fa
:0400ac00300300001d
:020000040000fa
:0400b0003003000019
:020000040000fa
:0400b4003003000015
:020000040000fa
:0400b8003003000011
:020000040000fa
:0400bc00300300000d
:020000040000fa
:0400c0003003000009
:020000040000fa
:0400c4003003000005
:020000040000fa
:0400c8003003000001
:020000040000fa
:0400cc0030030000fd
:020000040000fa
:0400d00030030000f9
:020000040000fa
:0400d40030030000f5
:020000040000fa
:0400d80030030000f1
:020000040000fa
:0400dc0030030000ed
:020000040000fa
:0400e00030030000e9
:020000040000fa
:0400e40030030000e5
:020000040000fa
:0400e80030030000e1
:020000040000fa
:0400ec0030030000dd
:020000040000fa
:0400f000c611000035
:020000040000fa
:0400f40030030000d5
:020000040000fa
:0400f80030030000d1
:020000040000fa
:0400fc0030030000cd
:020000040000fa
:0401000030030000c8
:020000040000fa
:0401040030030000c4
:020000040000fa
:0401080030030000c0
:020000040000fa
:04010c0030030000bc
:020000040000fa
:0401100030030000b8
:020000040000fa
:0401140030030000b4
:020000040000fa
:0401180030030000b0
:020000040000fa
:04011c0030030000ac
:020000040000fa
:0401200030030000a8
:020000040000fa
:0401240030030000a4
:020000040000fa
:0401280030030000a0
:020000040000fa
:04012c00300300009c
:020000040000fa
:040130003003000098
:020000040000fa
:040134003003000094
:020000040000fa
:040138003003000090
:020000040000fa
:04013c00300300008c
:020000040000fa
:040140003003000088
:020000040000fa
:040144003003000084
:020000040000fa
:040148003003000080
:020000040000fa
:04014c00300300007c
:020000040000fa
:040150003003000078
:020000040000fa
:040154003003000074
:020000040000fa
:040158003003000070
:020000040000fa
:04015c00300300006c
:020000040000fa
:040160003003000068
:020000040000fa
:040164003003000064
:020000040000fa
:040168003003000060
:020000040000fa
:04016c00300300005c
:020000040000fa
:040170003003000058
:020000040000fa
:040174003003000054
:020000040000fa
:040178003003000050
:020000040000fa
:04017c00300300004c
:020000040000fa
:040180003003000048
:020000040000fa
:040184003003000044
:020000040000fa
:040188003003000040
:020000040000fa
:04018c00300300003c
:020000040000fa
:040190003003000038
:020000040000fa
:040194003003000034
:020000040000fa
:040198003003000030
:020000040000fa
:04019c00300300002c
:020000040000fa
:0401a0003003000028
:020000040000fa
:0401a4003003000024
:020000040000fa
:0401a8003003000020
:020000040000fa
:0401ac00300300001c
:020000040000fa
:0401b0003003000018
:020000040000fa
:0401b4003003000014
:020000040000fa
:0401b8003003000010
:020000040000fa
:0401bc00300300000c
:020000040000fa
:0401c0003003000008
:020000040000fa
:0401c4003003000004
:020000040000fa
:0401c8003003000000
:020000040000fa
:0401cc0030030000fc
:020000040000fa
:0401d00030030000f8
:020000040000fa
:0401d40030030000f4
:020000040000fa
:0401d80030030000f0
:020000040000fa
:0401dc0030030000ec
:020000040000fa
:0401e00030030000e8
:020000040000fa
:0401e40030030000e4
:020000040000fa
:0401e80030030000e0
:020000040000fa
:0401ec0030030000dc
:020000040000fa
:0401f00030030000d8
:020000040000fa
:0401f40030030000d4
:020000040000fa
:0401f80030030000d0
:020000040000fa
:0401fc0030030000cc
:020000040000fa
:0402000030030000c7
:020000040000fa
:0402040030030000c3
:020000040000fa
:0402080030030000bf
:020000040000fa
:04020c0030030000bb
:020000040000fa
:0402100030030000b7
:020000040000fa
:0402140030030000b3
:020000040000fa
:0402180030030000af
:020000040000fa
:04021c0030030000ab
:020000040000fa
:0402200030030000a7
:020000040000fa
:0402240030030000a3
:020000040000fa
:04022800300300009f
:020000040000fa
:04022c00300300009b
:020000040000fa
:040230003003000097
:020000040000fa
:040234003003000093
:020000040000fa
:04023800300300008f
:020000040000fa
:04023c00300300008b
:020000040000fa
:040240003003000087
:020000040000fa
:040244003003000083
:020000040000fa
:04024800300300007f
:020000040000fa
:04024c00300300007b
:020000040000fa
:040250003003000077
:020000040000fa
:040254003003000073
:020000040000fa
:04025800300300006f
:020000040000fa
:04025c00300300006b
:020000040000fa
:040260003003000067
:020000040000fa
:040264003003000063
:020000040000fa
:100400006f0521000eff27000e018800000000008c
:10041000000020000000e000020032000001200087
:10042000200288000c000700a01f2100010020000e
:100430000f000700000020000000e0000200320072
:100440000000020000000000201202000000000076
:100450000040da000000fe00400020000000e00044
:1004600002003200002020009001880000000600f9
:10047000a1028800800078000000eb001a0037001d
:10048000e280400054a0b4009101ba00e280400034
:1004900054a0b4009102ba00e280400054a0b4001d
:1004a0000002eb00472bde00f507b200a601880032
:1004b000602ce10008003a000049eb000201e8006e
:1004c000020039003420ec0002f0a0008301e900b2
:1004d000f9ff3e00040037006128e100010032000e
:1004e0000082eb000b00070011c3ba001101ba0033
:1004f0000604e00003003a000200e000e0ff3a00da
:1005000000000600f607b200a6028800820078000c
:10051000f5ff370004d0a300e20f49001c003900aa
:10052000810278003549ba000201e8000200390072
:100530003420ec0002f0a0008301e9000f0032003b
:100540002549ba000201e800020039003420ec001d
:1005500002f0a0008301e900080032000400e0007e
:100560000600320015c9ba000201e8000200390095
:100570003420ec0002f0a0008301e9008180e80053
:1005800054a0b4000300e000e2ff3a0000000600bf
:100590009102ba00055978008301e900f7ff3200a3
:1005a000c82ade00055978008301e900f3ff320014
:1005b0000400e000f1ff320011d9ba00eeff37006d
:1005c0002c0e0400000000003e0e0400000000009d
:1005d000d00e040000000000880e0400000000009f
:1005e0005e0f0400000000006a0f0400000000001d
:1005f000dc0e040000000000f00e0400000000000b
:100600000e0f0400000000004a0f0400000000006c
:1006100072100400000000008410040000000000bc
:100620001611040000000000ce10040000000000bd
:10063000a411040000000000b0110400000000003c
:100640002211040000000000361104000000000028
:10065000541104000000000090110400000000008c
:100660000040da000000fe0003f0a200889fbe00f8
:100670008a9fbe008c1f78007e0107008501330031
:100680006450e1004f0032006420e100520032006b
:1006900003826c0007003b000905d0000306d00070
:1006a000820f54000c065d00020039000200320087
:1006b00089017800030678008582550004003d001a
:1006c0000003fd008103fd008502ea008b854200e6
:1006d000840f720002003b0060001000e0801800f0
:1006e0006011b8000005eb007a28e1000a0039002b
:1006f00006007800c75ddd00f707b200878075004f
:100700002d003700828171000a01780061056000c8
:100710008180d1000080d3008502e900f9ff3b0011
:10072000060440008784480002003b006004140077
:10073000e0841c000988a300070032008a81710050
:1007400082817100610164008904d1000884d300b2
:100750008b05e800170037000978a30013003a0062
:100760000b00e000130034008b05e900080444008e
:1007700089844c000a4474000978a3000d003a00f3
:100780000b00e000070034008b05e900080444007a
:1007900089844c0001003a000b0020000978a30076
:1007a000f7ff32000001eb00020037008281710088
:1007b0000a017800f40007000cf0a70001f0a00087
:1007c0003d0137006420e10002003a00838f6c0095
:1007d0003d0133000801be000200be0036013700b3
:1007e000889fbe008a9fbe008c1f780021010700f1
:1007f0001002200002003b00a08288002501370083
:100800008a0062006408e10002003a00a0828800c9
:100810002d0137006108e100fcff32000800be0036
:10082000030478007000070001f0a1000900070030
:1008300008f0a600040037000001be009104240067
:10084000b0fd200088ff070009f0a70001f0a2001a
:1008500019013700889fbe008a9fbe008c9fbe0092
:100860000004be00ee0007000800be008906780004
:100870006420e10008003900040032000160a0009b
:1008800012022000a28288005300370091fc23004e
:10089000b0fd20004e0037000006eb0009f0a1007b
:1008a00003f82300020020000800be0090000700ab
:1008b0000600340001f82300000020000801be00fb
:1008c000490007000004be002c0020000800be0004
:1008d00093e82300320a2300850007001200340049
:1008e0000801be00d1fd2300703d2b005fff070013
:1008f0000005be00b3f32300f27a26000800be0014
:10090000f400070003f823000200200056ff070050
:100910000801be0055ff07000a01be0032000700b3
:100920000004be000c06e8000800be0001f0a100b3
:1009300002002000039823006d0007000800be009d
:10094000160035000801be00e20007000005be00e9
:1009500032cd2c0043fb230044ff0700809fbe00e4
:100960001269280003d52b000a00be00d900070039
:10097000620f210013ef2b003cff07000a01be00ad
:10098000d40007004f01be00170007000801be0099
:10099000d00007000801be0034ff07000c00e00093
:1009a0000b0032000c10a70001f0a200b2fd2000e5
:1009b00093fc23006260e1000400320022a92000c1
:1009c00063f023000c10a70063f8230027ff070043
:1009d0000df0a70001f0a2004f06be004f05be00bb
:1009e0004f04be0000000600889fbe008a9fbe0024
:1009f0008c1f78009f000700a600330003866c0060
:100a00006450e1002e0032006420e1003300320027
:100a10006150e1002f0032006120e100310032001e
:100a200085855500eb07b000090020000804200070
:100a3000050037000804440089844c000a00310096
:100a40000603430087834b000001530081815b0054
:100a5000f8ff33000203be000800a00008044400b1
:100a600089844c00f6ff3900c639dd00830173002c
:100a700001003200130020008904d1000884d30053
:100a80000998a300050032000800a7000300a00099
:100a90008904d1000884d3008b05e8008904d100c3
:100aa0000884d3000001eb000281d2003600070069
:100ab00001f0a1000cf0a70001f0a0007e003700bb
:100ac0006420e100800032000801be000200be0088
:100ad000f7ff37006120e1007b0032006000b800c2
:100ae000f3ff37000000200001f82700f0ff370077
:100af00014002000ab0037000001be0048000700d2
:100b00000470a70003f0a1006509b10016003200cf
:100b10000d0035006828e10006003500f0ff2f00c9
:100b2000f1ff27000300e00013003b000100280054
:100b30000000050000004000818048008502e900b7
:100b4000fcff3a0008003700f88f420002003c002a
:100b50008000eb00000005008100d1000080d30080
:100b60008502e800fcff3a000300e00002003b00c1
:100b700060001000e0801800000006004f89de00d1
:100b800082017800a20037008100200061805500ba
:100b90000b003d000b00200061fe2f000100e10072
:100ba0001d00340082817100610164008904d1005c
:100bb0000884d3000000e800faff3a00710020002a
:100bc0006100640003007000020060000900320050
:100bd00061044400e0844c000988a500050032004f
:100be0008b05e8006808e10002003a008904d100a2
:100bf0000884d300f20f20000258e10005003d00f8
:100c0000c75ddd00f907b200898075000800780033
:100c1000000006000bf827008b007800000005009c
:100c2000c70ade00f107b200f50fb200080032007b
:100c3000e1cf4200020032000170a0002400050054
:100c4000810f700001003200040805004400050017
:100c5000810f700002003a00140005008502e900cf
:100c60000000400081c04800fcff3b000170a00074
:100c7000240005000004be00e9ff07000003be00d9
:100c80000405be000200be00e5ff0700844f7500aa
:100c9000000006000200be006450e10005003600be
:100ca0006420e100020036000968a30001003a0058
:100cb0000800be000160a0004f0678004f05be008e
:100cc0004f04be0000000600f0ff2f00f1ff2700d8
:100cd000f9ff3700889fbe008a9fbe008c1f7800f6
:100ce000e4ff0700ebff330003866c006450e10073
:100cf000240032006420e100270032006150e1004e
:100d0000220032006120e100210032008b85420088
:100d1000eb07b1000134b800003ab8000804420003
:100d200089844a00013ab8000030b8008880400049
:100d300009014a000400330000004000818048009f
:100d4000020149008b05e900c909dd00830170003b
:100d50000100320013002000c814de004814dd003a
:100d60004709de001200b200c808de0008847000e7
:100d700085ff070001f0a1000cf0a70001f0a00022
:100d8000cdff37006120e100cfff32000801be0037
:100d90000200be00f7ff37006150e100fcff3a009f
:100da000c9ff3700889fbe008a9fbe00841f78005d
:100db000b0ff07004f00780011003300f0ff2f0054
:100dc000838f6c0006003b00040565000a00a70045
:100dd0000800370009f0a6001000200008003700c6
:100de000820f5400838f5c00030039001000200044
:100df00001003e000000200009f0a7000000ea000a
:100e00004f05be004f04be000000e00000000600d9
:100e1000881f7800030478000300e00007003d000d
:100e200060001000e080180060011900e0811900e6
:100e300002003b0001f02d00030037000400070012
:100e400008f0a70001f0a0004f04780000000600a1
:100e5000889fbe008a9fbe0000827000040271005d
:100e600004827100260032000004be000200be00b1
:100e70006011b8006b092000950220000182cf00ac
:100e80000a0039000541b1000082cf000700390097
:100e90000541b1000982cf00040039000541b100cd
:100ea0000882cf00010039000541b100054252001f
:100eb000120032000a003b0082817100610164006f
:100ec0008100d1000080d3008984d3000884d3003e
:100ed0008b05e8000442e800f7ff3a0007003700fe
:100ee0000804440089844c000000480081804800c8
:100ef0008b05e9000442e900f9ff3a0022ff0700f0
:0c0f00004f05be004f04be0000000600bc
:020000040000fa
:080f0c00e12e00006542000027
:020000040000fa
:100f14000200fa00000f7800680007000040eb00b0
:100f24000080fa00000006000600fa006000b80025
:100f3400008fbe00f03f20002007980057003700c4
:100f44002302070040062000010020001e01be000d
:100f5400800f5100818f5900480034002e0090000a
:100f64004006b000cf80de00be0f5000ae8f5800a8
:100f740042003500718080001080800000804000b5
:100f84007080880081808000208080000080400084
:100f94008080880091808000308080000080400044
:100fa40090808800a1808000408080000080400004
:100fb400a0808800b18080005080800000804000c4
:100fc400b0808800c1808000608080000080400084
:100fd400c08088002e0090004006b000cf80de0064
:100fe400be0f5000ae8f580024003a00718080007c
:100ff4002e00900000017800110009008200d80042
:1010040070808800818080002e009000800178002c
:10101400110009008300d80080808800918080003e
:101024002e00900000017800110009008200d80011
:1010340090808800a18080002e00900080017800bc
:10104400110009008300d800a0808800b1808000ce
:101054002e00900000017800110009008200d800e1
:10106400b0808800c18080002e009000800178004c
:10107400110009008300d800c080880012002000fd
:10108400030020001e0f41005e974900000000008d
:10109400000880000000e000fdff32002e009000f8
:1010a4005006b000cf80de00be0f5000ae8f580057
:1010b400a3ff3c000080fa00000006000e00fa00c6
:1010c40099ff0700708080008000ea008000200003
:1010d40000017800110009008200d800000f780098
:1010e400808080008000ea008000200000017800f9
:1010f400110009008200d800100798009080800039
:101104008000ea008000200000017800110009003e
:101114008200d80020079800a08080008000ea00a8
:101124004000200000017800110009008200d8006e
:1011340030079800b08080008000ea004000200062
:1011440000017800110009008200d80040079800cf
:10115400c08080008000ea00400020000001780088
:10116400110009008200d8005007980001003700e0
:10117400000000002e0190009e0090001e007800e8
:10118400cd0107005e019000ce0090003e0090006b
:101194000802070064ff07000000eb0060079800e6
:1011a40070808000e80f40000700350070808000e8
:1011b400e80f500004003c006e0090000000e800be
:1011c40060079800060037007180800080002000ce
:1011d40000017800110009008200d8001e0f1000e1
:1011e40080808000e80f4000070035008080800088
:1011f400e80f500004003c006e0090000000e8007e
:10120400600798000800370081808000800020007b
:1012140000017800110009008200d8009e009000af
:101224000080500010079800908080000100240086
:1012340000805000e80f40000900350090808000d5
:101244000100240000805000e80f500004003c001e
:101254006e0090000000e800600798000a00370064
:1012640090808000010024008080500080002000d5
:1012740000017800110009008200d800ae0090003f
:101284000080400020079800a0808000e20f40000a
:1012940007003500a0808000e20f500004003c00ed
:1012a4006e0090000000e800600798000800370016
:1012b400a1808000200020000001780011000900b6
:1012c4008200d800be0090000080500030079800d3
:1012d400b0808000e20f400007003500b08080003d
:1012e400e20f500004003c006e0090000000e80093
:1012f4006007980008003700b180800020002000bb
:1013040000017800110009008200d800ce0090008e
:101314000080500040079800c0808000e20f400029
:1013240007003500c0808000e20f500004003c003c
:101334006e0090000000e800600798000800370085
:10134400c180800020002000000178001100090005
:101354008200d800de009000008050005007980002
:101364006e009000e60f500081ff3a00000000007c
:101374000080fa00000006002200fa00889fbe00e8
:1013840030808000cf80de00fbfd07000004be003b
:1013940010808000cf80de00f7fd07000801be004a
:1013a4000efd07000002be00303c8400413c840076
:1013b4000001be000400be0045fe0700008fbe0011
:1013c40030808000cf80de00ebfd07000004be000b
:1013d40020808000cf80de00e7fd07000801be000a
:1013e400fefc07000002be00303c8400413c840047
:1013f4000001be000400be0035fe0700200798006f
:101404003107980041808000a080800080805000d7
:101414003008200000017800110009008200d80083
:101424004007980051808000b08080008080500088
:101434003008200000017800110009008200d80063
:101444000000ea005007980061808000a0808000be
:1014540000805000cf80de00c7fd0700020020009e
:10146400932a24005ffd0700a2fd0700600798008f
:10147400a0702d0031c2230070079800010f98005e
:101484004e009000cf80de00bbfd07007e0190007f
:101494008e0990000efe07000004be00e08080006c
:1014a400cf80de00b4fd07000001be000800be00ce
:1014b4006dfc0700100f9800210f98005e0090004b
:1014c400cf80de00acfd07007e0190008e09900005
:1014d400fffd07000004be0000818000cf80de0015
:1014e400a5fd07000001be000800be005efc070069
:1014f400300f9800410f98006e009000cf80de00fe
:101504009dfd07007e0190008e099000f0fd07000c
:101514000004be0020818000cf80de0096fd07001d
:101524000001be000800be004ffc0700500f9800e9
:10153400610f9800703d2a0001f72300700f980096
:10154400011798001e099000ae0990007e089000d3
:101554008e109000defd07000004be007e0990009e
:101564008e1190000000200001f823003dfc0700cc
:101574002e019000be019000d5fd07000001be00c1
:101584000800be0038fc07005afd07000000780080
:10159400d08088003e099000ce0990007e0890001b
:1015a4008e109000cafd07000004be007e09900062
:1015b4008e1190000000200001f8230029fc070090
:1015c4001e01be00c2fd07000001be000800be00ef
:1015d40025fc070047fd070000007800f080880024
:1015e4005e089000ee08900042fd070000007800bd
:1015f40010818800d0808000e0808800f080800026
:101604000081880010818000208188004f04be0082
:101614000080fa00000006000400fa00889fbe0063
:10162400d0cc2c00c1dc2300008fbe0010808000d1
:10163400cf80de0050fd07003081880041818800a2
:1016440020808000cf80de004bfd070050818800a1
:101654006181880030808000cf80de0046fd070075
:10166400708188008181880090818000a181800040
:101674001e01be0096fd07000004be001e01be0050
:101684000000200001f82300f6fb07000002be0062
:1016940030818000418180000001be000400be0052
:1016a4008bfd07000001be000800be00eefb070032
:1016b40090818800a1818800348180004581800068
:1016c40090818000a18180000001be000400be0062
:1016d400e4fb07003081880041818800b0818000ec
:1016e400c18180001e01be0079fd07000004be0018
:1016f4001e01be000000200001f82300d9fb0700f2
:101704000002be0050818000618180000001be00a3
:101714000400be006efd07000001be000800be000c
:10172400d1fb0700b0818800c1818800548180000a
:1017340065818000b0818000c18180000001be000d
:101744000400be00c7fb0700508188006181880047
:10175400d0818000e18180001e01be005cfd070095
:101764000004be001e01be000000200001f823009a
:10177400bcfb07000002be007081800081818000f4
:101784000001be000400be0051fd07000001be00c0
:101794000800be00b4fb0700d0818800e181880006
:1017a4007481800085818000d0818000e181800087
:1017b4000001be000400be00aafb0700708188007f
:1017c400818188004f04be000080fa0000000600fa
:1017d4000000fa0023c0b300e2032100b1c3b30048
:1017e40090c6b300f20007000004e00002003200db
:1017f400f08180001080880023c0b300e203210040
:10180400d1c3b30090c6b300e90007000004e000b0
:1018140002003200f08180002080880023c0b300e1
:10182400e2032100f1c3b30090c6b300e000070057
:101834000004e00002003200f08180003080880063
:1018440023c0b300e2032100b1c3b30090c6b300c8
:10185400d70007000004e00002003200f08180009d
:101864001080880023c0b300e2032100d1c3b30079
:1018740090c6b300ce0007000004e000020032006e
:10188400f08180002080880023c0b300e20321009f
:10189400f1c3b30090c6b300c50007000004e00024
:1018a40002003200f08180003080880000000000d7
:1018b4000080fa00000006000c00fa0030079800cf
:1018c40041079800520798000040eb00004f780051
:1018d4000040eb00104798000040eb0020479800c0
:1018e4000000eb00200798002d0037006600470039
:1018f40013c0b3000001780061c0b30090c6b30008
:10190400820007000004e000060032001e40780058
:101914000004a2000004e0000200320010c0b30082
:10192400004f78006600470013c0b3000001780040
:1019340061c0b30090c6b300740007000004e00067
:10194400060032001e4090000004a2000004e000e3
:101954000200320010c0b300104798006600470030
:1019640013c0b3000001780061c0b30090c6b30097
:10197400660007000004e000060032002e409000dc
:101984000004a2000004e0000200320010c0b30012
:10199400204798002e0090000000e80020079800df
:1019a4002e009000e20f5000d0ff3a000080fa00b1
:1019b400000006000c00fa00300798004107980068
:1019c400520798000040eb00004f78000040eb0005
:1019d400104798000040eb00204798000000eb00ff
:1019e400200798002d0037006600470013c0b3009d
:1019f4000001780061c0b30090c6b3004300070043
:101a04000004e000060032001e4078000004a2003a
:101a14000004e0000200320010c0b300004f780060
:101a24006800470013c0b3000001780061c0b30030
:101a340090c6b300350007000004e0000600320041
:101a44001e4090000004a2000004e00002003200e6
:101a540010c0b300104798006a00470013c0b300d9
:101a64000001780061c0b30090c6b30027000700ee
:101a74000004e000060032002e4090000004a200a2
:101a84000004e0000200320010c0b30020479800b8
:101a94002e0090000000e800200798002e0090001f
:101aa400e20f5000d0ff3a000080fa000000060068
:101ab4000200fa00000f78001e0078000000e00029
:101ac400020034001e007800010037001e00ea0006
:101ad4000080fa00000006000000fa00f024200054
:101ae40020108800404280000040a1000050a00067
:101af4000060a100404288000228a9002228a80012
:101b040007e2a8000080fa00000006000600fa00c0
:101b1400004f780011479800120798004347980037
:101b24000004210070409000e14f50000400320096
:101b34000004210070409000e24f500019003a0068
:101b4400000421001e487800000421009e409000fb
:101b540011409800000421009e009000110098009c
:101b640000042100ce409000414098000004210070
:101b74008040eb00514098000004210011c0b300e4
:101b840061409800000421008040eb0071409800ff
:101b9400c0e22000808288000602a80010c0b300c2
:101ba400010037000040eb000080fa00000006004e
:101bb4000600fa00004f78001147980012079800b9
:101bc400434798000004210070409000e14f50000a
:101bd400040032000004210070409000e24f5000e5
:101be40019003a00000421001e4878000004210076
:101bf4009e40900011409800000421009e00900037
:101c04001100980000042100ce409000414098004b
:101c1400000421008040eb005140980000042100a2
:101c240021c0b30061409800000421008040eb0013
:101c340071409800c0e22000808288000602a8005b
:101c440010c0b300010037000040eb000080fa0030
:101c5400000006000000fa00000421001040780093
:101c64000080fb0010108800e0e3200080828800e0
:101c74000080fa00000006000000fa004110800015
:101c840000002800008060000000e0001a003a0014
:101c94000004210060409000e24f500007003a0029
:101ca40000042100104090000080fb001010880008
:101cb40000ed20008082880012003700000421001b
:101cc40060409000e14f500007003a0000042100fa
:101cd400104090000080fb001010880080e8200075
:101ce40080828800070037006f000700e0f52000bd
:101cf40080828800030037006b000700e0f52000b5
:101d0400808288000080fa00000006000000fa00cb
:101d14004110800000002800008060000000e00006
:101d240019003a0000042100d04090000004210072
:101d34004040900080cf50000f003100000421008b
:101d44009000900000042100504090000080fb00af
:101d540000804000104078000080fb0010108800d4
:101d640000042100504090008040e800000421005d
:101d740051409800070037004b000700a0f62000f0
:101d8400808288000300370047000700e0f5200048
:101d9400808288000080fa00000006000000fa003b
:101da4000622a800c0ed2000808288000080fa008e
:101db400000006000000fa00000421001040780032
:101dc4000080fb000000e8001010880000ef2000f5
:101dd400808288000080fa00000006000000fa00fb
:101de4004110800000002800008060000000e00036
:101df40004003a000662a800e0f020008082880017
:101e04000300370028000700e0f5200080828800e6
:101e14000080fa00000006000000fa00000421001f
:101e24009000900000042100504090000080fb00ce
:101e34000080400001108000814078000148780053
:101e440000042100504090008040e800000421007c
:101e54005140980000042100d0409000000421006b
:101e64004040900080cf5000040031000682a8005a
:101e7400a0f4200080828800030037000a000700d5
:101e8400a0f62000808288000080fa00000006008e
:101e94000000fa000662a800e0f0200080828800ba
:101ea4000080fa00000006000000fa000642a800c4
:101eb4000080fa00000006000000fa00000421007f
:101ec40021c0b300714098000080fa0000000600b1
:101ed4000000fa000004210011c0b3007140980012
:101ee4000080fa00000006000000fa00000421004f
:101ef400704090000080fa00000006003600f800f0
:101f0400809fbe00829fbe00849fbe00869fbe004d
:101f14000000fa00411080000040200000806000b2
:101f24000000e00005003200dfff0700e0f52000bc
:101f3400808288000942a900020037008082800064
:101f4400000001000228a9000080fa004f03be002f
:101f54004f02be004f01be004f00be003600f90024
:101f6400004006000000fa00f0242000a0108800c1
:101f7400c04280000080a1000090a00000a0a10049
:101f8400c04288000648a9002648a80017e2a80015
:101f94000080fa00000006000600fa00004f7800f6
:101fa40011479800120798004347980080042100c5
:101fb40070409000e14f5000040032008004210082
:101fc40070409000e24f500019003a008004210054
:101fd4001e487800800421009e409000014878004b
:101fe400800421009e0090001100980080042100cc
:101ff400ce40900041409800800421008040eb00d6
:10200400514098008004210011c0b3006140980041
:10201400800421008040eb007140980020072100db
:10202400908288001602a80010c0b3000100370097
:102034000040eb000080fa00000006000600fa00f1
:10204400004f780011479800120798004347980002
:102054008004210070409000e14f500004003200e1
:102064008004210070409000e24f500019003a00b3
:10207400800421001e487800800421009e409000c6
:1020840011409800800421009e00900011009800e7
:1020940080042100ce40900041409800800421003b
:1020a4008040eb00514098008004210021c0b3001f
:1020b40061409800800421008040eb00714098004a
:1020c40020072100908288001602a80010c0b300e7
:1020d400010037000040eb000080fa000000060019
:1020e4000000fa0080042100104078000080fb000a
:1020f4009010880040082100908288000080fa0037
:10210400000006000000fa00c11080000000280052
:10211400008060000000e0001a003a008004210002
:1021240060409000e24f500007003a008004210014
:10213400104090000080fb00901088006011210086
:1021440090828800120037008004210060409000d3
:10215400e14f500007003a00800421001040900035
:102164000080fb0090108800e00c21009082880021
:10217400070037006f000700401a21009082880092
:10218400030037006b000700401a2100908288008a
:102194000080fa00000006000000fa00c110800070
:1021a40000002800008060000000e00019003a00f0
:1021b40080042100d0409000800421004040900021
:1021c40080cf50000f003100800421009000900067
:1021d40080042100504090000080fb0000804000fb
:1021e400104078000080fb009010880080042100db
:1021f400504090008040e800800421005140980045
:10220400070037004b000700001b21009082880064
:102214000300370047000700401a2100908288001d
:102224000080fa00000006000000fa001622a80050
:1022340020122100908288000080fa00000006002d
:102244000000fa0080042100104078000080fb00a8
:102254000000e8009010880060132100908288003c
:102264000080fa00000006000000fa00c11080009f
:1022740000002800008060000000e00004003a0034
:102284001662a800401521009082880003003700e0
:1022940028000700401a2100908288000080fa007c
:1022a400000006000000fa00800421009000900065
:1022b40080042100504090000080fb00008040001a
:1022c400811080008140780001487800800421005a
:1022d400504090008040e800800421005140980064
:1022e40080042100d04090008004210040409000f0
:1022f40080cf5000040031001682a800001921008c
:1023040090828800030037000a000700001b2100a8
:10231400908288000080fa00000006000000fa00a5
:102324001662a80040152100908288000080fa00ff
:10233400000006000000fa001642a8000080fa001f
:10234400000006000000fa008004210021c0b30050
:10235400714098000080fa00000006000000fa00b6
:102364008004210011c0b300714098000080fa007d
:10237400000006000000fa00800421007040900074
:102384000080fa00000006003600f800809fbe00be
:10239400829fbe00849fbe00869fbe000000fa009c
:1023a400c110800000402000008060000000e000b8
:1023b40005003200dfff0700401a210090828800e8
:1023c4001942a90002003700908280000000010039
:1023d4000648a9000080fa004f03be004f02be0069
:1023e4004f01be004f00be003600f9000040060059
:020000040000fa
:1023f40040100000100000008200000000000000f7
:1024040000000000000100000000000000000000c7
:1024140001000000501000000400000080000000d3
:102424000010000040000000800000005410000074
:0c24340002000000800000002412800064
:020000040000fa
:082440000000fa00ffff370065
:020000040000fa
:042448000000000090
:00000001FF
