:100000005208040000000000000000000000000092
:1000100000000000000000000000000000000000E0
:1000200000000000000000000000000000000000D0
:1000300000000000000000000000000000000000C0
:1000400000000000000000000000000000000000B0
:1010A4004F812000F07F240020A0B7001000200012
:1010B40034A0B700400020004420B7000C00FA0020
:1010C4008A1F78008B1F78008C1F7800D002A8003C
:1010D400D022A800D042A800C022A800C002A800C4
:1010E400C882A900C082A900C902A900C122A9001E
:1010F400D062A900D082A900D0A2A900C922A90067
:10110400C982A900C142A900C0E2A900C122A90064
:10111400CC82A800C482A800CD02A800C522A800E1
:10112400D462A800D482A800D4A2A800CD22A8002A
:10113400CD82A800C542A800C4E2A800C522A80028
:101144003FFF0700BCC0B3001BC0B3007AC1B300AB
:10115400CAFF07003CC0B3001620EF006AC1B30009
:10116400C6FF0700DCC0B3001BC0B3003AC1B30024
:10117400C2FF07005CC0B3001620EF004AC1B300F1
:10118400BEFF07009DFC0700AEFF07000A582200BF
:101194000B00200033FF07001A002000E4FE0700C4
:1011A40090408800AB8020000005780005FF070010
:1011B400E000470000C2B3008058780010C4B300B8
:1011C4008058780040C4B3008058780030C4B3001D
:1011D4008058780000C2B3008058780010C3B30070
:1011E4008058780000C2B30080587800D0C3B300A0
:1011F4008058780000C2B300805878000020EF00C7
:10120400805878006000470000057800D9FE070088
:10121400AA802000D7FE0700E000470000C2B30008
:101224008058780000C2B3008058780000C2B30030
:10123400805878000020EF00805878006000470054
:1012440000057800CBFE070048002000D7DC220010
:101254000E20ED00FEFF3A001020ED00FCFF3A00E6
:10126400000000002A002000B1FE07009040880022
:10127400AB80200000057800D2FE0700E0004700A4
:1012840000C2B3008058780010C4B30080587800BE
:1012940040C4B3008058780030C4B300805878004C
:1012A40000C2B3008058780020C3B300805878008F
:1012B40000C2B30080587800D0C3B30080587800CF
:1012C40000C2B300805878000020EF0080587800F6
:1012D4006000470000057800A6FE0700AA802000F1
:1012E400A4FE0700E000470000C2B3008058780065
:1012F40000C2B3008058780000C2B3008058780060
:101304000020EF0080587800600047000005780056
:1013140098FE070048002000D7DC22000E20ED00D4
:10132400FEFF3A001020ED00FCFF3A000000000030
:101334003A0020007EFE070090408800AB80200029
:10134400000578009FFE0700E000470000C2B300DC
:101354008058780010C4B3008058780040C4B300AB
:101364008058780030C4B3008058780000C2B300BD
:101374008058780030C3B3008058780000C2B300AE
:1013840080587800D0C3B3008058780000C2B300FE
:10139400805878000020EF008058780060004700F3
:1013A4000005780073FE0700AA80200071FE070084
:1013B400E000470000C2B3008058780000C2B300C8
:1013C4008058780000C2B300805878000020EF00F5
:1013D40080587800600047000005780065FE07002B
:1013E40048002000D7DC22000E20ED00FEFF3A006A
:1013F4001020ED00FCFF3A00000000004A0020002D
:101404004BFE070090408800AB8020000005780068
:101414006CFE0700E000470000C2B300805878006B
:1014240010C4B3008058780040C4B30080587800DA
:1014340030C4B3008058780000C2B30080587800EC
:1014440040C3B3008058780000C2B30080587800CD
:10145400D0C3B3008058780000C2B300805878002D
:101464000020EF00805878006000470000057800F5
:1014740040FE0700AA8020003EFE0700E00047006F
:1014840000C2B3008058780000C2B30080587800CE
:1014940000C2B300805878000020EF008058780024
:1014A400600047000005780032FE07004800200075
:1014B400D7DC22000E20ED00FEFF3A001020ED00E4
:1014C400FCFF3A00000000005A00200018FE07004C
:1014D40090408800AB8020000005780039FE0700AA
:1014E400E000470000C2B3008058780010C4B30085
:1014F4008058780040C4B3008058780030C4B300EA
:101504008058780000C2B3008058780050C3B300FC
:101514008058780000C2B30080587800D0C3B3006C
:101524008058780000C2B300805878000020EF0093
:101534008058780060004700000578000DFE070021
:10154400AA8020000BFE0700E000470000C2B300A1
:101554008058780000C2B3008058780000C2B300FD
:10156400805878000020EF00805878006000470021
:1015740000057800FFFD0700E000470000C2B3004B
:101584008058780000C2B3008058780000C2B300CD
:10159400805878000020EF008058780060004700F1
:1015A40000057800F3FD070048002000D7DC220086
:1015B4000E20ED00FEFF3A001020ED00FCFF3A0083
:1015C400000000006A002000D9FD07009040880058
:1015D400AB80200000057800FAFD0700E00047001A
:1015E40000C2B3008058780010C4B300805878005B
:1015F40040C4B3008058780030C4B30080587800E9
:1016040000C2B3008058780060C3B30080587800EB
:1016140000C2B30080587800D0C3B300805878006B
:1016240000C2B300805878000020EF008058780092
:101634006000470000057800CEFD0700AA80200066
:10164400CCFD0700E000470000C2B30080587800DA
:1016540000C2B3008058780000C2B30080587800FC
:101664000020EF00805878006000470000057800F3
:10167400C0FD070048002000D7DC22000E20ED004A
:10168400FEFF3A001020ED00FCFF3A0000000000CD
:101694007A002000A6FD070090408800AB8020005F
:1016A40000057800C7FD0700E000470000C2B30052
:1016B4008058780010C4B3008058780040C4B30048
:1016C4008058780030C4B3008058780000C2B3005A
:1016D4008058780070C3B3008058780000C2B3000B
:1016E40080587800D0C3B3008058780000C2B3009B
:1016F400805878000020EF00805878006000470090
:10170400000578009BFD0700AA80200099FD0700D2
:10171400E000470000C2B3008058780000C2B30064
:101724008058780000C2B300805878000020EF0091
:101734008058780060004700000578008DFD0700A0
:1017440048002000D7DC22000E20ED00FEFF3A0006
:101754001020ED00FCFF3A00000000008A00200089
:1017640073FD070090408800AB80200000057800DE
:1017740094FD0700E000470000C2B30080587800E1
:1017840010C4B3008058780040C4B3008058780077
:1017940030C4B3008058780000C2B3008058780089
:1017A40080C3B3008058780000C2B300805878002A
:1017B400D0C3B3008058780000C2B30080587800CA
:1017C4000020EF0080587800600047000005780092
:1017D40068FD0700AA80200066FD0700E0004700BE
:1017E40000C2B3008058780000C2B300805878006B
:1017F40000C2B300805878000020EF0080587800C1
:1018040060004700000578005AFD070048002000EA
:10181400D7DC22000E20ED00FEFF3A001020ED0080
:10182400FCFF3A00000000009A00200040FD070081
:1018340090408800AB8020000005780061FD07001F
:10184400E000470000C2B3008058780010C4B30021
:101854008058780040C4B3008058780030C4B30086
:101864008058780000C2B3008058780090C3B30059
:101874008058780000C2B30080587800D0C3B30009
:101884008058780000C2B300805878000020EF0030
:1018940080587800600047000005780035FD070097
:1018A400AA80200033FD0700E000470000C2B30017
:1018B4008058780000C2B3008058780000C2B3009A
:1018C400805878000020EF008058780060004700BE
:1018D4000005780027FD070048002000D7DC22001F
:1018E4000E20ED00FEFF3A001020ED00FCFF3A0050
:1018F40000000000AA0020000DFD070090408800B1
:10190400AB802000000578002EFD0700E0004700B2
:1019140000C2B3008058780010C4B3008058780027
:1019240040C4B3008058780030C4B30080587800B5
:1019340000C2B3008058780010C3B3008058780008
:1019440000C3B3008058780000C2B3008058780008
:10195400D0C3B3008058780000C2B3008058780028
:101964000020EF00805878006000470000057800F0
:1019740000FD0700AA802000FEFC0700E0004700ED
:1019840000C2B3008058780000C2B30080587800C9
:1019940000C2B300805878000020EF00805878001F
:1019A4006000470000057800F2FC070048002000B2
:1019B400D7DC22000E20ED00FEFF3A001020ED00DF
:1019C400FCFF3A0000000000BA002000D8FC070029
:1019D40090408800AB80200000057800F9FC0700E7
:1019E400E000470000C2B3008058780010C4B30080
:1019F4008058780040C4B3008058780030C4B300E5
:101A04008058780000C2B3008058780010C3B30037
:101A14008058780010C3B3008058780000C2B30027
:101A240080587800D0C3B3008058780000C2B30057
:101A3400805878000020EF0080587800600047004C
:101A440000057800CBFC0700AA802000C9FC070031
:101A5400E000470000C2B3008058780000C2B30021
:101A64008058780000C2B300805878000020EF004E
:101A7400805878006000470000057800BDFC07002E
:101A840048002000D7DC22000E20ED00FEFF3A00C3
:101A94001020ED00FCFF3A0000000000CA00200006
:101AA400A3FC070090408800AB802000000578006C
:101AB400C4FC0700E000470000C2B300805878006F
:101AC40010C4B3008058780040C4B3008058780034
:101AD40030C4B3008058780000C2B3008058780046
:101AE40010C3B3008058780020C3B3008058780036
:101AF40000C2B30080587800D0C3B3008058780087
:101B040000C2B300805878000020EF0080587800AD
:101B1400600047000005780096FC0700AA802000BA
:101B240094FC0700E000470000C2B300805878002E
:101B340000C2B3008058780000C2B3008058780017
:101B44000020EF008058780060004700000578000E
:101B540088FC070048002000D7DC22000E20ED009E
:101B6400FEFF3A001020ED00FCFF3A0000000000E8
:101B740089FD37004F067800CF0578004F057800BF
:081B84000080FA00FFFF3700AA
:100E44000000FA00217420006204200073052000D1
:100E5400824878008348780042C7A9000080FA00DD
:040E64000000060084
:101080000000FA008D1F78001A20EF005BFD0700BA
:101090008000780001007800CF0678000080FA0018
:0410A0000000060046
:1005FC000000FA007954E100020036000220EF00FE
:10060C00C6013700605CE10088003A006168E100D7
:10061C0001003A00080207006054E10003003A00B0
:10062C00006C20000C4878007D0037006154E1001C
:10063C0003003A00106C20000C487800780037005A
:10064C006254E10003003A00206C20000C48780052
:10065C00730037006354E10003003A00306C200053
:10066C000C4878006E0037006454E10003003A0037
:10067C00406C20000C487800690037006554E1009C
:10068C0003003A00506C20000C48780064003700DE
:10069C006654E10003003A00606C20000C487800BE
:1006AC005F0037006754E10003003A00706C2000D3
:1006BC000C4878005A0037006854E10003003A00F7
:1006CC00806C20000C487800550037006954E1001C
:1006DC0003003A00906C20000C4878005000370062
:1006EC006A54E10003003A00A06C20000C4878002A
:1006FC004B0037006B54E10003003A00B06C200053
:10070C000C487800460037006C54E10003003A00B6
:10071C00C06C20000C487800410037006D54E1009B
:10072C0003003A00D06C20000C4878003C003700E5
:10073C006E54E10003003A00E06C20000C48780095
:10074C00370037006F54E10003003A00F06C2000D2
:10075C000C487800320037007054E10003003A0076
:10076C00006D20000C4878002D0037007154E1001A
:10077C0003003A00106D20000C4878002800370068
:10078C007254E10003003A00206D20000C48780000
:10079C00230037007354E10003003A00306D200051
:1007AC000C4878001E0037007454E10003003A0036
:1007BC00406D20000C487800190037007554E1009A
:1007CC0003003A00506D20000C48780014003700EC
:1007DC007654E10003003A00606D20000C4878006C
:1007EC000F0037007754E10003003A00706D2000D1
:1007FC000C4878000A0037007854E10003003A00F6
:10080C00806D20000C487800050037007954E10019
:10081C0003003A00906D20000C487800000037006F
:10082C006168E10001003A00F2FE0700615CE10042
:10083C0083003A006168E10001003A007E01070084
:10084C006064E10003003A00106820000A48780058
:10085C00780037006164E10003003A002068200052
:10086C000A487800730037006264E10003003A0024
:10087C00606820000A4878006E0037006364E1006D
:10088C0003003A00706820000A48780069003700BD
:10089C006464E10003003A00806820000A48780094
:1008AC00640037006564E10003003A0090682000A2
:1008BC000A4878005F0037006664E10003003A00E4
:1008CC00E06820000A4878005A0037006764E100AD
:1008DC0003003A00F06820000A4878005500370001
:1008EC006864E10003003A00406920000A4878007F
:1008FC00500037006964E10003003A0050692000A1
:10090C000A4878004B0037006A64E10003003A00A3
:10091C00606920000A487800460037006B64E100EB
:10092C0003003A00406A20000A4878004100370072
:10093C006C64E10003003A00506A20000A48780019
:10094C003C0037006D64E10003003A00606A20004F
:10095C000A487800370037006E64E10003003A0063
:10096C00706A20000A487800320037006F64E1009A
:10097C0003003A00806A20000A4878002D003700F6
:10098C007064E10003003A00906A20000A48780085
:10099C00280037007164E10003003A00A06A2000CF
:1009AC000A487800230037007264E10003003A0023
:1009BC00C06A20000A4878001E0037007364E1000A
:1009CC0003003A00D06A20000A487800190037006A
:1009DC007464E10003003A00E06A20000A487800E1
:1009EC00140037007564E10003003A00006B20002E
:1009FC000A4878000F0037007664E10003003A00E3
:100A0C00106B20000A4878000A0037007764E10078
:100A1C0003003A00206B20000A48780005003700DC
:100A2C007864E10003003A00406B20000A4878002B
:100A3C00000037006168E10001003A006DFE07001C
:100A4C006054E10005003A001600AE00C802A9008F
:100A5C001600AF00C802A800AF0037006154E100D7
:100A6C0005003A001600AE00C822A9001600AF001F
:100A7C00C822A800A80037006254E10005003A0023
:100A8C001600AE00C842A9001600AF00C842A8006C
:100A9C00A10037006354E10005003A001600AE00D7
:100AAC00C862A9001600AF00C862A8009A003700FF
:100ABC006454E10005003A001600AE00C882A9009B
:100ACC001600AF00C882A800930037006554E100FF
:100ADC0005003A001600AE00C8A2A9001600AF002F
:100AEC00C8A2A8008C0037006654E10005003A004B
:100AFC001600AE00C8C2A9001600AF00C8C2A800FC
:100B0C00850037006754E10005003A001600AE007E
:100B1C00C8E2A9001600AF00C8E2A8007E003700AA
:100B2C006854E10005003A001600AE00C902A900A5
:100B3C001600AF00C902A800770037006954E10025
:100B4C0005003A001600AE00C922A9001600AF003D
:100B5C00C922A800700037006A54E10005003A0071
:100B6C001600AE00C942A9001600AF00C942A80089
:100B7C00690037006B54E10005003A001600AE0026
:100B8C00C962A9001600AF00C962A8006200370054
:100B9C006C54E10005003A001600AE00C982A900B1
:100BAC001600AF00C982A8005B0037006D54E1004D
:100BBC0005003A001600AE00C9A2A9001600AF004D
:100BCC00C9A2A800540037006E54E10005003A0099
:100BDC001600AE00C9C2A9001600AF00C9C2A80019
:100BEC004D0037006F54E10005003A001600AE00CE
:100BFC00C9E2A9001600AF00C9E2A8004600370000
:100C0C007054E10005003A001600AE00D002A900B5
:100C1C001600AF00D002A8003F0037007154E1006D
:100C2C0005003A001600AE00D022A9001600AF0055
:100C3C00D022A800380037007254E10005003A00B9
:100C4C001600AE00D042A9001600AF00D042A8009A
:100C5C00310037007354E10005003A001600AE0075
:100C6C00D062A9001600AF00D062A8002A0037009D
:100C7C007454E10005003A001600AE00D082A900C1
:100C8C001600AF00D082A800230037007554E10095
:100C9C0005003A001600AE00D0A2A9001600AF0065
:100CAC00D0A2A8001C0037007654E10005003A00E1
:100CBC001600AE00D0C2A9001600AF00D0C2A8002A
:100CCC00150037007754E10005003A001600AE001D
:100CDC00D0E2A9001600AF00D0E2A8000E00370049
:100CEC007854E10005003A001600AE00D102A900CC
:100CFC001600AF00D102A800070037007954E100BC
:100D0C0005003A001600AE00D122A9001600AF0073
:100D1C00D122A80000003700F10F2000010078005C
:080D2C000080FA00000006003F
:100400000000FA002174200062042000730520001F
:10041000824878008348780042C7A8000080FA002C
:0404200000000600D2
:101048000000FA00A069200040408800000E20003F
:1010580020A3B7002143A9002223EF00F0F32100C9
:1010680024A3B7003223EF003023EF0021E3A800C8
:081078000080FA0000000600F0
:100E68000800FA006023200000408800F0FF2F00EF
:100E780020408800F0FF2F0030408800F0FF2F004E
:100E8800104088002022EF000000280022A2B700AE
:100E98002062A900D3FD0700823E20000300200045
:100EA80067FD07000003BE0062FD07008000EB003D
:100EB8008100D1000080D30064024000E082480035
:100EC8000A01BE000402E900030035000201D00057
:100ED8008381D200FBFF37000207980013079800B0
:100EE800869FBE008A9FBE000600BE000082EB00FF
:100EF80090FD07004F05BE004F03BE002007980075
:100F0800310798008A9FBE000600BE000E019000BF
:100F18009E0190000082EB005DFD07004F05BE00BA
:100F28008001780001027800600047005081D100FC
:100F3800C080D300640047003008E1002090E10041
:100F480003003D00E180410060014A0002003700D3
:100F580083007800040178006008E1006090E100F7
:100F68002F003A009FFD0700823E2000030020006A
:100F780033FD07000003BE002EFD07008000EB00D4
:100F88008100D1000080D30062024000E082480066
:100F98000A01BE000402E900030035000201D00086
:100FA8008381D200FBFF37000207980013079800DF
:100FB800869FBE000600BE000082EB005DFD0700B4
:100FC8004F03BE0020079800310798000600BE00B6
:100FD8000E0190009E0190000082EB002CFD07009E
:100FE8008001780001027800600047005081D1003C
:100FF800C080D300640047003008E1002090E10081
:1010080003003D00E180410060014A000200370012
:1010180083007800040178002062A80000003700EF
:1010280080222000618850002222A90021E2A80025
:101038002342A800F9FC07000080FA00000006001F
:00104800A8
:1005EC00821A2600030020000200BE000000060054
:0005FC00FF
:0C043C00210020000100780000000600F4
:10042400272C2A000E20ED00FEFF3A0000000000F9
:080434000000000000000600BA
:100448000000FA00020AB800500088000200B80054
:1004580081004200032AB800810042000080FA00AF
:04046800000006008A
:10053C000000FA0002000700F202040000000000B4
:10054C000800E20002003A0010000700000006005C
:10055C00811F78000200E20002003D0060001000E4
:10056C00E08018000600E20002003D00600111006E
:10057C00E0811900050007004F00E00002003B007D
:10058C0060001000E0801800000006000200070068
:10059C000480BE00000006006022B80006022000A5
:1005AC000000D0008180D2000482D2008582D2006B
:1005BC000000A8000202520083825A0003003B0094
:1005CC000202420083824A000000A1000603E900F7
:1005DC00F3FF3A00000006000080FA00000006005D
:0005EC000F
:100498000000FA00020007009A02040000000000B1
:1004A8000800E20002003A00100007000000060001
:1004B800839F68000200E20002003D006000100017
:1004C800E08018000600E20002003D006001110013
:1004D800E0811900050007004F00E00002003B0022
:1004E80060001000E0801800000006006022B800DC
:1004F800060220000000D0008180D2000482D200D1
:100508008582D2000000A8000202520083825A00AD
:1005180003003B000202420083824A000000A1005F
:100528000603E900F3FF3A00000006000080FA0025
:0405380000000600B9
:100D34000000FA00110020000A08DD008080EA00AB
:100D4400C0322000108860004A1988002023A800BF
:100D54002003AF000200370000000000FCFF370052
:100D64002003A90001188000010078000080FA0027
:040D74000000060075
:100DC8000000FA008B00780000C2B3008058780059
:100DD80000C2B3008058780000C2B3008058780081
:100DE80000C2B3008058780000C3B3008058780070
:100DF8000020EF0080587800E48145006050E10051
:100E08000C003200A2002000110009000285D80061
:100E1800000320000080400080497800A2002000E4
:100E2800110009000285D800000578000620ED00B1
:0C0E3800F2FF37000080FA000000060006
:100D78000000FA000220EF001A40780000417800D5
:100D880002407800014178006004E1000A00320066
:100D98008A1F78000085FB00B2FD07004F05780028
:100DA800E14041000180FB00000045001040780050
:100DB80001417800F4FF37000080FA0000000600C7
:000DC8002B
:10046C000000FA00111180000010200000806000D4
:10047C006000E10002003A0000000000F9FF3700C4
:0C048C002A1188000080FA000000060021
:0200000401F009
:20000000CF000000CF0000000700000082000000820000005F000000F7000000C20000001F
:00000001FF
