:020000040000fa
:080000000002040000000000f2
:020000040000fa
:10000800e4040000e4040000e4040000e404000048
:10001800e4040000e4040000e4040000e404000038
:10002800e4040000ac040000e404000096040000ae
:1000380018040000c8040000e4040000e404000000
:10004800e4040000e4040000e4040000e404000008
:10005800e4040000e404000010040000e4040000cc
:10006800e4040000e4040000e4040000e4040000e8
:10007800e4040000e4040000e4040000e4040000d8
:1000880094020000e4040000e4040000e40400001a
:10009800e4040000e4040000e4040000e4040000b8
:1000a800e4040000e4040000e4040000e4040000a8
:1000b800e4040000e4040000e4040000e404000098
:1000c800e4040000e4040000e4040000e404000088
:1000d800e4040000e4040000e4040000e404000078
:1000e800e4040000e4040000e4040000e404000068
:1000f800e4040000e4040000e4040000e404000058
:10010800e4040000e4040000e4040000e404000047
:10011800e4040000e4040000e4040000e404000037
:10012800e4040000e40400008e040000e40400007d
:10013800e4040000e4040000e4040000e404000017
:10014800e4040000e4040000e4040000e404000007
:10015800e4040000e4040000e4040000e4040000f7
:10016800e4040000e4040000e4040000e4040000e7
:10017800e4040000e4040000e4040000e4040000d7
:10018800e4040000e4040000e4040000e4040000c7
:10019800e4040000e4040000e4040000e4040000b7
:1001a800e4040000e4040000e4040000e4040000a7
:1001b800e4040000e4040000e4040000e404000097
:1001c800e4040000e4040000e4040000e404000087
:1001d800e4040000e4040000e4040000e404000077
:1001e800e4040000e4040000e4040000e404000067
:0801f800e4040000e40400002f
:020000040000fa
:10020800e4040000e4040000e4040000e404000046
:10021800e4040000e4040000e4040000e404000036
:10022800e4040000ac040000e404000096040000ac
:1002380018040000c8040000e4040000e4040000fe
:10024800e4040000e4040000e4040000e404000006
:10025800e4040000e404000010040000e4040000ca
:10026800e4040000e4040000e4040000e4040000e6
:10027800e4040000e4040000e4040000e4040000d6
:1002880094020000e4040000e4040000e404000018
:10029800e4040000e4040000e4040000e4040000b6
:1002a800e4040000e4040000e4040000e4040000a6
:1002b800e4040000e4040000e4040000e404000096
:1002c800e4040000e4040000e4040000e404000086
:1002d800e4040000e4040000e4040000e404000076
:1002e800e4040000e4040000e4040000e404000066
:1002f800e4040000e4040000e4040000e404000056
:10030800e4040000e4040000e4040000e404000045
:10031800e4040000e4040000e4040000e404000035
:10032800e4040000e40400008e040000e40400007b
:10033800e4040000e4040000e4040000e404000015
:10034800e4040000e4040000e4040000e404000005
:10035800e4040000e4040000e4040000e4040000f5
:10036800e4040000e4040000e4040000e4040000e5
:10037800e4040000e4040000e4040000e4040000d5
:10038800e4040000e4040000e4040000e4040000c5
:10039800e4040000e4040000e4040000e4040000b5
:1003a800e4040000e4040000e4040000e4040000a5
:1003b800e4040000e4040000e4040000e404000095
:1003c800e4040000e4040000e4040000e404000085
:1003d800e4040000e4040000e4040000e404000075
:1003e800e4040000e4040000e4040000e404000065
:0803f800e4040000e40400002d
:020000040000fa
:10040000efba20000e3f24000e018800000000001b
:1004100000012000200288000c00070000172200c5
:100420000100200011000700000020000000e00093
:10043000020032000000020000000000761e0200f0
:10044000000000000040da000000fe004440a90067
:10045000200020000000e000030032000000200027
:10046000a00188004440a800000006009101880017
:10047000800078000000eb0015003700e2804000ab
:1004800032a0b4009101ba00e280400032a0b40072
:100490009102ba00e280400032a0b4000002eb00fa
:1004a000472bde00f507b200602ce10004003a00a3
:1004b0000059eb008301e900fdff3e000400370016
:1004c0006128e100010032000082eb000400070017
:1004d0001101ba000200e000e8ff3a000000060047
:1004e0003159ba008301e9000c0032002159ba00e9
:1004f0008301e900080032000400e00003003a0034
:10050000e280400032a0b400f5ff370011d9ba00f4
:100510008301e900faff3a008100e800e180400031
:1005200032a0b400000006003600f800809fbe0034
:10053000829fbe00849fbe00869fbe00889fbe0033
:100540008a9fbe008c9fbe001c00fa00845c800065
:10055000e00f520030003a0006402400070020005f
:100560000602d0000418b0004220a800e0824b0030
:100570004220ae004200a8000482d300e29d200089
:100580000400be0093080700084024000900200072
:100590000802d0000420b0004220a800e0824c00f5
:1005a0004220ae004200a8000482d300e29b20005b
:1005b0000400be00870807000a4024000b0020004a
:1005c0000a02d0000414b0004220a800e0824d00ce
:1005d0004220ae004200a8000482d300e29720002f
:1005e0000400be007b0807000c4024000d00200022
:1005f0000c02d000040cb0004220a800e0824e00a3
:100600004220ae004200a8000482d300e2992000fc
:100610000400be006f080700845c8000e10f5200f8
:100620006f003a0000402400000f78000400200012
:10063000140798001e03be000602d0000404b00098
:100640004220a800e0824b004220ae004200a800f9
:100650000482d300e2a720000400be005d0807006a
:10066000074024002707980000002000300798006a
:100670002e039000be0390000602d000041cb000c0
:100680004220a800e0824b004220ae004200a800b9
:100690000482d300e2a520000400be004d0807003c
:1006a00007402400470798000000200050079800ea
:1006b0004e039000de0390000602d0000424b00038
:1006c0004220a800e0824b004220ae004200a80079
:1006d0000482d300e2a120000400be003d08070010
:1006e000074024006707980000002000700798006a
:1006f0006e039000fe0390000602d0000408b000d4
:100700004220a800e0824b004220ae004200a80038
:100710000482d300e29f20000400be002d080700e1
:1007200007402400070f980000002000100f9800d9
:100730000e0b90009e0b90000602d0000410b0003b
:100740004220a800e0824b004220ae004200a800f8
:100750000482d300e2a320000400be001d080700ad
:1007600007402400270f980000002000300f980059
:100770002e0b9000be0b90000602d000042cb0009f
:100780004220a800e0824b004220ae004200a800b8
:100790000482d300e2ab20000400be000d08070075
:1007a00007402400470f980000002000500f9800d9
:1007b0004e0b9000de0b90000602d0000428b00023
:1007c0004220a800e0824b004220ae004200a80078
:1007d0000482d300e2a920000400be00fd07070048
:1007e0008700a90014c0b3000440780097ebb7005d
:1007f00021e3a90099e3a9000080fa004f06be009a
:100800004f05be004f04be004f03be004f02be00a6
:100810004f01be004f00be003600f9000040060048
:100820000000fa0085c0a9000080fa000040060020
:100830003600f800809fbe00829fbe00849fbe00ed
:10084000869fbe000400fa00545d8000e00f520055
:1008500012003a000002eb00040f78000800370095
:10086000445b24001e024200144278000482fb0014
:100870008400780000802000000c07001e0fe800b4
:1008800034ba2000144278000482fb006402420063
:100890009e0f5200f2ff3c00150037000002eb00f3
:1008a000140798000b003700e55b24001e0290003f
:1008b00004824200144278000482fb008400780025
:1008c00000802000ed0b07001e0290000402e800eb
:1008d0001407980034ba2000144278000482fb0008
:1008e000e40242001e029000848f5200eeff3c00a2
:1008f000545d80000400a200545d88008480a9003b
:100900000080fa004f03be004f02be004f01be0040
:100910004f00be003600f900004006000000fa005b
:100920008c40a9000080fa0000400600801f78007b
:10093000841f78000000fa0014c0b300044078005f
:1009400096ebb7008460a9000080fa004f0278009f
:100950004f00780000400600841f78003400f80043
:1009600004002000a40188000000fa00d45c80008c
:100970000402e800d45c8800040a80008420a900f6
:100980000080fa003400f9004f02780000400600b1
:10099000841f78003400f80004002000a4018800bf
:1009a0000000fa00e45c80000402e800e45c8800d7
:1009b000240a800084a0a9000080fa003400f90015
:1009c0004f027800004006000040da000000fe0000
:1009d00003f0a200889fbe008a9fbe008c1f780093
:1009e000ba000700c10033006450e1004f0032003c
:1009f0006420e1005200320003826c0007003b00db
:100a00000905d0000306d000820f54000c065d00db
:100a100002003900020032008901780003067800e4
:100a20008582550004003d000003fd008103fd00a8
:100a30008502ea008b854200840f720002003b00b1
:100a400060001000e08018006011b8000005eb00a5
:100a50007a28e1000a00390006007800c75ddd0051
:100a6000f707b200878075002d0037008281710082
:100a70000a017800610560008180d1000080d30008
:100a80008502e900f9ff3b00060440008784480026
:100a900002003b0060041400e0841c000988a300ed
:100aa000070032008a817100828171006101640057
:100ab0008904d1000884d3008b05e80017003700b3
:100ac0000978a30013003a000b00e0001300340083
:100ad0008b05e9000804440089844c000a44740032
:100ae0000978a3000d003a000b00e0000700340075
:100af0008b05e9000804440089844c0001003a0099
:100b00000b0020000978a300f7ff32000001eb0082
:100b100002003700828171000a017800300007006e
:100b20000cf0a70001f0a000790037006420e1007c
:100b300002003a00838f6c00790033000801be0088
:100b40000200be00720037000001be004a0007002c
:100b50000470a70003f0a1006509b100160032007f
:100b60000d0035006828e10006003500f0ff2f0079
:100b7000f1ff27000300e00013003b000100280004
:100b80000000050000004000818048008502e90067
:100b9000fcff3a0008003700f88f420002003c00da
:100ba0008000eb00000005008100d1000080d30030
:100bb0008502e800fcff3a000300e00002003b0071
:100bc00060001000e0801800000006004f89de0081
:100bd00082017800480237006011b80056023700e1
:100be00081002000618055000b003d000b002000bb
:100bf00061fe2f000100e1001d00340082817100c0
:100c0000610164008904d1000884d3000000e80079
:100c1000faff3a00710020006100640003007000d8
:100c2000020060000900320061044400e0844c00ce
:100c30000988a500050032008b05e8006808e1007e
:100c400002003a008904d1000884d300f20f20008a
:100c50000258e10005003d00c75ddd00f907b20064
:100c60008980750008007800000006000bf8270056
:100c70008b00780000000500c70ade00f107b20013
:100c8000f50fb20008003200e1cf4200020032004e
:100c90000170a00024000500810f700001003200e7
:100ca0000408050044000500810f700002003a00ae
:100cb000140005008502e9000000400081c04800e2
:100cc000fcff3b000170a000240005000004be00f2
:100cd000e9ff07000003be000405be000200be00dd
:100ce000e5ff0700844f7500000006000200be000b
:100cf0006450e100050036006420e1000200360087
:100d00000968a30001003a000800be000160a000cd
:100d10004f0678004f05be004f04be0000000600dd
:100d2000f0ff2f00f1ff2700f9ff3700889fbe007a
:100d30008a9fbe008c1f7800e4ff0700ebff3300a2
:100d400003866c006450e100240032006420e1005e
:100d5000270032006150e100220032006120e100f2
:100d6000210032008b854200eb07b1000134b8004e
:100d7000003ab8000804420089844a00013ab800e9
:100d80000030b8008880400009014a0004003300a8
:100d90000000400081804800020149008b05e90005
:100da000c909dd008301700001003200130020003a
:100db000c814de004814dd004709de001200b2004e
:100dc000c808de000884700085ff070001f0a1005c
:100dd0000cf0a70001f0a000cdff37006120e1007a
:100de000cfff32000801be000200be00f7ff37004f
:100df0006150e100fcff3a00c9ff37000c00fa0027
:100e0000889fbe008a9fbe008c9fbe00afff070078
:100e10000206be00840578000200be000200200029
:100e20008a01070005003a008b02b300120020007f
:100e30008601070001003a00f8856d000c01be0034
:100e4000c60007000800be009b0032000b08a3008c
:100e50009e003a000df0a7000be0a00009f0a700eb
:100e60000bf0a00009f0a1000801be00bb000700c4
:100e70000bf0a6009500320001003c000bd0a00052
:100e80008acf7500b20033006000b8006250e10004
:100e900099003900a1003e000b28a300a2003a00ef
:100ea0000bf8a300060032000b58a300a700320085
:100eb0000801be00a90007000800be00940032002f
:100ec0000800be00b00007000004be000505780061
:100ed0000bf0a7000b30a6000bf0a1005b079800f9
:100ee000324f200053f323007f01070005003d002f
:100ef0000800be0012002000be0107000004be0072
:100f00000a05e9004a0798006150b9002fff070061
:100f1000008fbe000c01be0084ff07000aff07001f
:100f2000300798000100e00002003d006000100062
:100f3000e0801800f2ff2700820f5000e08f580079
:100f400064003e000c00be00fffe07002007980072
:100f5000f2072000820f5000e08f580005003c008f
:100f600012f82f00f3ff2f00820f5000838f5800dc
:100f700009003d000a00e0000300320001003c00cf
:100f80000201ea00020578006000b800200798001e
:100f90003a079800190037003e0090006100b90040
:100fa0000aff0700809fbe000c00be004109dd0063
:100fb0004811de007208b100240107000005be00e0
:100fc0001e01be0059ff07004f01be0080fe070052
:100fd000809fbe000c00be000a01be007cfe070020
:100fe0001e01be0051ff07004f01be0079fe070041
:100ff0008221270013f323004cff07000005be00e9
:101000002e0090006100b900f0fe070001f0a20080
:101010000c01be006ffe07000006be000800be0007
:10102000960107000c01be0040ff07000a01be0048
:1010300068fe0700809fbe004a0007002e05900052
:101040000af0a7000a05ea00050037000800be0004
:101050000801be0035ff07000004be000c00be0002
:101060000801be000a00a70030ff07000006be000e
:101070000a05d100f5ff3a005e01900002e0a600eb
:10108000030037000001be00360007004b000700d8
:101090000004be004f00be008a0007000801be0029
:1010a00022ff07003e01900052010700de0590007c
:1010b0000bf0a70001f0a2004f06be004f05be00d6
:1010c0004f04be000080fa00000006002500070063
:1010d000f9ff3700270007006000b8000bd0a70019
:1010e0000bc0a0000be0a7000bc0a2000bc0a70024
:1010f00001f82700f0ff37000df8a30002003200ce
:101100001e000700190007000bf8a300eaff3200d9
:101110000b30a70001f0a200e7ff37000df8a30095
:10112000f9ff3a00f7ff37000801be000b00070087
:10113000e6ff320001003c000df0a2006000b800a4
:101140000df0a70009000700dbff37000b000700c8
:10115000f1ff2700f0ff2f00d7ff37000100070045
:10116000e100370001f823000000050001f8270026
:1011700000000500200220000100370010022000be
:10118000605d8800000006000003be00bafe070094
:101190006220e100020032000600be0005000500ea
:1011a000e507b100f107b20004f02300848070006d
:1011b00007f0a70001f0a00024000500889fbe00f2
:1011c0008a9fbe008c1f7800c0fe0700c7fe330058
:1011d00003866c006450e1002e0032006420e100c0
:1011e000330032006150e1002f0032006120e10045
:1011f0003100320085855500eb07b0000900200062
:1012000008042000050037000804440089844c00cd
:101210000a0031000603430087834b00000153009e
:1012200081815b00f8ff33000203be000800a000cc
:101230000804440089844c00f6ff3900c639dd00fb
:101240008301730001003200130020008904d100e3
:101250000884d3000998a300050032000800a70005
:101260000300a0008904d1000884d3008b05e800a6
:101270008904d1000884d3000001eb000281d20070
:1012800057fe070001f0a1000cf0a70001f0a0003c
:101290009ffe37006420e100a1fe32000801be007d
:1012a0000200be00f7ff37006120e1009cfe320023
:1012b0006000b800f3ff37000000200001f82700ad
:1012c000f0ff3700889fbe008a9fbe008c9fbe0043
:1012d0000004be0068fe07000800be006420e100b4
:1012e00048003e005500320072212700132b2400d5
:1012f0007f00070047003c000800be00c2ec280049
:10130000e32c2c0078000700470035000800be00e1
:1013100001f0a10002002000033823007200070042
:10132000430035000800be00b2a32a0083fb23005f
:101330007efe07000200200003f0230001f0a7005a
:1013400003f0a000a3fd0700fffd07000005be009d
:101350001efe070001f0a2000006be0002002800e9
:1013600013f3230071fe07000801be0099fd07007a
:10137000809fbe000c00be0032082800e3952b00c1
:101380006afe07004f01be0092fd07000006be0086
:101390000001be0065fe0700809fbe00424125009f
:1013a00083b8230061fe07000200200003e8230049
:1013b00088fd07000c01be005cfe07000006be00b1
:1013c0004f00be00f2f92b00c3d4230057fe0700e4
:1013d0000200200003f023007efd07000c01be0088
:1013e0007bfd07000001be000c00be0073ff07007c
:1013f0000200200003f0230076fd07006101450094
:101400007c0007004f06be004f05be004f04be0023
:101410000000060001f82700000020002202200042
:10142000625d8800f7ff37006000b800fbff3700ff
:1014300001f8230000002000f2ff370009f8a300a4
:10144000f0ff32006000b800eeff3700889fbe005a
:101450008a9fbe000003be0007fe070085057800d6
:1014600082815200020020006220e10004003a0064
:10147000f307b100040035007718e10004003500df
:101480000600be00140037006000b8000f003700ef
:10149000f50f2000faff2f008502d1000a85d30046
:1014a0008301e900fcff3b008184620000046500c9
:1014b000890f7400f2ff32008582ea000a85ea0093
:1014c0008184620000046500c5fd070007f0a700e5
:1014d00001f0a0000081eb000200e0004f05be001b
:1014e0004f04be000000060014002000ba003700c0
:1014f000f4ff2f00b8003700881f7800030478003d
:101500000300e00007003d0060001000e0801800cc
:1015100060011900e081190002003b0001f02d007c
:10152000030037000400070008f0a70001f0a00046
:101530004f04780000000600889fbe008a9fbe000e
:1015400000827000040271000482710026003200e3
:101550000004be000200be006011b8006b0920004c
:10156000950220000182cf000a0039000541b10038
:101570000082cf00070039000541b1000982cf0089
:10158000040039000541b1000882cf000100390094
:101590000541b10005425200120032000a003b0032
:1015a00082817100610164008100d1000080d3005c
:1015b0008984d3000884d3008b05e8000442e80046
:1015c000f7ff3a00070037000804440089844c0004
:1015d00000004800818048008b05e9000442e900d2
:1015e000f9ff3a007efd07004f05be004f04be0024
:1015f000000006000003be009ffd07006220e1001e
:10160000020032000600be00000006008502410014
:10161000e30f20000328e10005003c00a3fe2f009b
:101620000328e10007003d0005002000010037000d
:10163000f50f200020022000605d88006000b800e7
:1016400008003700130020008381520005003d0090
:101650008100d1000080d3008301e800fcff3a0044
:1016600005002000c72add00f107b2008580700068
:1016700007f0a70001f0a00000000600889fbe0050
:101680008a9fbe008c9fbe00bffe070085047800c5
:101690000005be006420e10049003e006220e10038
:1016a00003003200090035000bf8a30044003200ab
:1016b0000bf8a3000800320010022000605d8800d3
:1016c000f0ff2f00f1ff27003d00370001f82f0049
:1016d000000020003a0037003d000700bcfc070076
:1016e0000006be000a00be00324f200053f3230064
:1016f0007fff0700060034000c00be003400070026
:10170000b3fc07000006be000a00be00020037005e
:101710008904e9000c00be002d00070083fd0700ce
:101720002b000700abfc07000001be000c00be0050
:10173000a2fe07000005be000001be007bfd070001
:101740000006be00a2f32300430d2c00a1fc0700fd
:10175000809fbe000c00be00d2e32700d3f02b0018
:1017600072fd07004f01be0094fe07000006be0098
:101770000a01be006dfd07000a01be0095fc0700ce
:101780000006be006148b90010fd07000005be005c
:1017900032082800e3952b0064fd07000c01be0011
:1017a0008cfc07000006be000a00be0002002800f4
:1017b00013f323005dfd07000c01be0085fc07004c
:1017c0004f06be004f05be004f04be0000000600dd
:1017d00003f0230002000500889fbe008a9fbe0020
:1017e000841f780039fd07004f0078001100330096
:1017f000f0ff2f00838f6c0006003b00040565009e
:101800000a00a7000800370009f0a6001000200019
:1018100008003700820f5400838f5c0003003900fa
:101820001000200001003e000000200009f0a70089
:101830000000ea004f05be004f04be000000e000bb
:1018400000000600e4874700889fbe008a9fbe0014
:101850008c9fbe008e1f7800845c2400452e820081
:10186000e08f52000b003a00e4024200452e8a004d
:10187000952e8a0024029800842e8a00a4429000ab
:101880000504a00025429800e44290000504a00051
:1018900065429800670440004244de004244dd0097
:1018a000822e8200a45d2400e97c240084845400fc
:1018b00025002000110009008504d80080bf9f008a
:1018c000050744000e0747000003eb00e405440051
:1018d0001c7d24000406560008064600020037005e
:1018e000160020000d017800224290006102620083
:1018f000020032000a0037001509780092027800d1
:101900002542900061026200fbff320008024100a4
:10191000848f520002003900e00f54003f003d0068
:10192000920678000d00a100828f5600edff3e0068
:10193000e10f5300eaff3a000fba9700840f5400fa
:1019400002003600890f5400100039006143b800ce
:10195000614ab900b0ff2f000100200004025000ce
:1019600085825800840f5300858f5b00020035008c
:101970000b05780006003700110009000986d80021
:101980000982b90004057800010037000e057800cf
:101990000a00780090000700e10f400005003a00bf
:1019a0000b0578000b0078008b000700e10f40006a
:1019b0002b003200942e8200000a7800942e8200c0
:1019c00064034200a4429000860f500002003200df
:1019d0000504a000010037000504a100254298007d
:1019e000640555000a0540000a0878009a2e8a000e
:1019f000845c2400040d7800952e8200254290001e
:101a00000404a000a4429800204290000404a10015
:101a1000244098000003eb00b2ff3700842e8a00b8
:101a2000848f5200070036001403be00a62e8a00e1
:101a3000b72e8a00120a78008042eb00842e8200c2
:101a400025429800872e82000709780022429000e4
:101a50000404a00024419800640041000100370004
:101a60000000eb004f0778004f06be004f05be0098
:101a70004f04be004f00b10000000600e00f500010
:101a80000800320064005000842e8200840f500051
:101a900001003100802e8a00204290000404a10041
:101aa0002440980000000600889fbe008a9fbe0068
:101ab0000004be00e08f540005003a00e00f54001f
:101ac0003200320008007800ecff070030003700d9
:101ad000e00f540004003a000900780059ff0700a5
:101ae000800478002a0037006402540094057800ce
:101af00068fa970061026200020032000800780074
:101b0000deff0700090078004eff07008004780020
:101b1000e08f54001e003200888f54001b003200fa
:101b200069bd97000905550042d5de00888555003e
:101b3000c2ddde000a0178008b0f5500010036007f
:101b40000b0178004211dd00880078000900780060
:101b500013000700888f54000d0031004255dd004e
:101b60000a854400880f5500090036000804550016
:101b700042c4de004244dd0008844400a42e8200fa
:101b8000b52e8200048cbe00010037008804780066
:101b9000090078004f05be004f04be00000006009b
:101ba0000002780002003700315a78000201e90093
:101bb000e00f5100fcff3a00000006000002780030
:101bc00002003700015a78000201e900e00f5100dd
:101bd000fcff3a0000000600889fbe0080047800e9
:101be000c02e8200e00f500004003a000e000700f3
:101bf0000084eb00e00f500008003500c82e820082
:101c0000e08f540005003200090044000600070080
:101c1000e00f500001003d000084eb000800780058
:101c20004f04be0000000600e00f500004003a0020
:101c3000a45d2400c42e8a0000027800060037004c
:101c40000082eb00e57c2400850f500002003e007e
:101c5000c02e8a000002eb0004007800000006009d
:020000040000fa
:101c60000800fa006003070000027800040f780003
:101c700030030700000278001407980000030700f3
:101c800000027800240798009803070000027800fb
:101c90003407980080932000e807070000027800ce
:101ca000e20120009e00780004007800bc030700d9
:101cb00000427800e04f5200040032009e0078009d
:101cc00080932000c80707000a0037008093200097
:101cd000da070700000278009e0078000400780010
:101ce000c30307000002780084007800809320007e
:101cf000bd07070000952000d0070700000278000c
:101d0000e20120009e00900004007800a403070078
:101d100000427800e04f5200040032009e00900024
:101d200000952000b00707000a003700009520004a
:101d3000c2070700000278009e00900004007800af
:101d4000ab030700000278008400780000952000b3
:101d5000a5070700c0952000b8070700000278001b
:101d6000e2012000ae009000040078008c03070020
:101d700000427800e04f520004003200ae009000b4
:101d8000c0952000980707000a003700c095200082
:101d9000aa07070000027800ae0090000400780057
:101da000930307000002780084007800c0952000ab
:101db0008d07070040942000a0070700000278006c
:101dc000e2012000be0090000400780074030700c8
:101dd00000427800e04f520004003200be00900044
:101de00040942000800707000a003700409420003c
:101df0009207070000027800be00900004007800ff
:101e00007b030700000278008400780040942000e3
:101e1000750707000080fa00000006000000fa00c5
:101e2000881f7800808820003907070000027800aa
:101e3000351f2000850f52003d003c00608f2000c0
:101e40003307070000047800008e200030070700e9
:101e50000002780084024400d4122000848f5200d3
:101e6000070034008088200029070700000278005e
:101e700084007800809320005b0707002f00370064
:101e8000608f20002207070000047800008e2000e9
:101e90001f0707000002780084024400740c200031
:101ea000848f52000f003c00608f2000180707004d
:101eb00000047800008e200015070700000278005b
:101ec0008402440024002000110009008402d8008c
:101ed0000002780084007800809320004207070009
:101ee00016003700608f2000090707000004780003
:101ef000008e20000607070000027800040444005a
:101f00008088200002070700000278008402440055
:101f100034002000110009008402d800000278007b
:101f200084007800809320002f070700030037000b
:101f3000411f2000809320002b070700c085200050
:101f4000f306070000027800351f2000850f5200bd
:101f500029003c00a08c2000ed060700000278005c
:101f600065092000850f520007003400c08520005d
:101f7000e70607000002780084007800c095200082
:101f8000190707001f003700a08c2000e00607009b
:101f90000002780035062000850f520007003c0043
:101fa000a08c2000da060700000278008400780088
:101fb000c09520000c07070012003700a08c2000fd
:101fc000d306070000047800c0852000d006070073
:101fd000000278008402440024002000110009005f
:101fe0008402d8000002780084007800c0952000a8
:101ff000fd06070003003700411f2000c0952000a8
:10200000f906070020872000c106070000027800bb
:10201000351f2000850f520029003c00408b200016
:10202000bb0607000002780065092000850f5200fa
:102030000700340020872000b50607000002780062
:102040008400780000952000e70607001f00370095
:10205000408b2000ae060700000278003506200005
:10206000850f520007003c00408b2000a8060700a7
:10207000000278008400780000952000da0607004e
:1020800012003700408b2000a106070000047800f2
:10209000208720009e06070000027800840244008a
:1020a00024002000110009008402d80000027800fa
:1020b0008400780000952000cb060700030037005d
:1020c000411f200000952000c70607006084200003
:1020d0008f06070000027800351f2000850f520090
:1020e00029003c00e08920008906070000027800f2
:1020f00065092000850f520007003400608420002d
:1021000083060700000278008400780040942000d5
:10211000b50607001f003700e08920007c06070095
:102120000002780035062000850f520007003c00b1
:10213000e08920007606070000027800840078001d
:1021400040942000a806070012003700e089200014
:102150006f06070000047800608420006c0607000a
:1021600000027800840244002400200011000900cd
:102170008402d80000027800840078004094200097
:102180009906070003003700411f200040942000fb
:10219000950607004f0478000080fa000000060052
:1021a0000200fa0001022000e09d2000b6070700af
:1021b00001022000e09b2000b3070700010220007d
:1021c000e0972000b007070001022000e0992000fe
:1021d000ad0707000002eb00040f78002d00370068
:1021e0009e0278006482420084024200e49d200046
:1021f00004824200940278001e0278000403420028
:10220000e4b0200004024300050a78009e02780032
:102210006482420084024200e49b20000482420067
:10222000940278001e02780004034200e4af20000c
:1022300004024300050a78009e027800648242008e
:1022400084024200e4972000048242009402780055
:102250001e02780004034200e4ad200004024300a3
:10226000050a78009e0278006482420084024200df
:10227000e499200004824200940278001e02780053
:1022800004034200e4ae200004024300050a780083
:102290001e0fe8001e027800e70f5200d0ff340046
:1022a00001012000e0b02000d90007000002780002
:1022b00004007800f600070000027800840078002f
:1022c00060842000fd05070001012000e0af200030
:1022d000cf0007000002780004007800ec0007003f
:1022e0000002780084007800c0852000f305070014
:1022f00001012000e0ad2000c500070000027800c9
:1023000004007800e20007000002780084007800f2
:1023100080882000e905070001012000e0ae2000d0
:10232000bb0007000002780004007800d800070016
:10233000000278008400780020872000df05070075
:102340000080fa00000006000200fa0001022000ee
:10235000e0a720004c07070001022000e0a32000b6
:102360004907070001022000e0a5200046070700fa
:1023700001022000e0a12000430707000102200025
:10238000e09f20004007070001022000e0ab200092
:102390003d07070001022000e0a920003a070700de
:1023a0000002eb00040f78004e0037009e02780018
:1023b0006482420084024200e4a7200004824200ba
:1023c000940278001e02780004034200e4b5200065
:1023d00004024300050a78009e02780064824200ed
:1023e00084024200e4a320000482420094027800a8
:1023f0001e02780004034200e4b3200004024300fc
:10240000050a78009e02780064824200840242003d
:10241000e4a5200004824200940278001e027800a5
:1024200004034200e4b4200004024300050a7800db
:102430009e0278006482420084024200e4a12000ef
:1024400004824200940278001e02780004034200d5
:10245000e4b2200004024300050a78009e027800de
:102460006482420084024200e49f20000482420011
:10247000940278001e02780004034200e4b12000b8
:1024800004024300050a78009e027800648242003c
:1024900084024200e4ab20000482420094027800ef
:1024a0001e02780004034200e4b720000402430047
:1024b000050a78009e02780064824200840242008d
:1024c000e4a9200004824200940278001e027800f1
:1024d00004034200e4b6200004024300050a780029
:1024e0001e0fe8001e027800e70f5200afff340015
:1024f00001012000e0b5200045000700000278003f
:102500000400780081000700000278008400780051
:10251000e08920006905070001012000e0b32000e8
:102520003b000700000278000400780077000700f5
:102530000002780084007800408b20005f050700cf
:1025400001012000e0b42000310007000002780003
:10255000040078006d000700000278008400780015
:10256000a08c20005505070001012000e0b22000ea
:1025700027000700000278000400780063000700cd
:102580000002780084007800608f20004b0507006f
:1025900001012000e0b120001d00070000027800ca
:1025a00004007800590007000002780084007800d9
:1025b000008e20004105070001012000e0b7200047
:1025c000130007000002780004007800680007008c
:1025d0000002780084007800c090200037050700d2
:1025e00001012000e0b62000090007000002780089
:1025f000040078005e000700000278008400780084
:10260000209220002d0507000080fa00000006003f
:102610000800fa0020079800310798003e02900059
:102620000402d100340798000002eb00040f780088
:102630000002eb0014079800090037001e0290000a
:1026400004024200ae0290000482420014027800ac
:102650001e0f42001e0290000402e80014079800ba
:102660009e0290003e029000848f5200f3ff3900da
:102670009e0278003e029000110009008482d8007a
:1026800000027800040078000080fa0000000600d4
:102690000400fa00100798009e029000146c2000bd
:1026a000848f520002003e00642220001400370094
:1026b0001e029000050020000400be0046f907003d
:1026c0000002be0072be2f0093002c000400be006a
:1026d000caf907000002be0012202b0043f42400b8
:1026e0000400be0091f907000002be000400be0015
:1026f00015f907000002be00040f78001e027800e2
:10270000040078000080fa00000006000400fa00cf
:10271000100798001e029000050020000400be0073
:102720002df907000002be00b2f32d00f3f82b00d4
:102730000400be00b1f907000002be00022c2d000b
:10274000338324000400be0078f907000002be00b5
:102750000400be00fcf807000002be00040f780071
:102760001e027800040078000080fa0000000600d5
:102770000400fa00100798001e02900005002000d7
:102780000400be0014f907000002be00e2f92e00aa
:1027900073f82b000400be0098f907000002be0089
:1027a00002602100c36b24000400be005ff9070033
:1027b0000002be000400be00e3f807000002be00f5
:1027c000040f78001e027800040078000080fa00f0
:1027d000000006000800fa00100798002107980082
:1027e000320798000002eb00040f78001f0037004a
:1027f0001e02780004024200be02900004804200e3
:102800001e027800cfa2de000402420085824a0048
:10281000848fd2008582d2000402780004f0a100e7
:102820001e039000ae0390008600d0000401d0008b
:10283000028240004220a80085824b004200a9008d
:102840004220ae004200a8000482d300a60180000e
:1028500085037800a701880004027800140278003c
:10286000a6018800040878001e0fe8001e02780008
:10287000ef0f5200deff34000080fa000000060077
:102880000000fa00881f7800c0852000a00407001f
:1028900000027800351f2000850f520020003c0008
:1028a000a08c20009a04070000027800650920002f
:1028b000850f520004003400c085200094040700f6
:1028c0000002780017003700a08c20009004070059
:1028d0000002780035062000850f520004003c00fd
:1028e000a08c20008a040700000278000d00370049
:1028f000a08c20008604070000047800c08520001a
:1029000083040700000278008402440024002000b1
:10291000110009008402d80000027800010037008d
:10292000441f2000040078004f0478000080fa0063
:10293000000006000000fa00881f780020872000b1
:102940007304070000027800351f2000850f520035
:1029500020003c00408b20006d040700000278003e
:1029600065092000850f52000400340020872000f4
:10297000670407000002780017003700408b200032
:10298000630407000002780035062000850f52001e
:1029900004003c00408b20005d040700000278002a
:1029a0000d003700408b2000590407000004780018
:1029b00020872000560407000002780084024400ab
:1029c00024002000110009008402d80000027800d1
:1029d00001003700441f2000040078004f047800f5
:1029e0000080fa00000006000000fa00881f78004e
:1029f000808820004604070000027800351f200070
:102a0000850f520034003c00608f20004004070016
:102a100000047800008e20003d04070000027800ca
:102a200084024400d4122000848f52000400340039
:102a30008088200036040700000278002700370055
:102a4000608f20003204070000047800008e200010
:102a50002f0407000002780084024400740c200058
:102a6000848f52000c003c00608f20002804070077
:102a700000047800008e2000250407000002780082
:102a80008402440024002000110009008402d800c0
:102a90000002780011003700608f20001c0407003e
:102aa00000047800008e200019040700000278005e
:102ab0000404440080882000150407000002780008
:102ac0008402440034002000110009008402d80070
:102ad0000002780001003700441f20000400780045
:102ae0004f0478000080fa00000006000000fa00a1
:102af000881f780060842000050407000002780029
:102b0000351f2000850f520020003c00e089200086
:102b1000ff0307000002780065092000850f5200be
:102b20000400340060842000f903070000027800ec
:102b300017003700e0892000f50307000002780045
:102b400035062000850f520004003c00e08920007b
:102b5000ef030700000278000d003700e089200035
:102b6000eb0307000004780060842000e8030700fe
:102b700000027800840244002400200011000900b3
:102b80008402d8000002780001003700441f2000b2
:102b9000040078004f0478000080fa00000006006e
:102ba0000600fa00000f780011079800220798002d
:102bb0002e0290009e0242001e029000848f52005e
:102bc000070034002e0290009e0212001e029000a8
:102bd000848f520002003d0014c0b3000100370092
:102be0000042eb00044078000080fa00000006007c
:102bf0000600fa00889fbe00100798002107980081
:102c0000ae0290001e029000048f52001e0290003f
:102c1000cfa2de000400be00ecf707000004be00f7
:102c20001e027800cfa2de000400be00e7f7070016
:102c30000002be000200200003f023000400be00da
:102c40003af807000002be000401be000800be0002
:102c500060f707000002be000400be00baf70700dc
:102c60000002be0004027800040078004f04be0099
:102c70000080fa00000006000000fa000f000700c4
:102c800039000700820007009d0007006300200054
:102c9000829720000101200080962000c3010700d8
:102ca0005000070062000700320107006c010700b6
:102cb000840107000080fa00000006000000fa000e
:102cc000e4012000343a8800243a80000460a10026
:102cd0000470a100243a8800253a800004fe2f00e9
:102ce000048262003400b300243a880036002000d9
:102cf00084072000a509200037742000844b780049
:102d0000854b7800864b7800143a800004037800e5
:102d10000600a00064042000750520002774200030
:102d2000844b7800854b7800864b780000000000cb
:102d3000153a80000400270084826200040023000a
:102d4000848f5200faff3a0000000000153a80001c
:102d50000402200004826200e00f5200fbff3200f8
:102d60000080fa00000006000000fa00253580000f
:102d700004fe2f00048262007401b3002435880031
:102d8000b536800004fe2f00048262003400b300d8
:102d9000b4368800d4c2a800d4e2a8002002a9005a
:102da000041180000410a1000420a1000411880077
:102db00020a2a900040420004411880023a2a90035
:102dc00023e2a800141180000460a1000470a10097
:102dd0001411880021e2a8002342a8000080fa0014
:102de000000006000000fa00c41c80000440a1009e
:102df0000450a000c41c8800c41c80000400a00073
:102e00000410a100c41c880004302000041d8800a8
:102e1000d4002000d41c880004402000e41c88005a
:102e20008700a9009700a8000080fa0000000600b3
:102e30000000fa00041980000480a1000490a100a1
:102e400004198800041980000450a0000460a00048
:102e50000470a000041988002043a8002143a800a2
:102e60002343a80025e3a8002183a900941980002a
:102e70000400a1000410a1000420a00094198800ff
:102e800085a0a90095a0a9000080fa000000060016
:102e90000000fa00c022a800c802a800c822a800aa
:102ea000c842a800c862a800d002a800d022a8008a
:102eb000d042a800c9e2a800c9c2a800c9a2a800bf
:102ec000c882a900c082a900c122a900d062a900bd
:102ed000d082a900d0a2a900c902a900c922a900d4
:102ee000c982a900c142a900c0e2a900d102a8007c
:102ef000d122a800c962a9000080fa0000000600e3
:102f00000400fa00cc82a8006022b800048fbe0042
:102f10000400370014002000050020001e0f4200ae
:102f20005e974a00f4232400f50020001e03be0033
:102f3000840f5300858f5b00f6ff3600c482a80023
:102f40006022b800048fbe00040037001400200087
:102f5000050020001e0f42005e974a00f423240063
:102f6000f50020001e03be00840f5300858f5b0018
:102f7000f6ff3600c522a8006022b800048fbe000c
:102f80000400370014002000050020001e0f42003e
:102f90005e974a00f4232400f50020001e03be00c3
:102fa000840f5300858f5b00f6ff3600d462a800c3
:102fb0006022b800048fbe00040037001400200017
:102fc000050020001e0f42005e974a00f4232400f3
:102fd000f50020001e03be00840f5300858f5b00a8
:102fe000f6ff3600d482a8006022b800048fbe002d
:102ff0000400370014002000050020001e0f4200ce
:103000005e974a00f4232400f50020001e03be0052
:10301000840f5300858f5b00f6ff3600d4a2a80012
:103020006022b800048fbe000400370014002000a6
:10303000050020001e0f42005e974a00f423240082
:10304000f50020001e03be00840f5300858f5b0037
:10305000f6ff3600cd02a8006022b800048fbe0043
:103060000400370014002000050020001e0f42005d
:103070005e974a00f4232400f50020001e03be00e2
:10308000840f5300858f5b00f6ff3600cd22a80029
:103090006022b800048fbe00040037001400200036
:1030a000050020001e0f42005e974a00f423240012
:1030b000f50020001e03be00840f5300858f5b00c7
:1030c000f6ff3600cd82a8006022b800048fbe0053
:1030d0000400370014002000050020001e0f4200ed
:1030e0005e974a00f4232400f50020001e03be0072
:1030f000840f5300858f5b00f6ff3600c542a800a1
:103100006022b800048fbe000400370014002000c5
:10311000050020001e0f42005e974a00f4232400a1
:10312000f50020001e03be00840f5300858f5b0056
:10313000f6ff3600c4e2a8006022b800048fbe008b
:103140000400370014002000050020001e0f42007c
:103150005e974a00f4232400f50020001e03be0001
:10316000840f5300858f5b00f6ff36000080fa0065
:10317000000006000000fa0005e1a9000421a900f2
:1031800004c1a900240880000440a0000450a0004d
:10319000240888000002eb000408880004e12000f5
:1031a000140888002405800004c0a00004d0a100f9
:1031b00004e0a100240588008460a9009460a800b0
:1031c00011e1a9001021a90010c1a9008408800004
:1031d0000440a0000450a000840888000002eb0016
:1031e00034088800441f20006408880034058000eb
:1031f00004c0a00004d0a10004e0a10034058800b0
:1032000084e0a90094e0a90011e1a8001fe1a90051
:103210001e21a9001ec1a900f40880000440a000de
:103220000450a000f40888000002eb00a408880005
:1032300034f42000d40888008405800004c0a00075
:1032400004d0a10004e0a100840588008760a900e3
:103250009760a9001fe1a8000080fa0000000600a6
:103260000000fa006084200057020700c08520009b
:1032700055020700208720005302070080882000a5
:1032800051020700e08920004f020700408b200018
:103290004d020700a08c20004b020700008e20008a
:1032a00049020700608f200047020700c0902000fd
:1032b0004502070020922000430207000080fa0028
:1032c000000006000000fa00140a80000400a100bb
:1032d0000410a1000420a100140a880042e1a80003
:1032e000140a80000450a1000460a100140a8800a0
:1032f000140a80000400a1000410a0000420a10012
:10330000140a8800240580000440a0000450a10095
:103310000460a100240588008420a9009420a8004e
:103320007534800004fe2f00048262008401b30023
:1033300074348800340a80000400a1000410a10045
:103340000420a100340a880046e1a800340a800065
:103350000450a1000460a100340a8800340a8000ef
:103360000400a1000410a0000420a100340a880079
:10337000340580000440a0000450a1000460a100b6
:103380003405880084a0a90094a0a80075348000aa
:10339000f40f2e00848262000490210004827200e7
:1033a000743488000080fa00000006000800fa006b
:1033b000000f780021479800220798006347980083
:1033c00000802000250107001e007800f05c8800c6
:1033d0002e029000045d88002e409000a2ebb70002
:1033e0006e409000a3ebb70034ba2000144278007e
:1033f0000482fb000400780012f907000002780044
:10340000245d880014002600641c880024ba200073
:10341000144278000482fb0063024200b41c88005e
:10342000751c800004f82f0004826200c400b30001
:10343000741c880044222000a41c8800045a200028
:10344000841c880085c0a90095c0a8002400240021
:10345000041c880034ba2000144278000482fb0067
:1034600063024200541c8800151c800004f82f00e1
:1034700004826200b400b300141c8800642220009f
:10348000441c8800445b2000241c8800e45b20006e
:10349000341c88008480a9009480a80081e3a800df
:1034a00000482800e1012000b50307000080fa0071
:1034b000000006000800fa00200798006147980005
:1034c0000042eb00044f7800200037002e029000ed
:1034d00094427800154798002e0290000402e800fc
:1034e0002407980084c0b3002447980014003700d4
:1034f0001e4290001e426a006142620034479800fa
:103500009e4278000582fb000402d100044f78003f
:103510003e429000e04f520002003200c4c8b300a7
:103520001e4f6a001e4290000482fb000402d1007c
:10353000144798002e4290000442e9002447980066
:103540002e429000e04f5200e9ff3a006e42900098
:103550000482fb000402ea004f22de0004427800ed
:10356000ee4290008542e90065479800e04f520026
:10357000d6ff3a001e427800044078000080fa002e
:10358000000006000400fa0024ba2000144278006b
:10359000f55c80008440780005007800c5ff0700d6
:1035a0000042780024479800055a240064c0b30004
:1035b000844a7800155a240054c8b300844a78001d
:1035c00024ba200014427800255a2400844a780046
:1035d0000002eb00040f7800090037001e0278009b
:1035e000e3024200f65c80001e0278000402430001
:1035f00014427800065a240004f37a001e0fe800f3
:1036000024ba2000144278000482fb009e0f52006e
:10361000f2ff3c0024ba2000144278000482fb0030
:1036200063024200055a24002e43900086727a00fd
:103630008de3a8008fe3a8000080fa0000000600d8
:103640000000fa00889fbe0074ba2000144278007f
:10365000e04f520029003a0000802000f1000700ee
:1036600000027800e20f5200240034000700370007
:1036700000802000eb00070000027800e20f5200fb
:1036800002003c000042eb00700037000080200088
:10369000af00070000027800e60f5200f4ff3a0086
:1036a00000802000aa0007000002780055082000d2
:1036b000850f520011003a0000802000a40007008e
:1036c000000278000442780004407800a7ebb700bd
:1036d00075ba20009542780034ba20001442780070
:1036e00084cf5200050032000042eb000440780015
:1036f000a7ebb7000042eb005400370074ba20007b
:1037000014427800e04f52004f0032000d003700a5
:10371000255d800068ba2000184478000882fb000c
:1037200084844200008020008900070000027800a5
:1037300004427800844c78000842e8000440780095
:10374000a6ebb70000802000b6000700000278005a
:10375000e00f52000600320065ba20009542780062
:1037600074ba20001442780084cf5200e8ff36007b
:1037700074ba2000144278008482fb0064ba2000ee
:10378000144278000482fb000402e900848f520096
:103790002d003a0074ba200014427800255d8000a4
:1037a000844078000500780042ff0700004278005e
:1037b00004407800a8ebb700255d800064ba2000c3
:1037c000144278000482fb000402e90004824200f3
:1037d0009442780084ba20001442780084cf5200ca
:1037e00011003a0034ba2000144278000483fb0030
:1037f000255d8000045d800006017800850078006a
:1038000004007800e6f807000042eb00044078006e
:10381000a7ebb7000042eb0004407800a6ebb7002e
:1038200014c0b300090037000042eb0004407800e8
:10383000a7ebb7000042eb0004407800a6ebb7000e
:103840000042eb00010037000042eb00044078002a
:103850004f04be000080fa00000006000200fa00db
:10386000000f7800620420008000eb001e0078004a
:10387000d2f807000080fa00000006000400fa00f9
:10388000000f7800214798001e027800a4229000c3
:10389000f4032000848f520014003c001e027800c4
:1038a000042290009e0278002e43900086727a00d7
:1038b0001e02780004229000010420000400780019
:1038c0005f00070000027800840278001e02780082
:1038d000052298001e027800242290008402e8004d
:1038e0001e02780025229800170037001e0278007b
:1038f000042290009e0278002e43900086727a0087
:103900001e027800042290000104200004007800c8
:103910004b00070000027800840278001e02780045
:10392000052298001e027800142290000104200055
:10393000040078004200070000027800840278004a
:103940001e027800152298000080fa000000060090
:103950000400fa00100798001e0290002422900034
:10396000e00f5200130034001e0290001422900059
:103970009e029000654f7a001e0290001422900073
:1039800001042000040078002d00070000027800e8
:10399000840278001e029000152298001e029000fa
:1039a000242290008402e9001e0290002522980043
:1039b000020037000042eb00044f78001e427800fe
:1039c000044078000080fa00000006000400fa00bd
:1039d000000f7800110798001e0278008002eb00ab
:1039e000252298001e0278008002eb000522980034
:1039f0001e0278008002eb00152298001e02900043
:103a0000e00f5200050032001e0278000204200080
:103a10008000eb000400780068f807000080fa00de
:103a2000000006000200fa00000f78001e02780075
:103a300024229000040078000080fa0000000600b4
:103a40000600fa0010079800210798001e02900057
:103a5000040fe8002e0290009e027800848f52002e
:103a6000020039000002eb00040f78001e0278000b
:103a7000040078000080fa00000006000600fa004a
:103a800010079800210798001e029000e00f5200d6
:103a900003003a002e0290000402e9000200370001
:103aa0001e0290000402e900040f78001e02780054
:103ab000040078000080fa00000006000400fa000c
:103ac000000f7800110798001e027800240a900069
:103ad0009e02780004024200048242009e0290008e
:103ae000050a78001e027800240a9000a100200038
:103af00004007800d2ff07000002780084027800fa
:103b00001e027800250a98000080fa0000000600d6
:103b10000200fa00000f78001e027800240a9000cc
:103b2000e00f520003003a001e027800140a9000d1
:103b3000060037001e027800240a90000402e90003
:103b40009e0278000402420065027a0004007800b8
:103b50000080fa00000006000800fa003007980014
:103b60000002eb00040f78000002eb00140798003d
:103b700008003700be0290001e02900004024200be
:103b800065027a001e0f42001e0290000402e80047
:103b9000140798001e029000e90f5200f5ff340050
:103ba0009e027800a4002000110009008482d80041
:103bb00000027800240798002e029000040078008c
:103bc0000080fa00000006000200fa00000f7800f2
:103bd000620120008000eb001e007800f7f707006c
:103be0000080fa00000006000400fa00000f7800d0
:103bf000110798001e027800540290009e0278007f
:103c000004024200048242009e029000050a7800ed
:103c10001e02780054029000510020000400780039
:103c200087ff070000027800840278001e027800f7
:103c3000550298000080fa00000006000200fa0019
:103c4000000f78001e02780054029000e00f52002e
:103c500003003a001e02780044029000060037007c
:103c60001e027800540290000402e9009e027800cf
:103c70000402420065027a00040078000080fa0025
:103c8000000006000800fa00300798000002eb0070
:103c90001407980008003700be0290001e02900032
:103ca0000402420065027a001e0f42001e029000cc
:103cb0000402e800140798001e029000e40f52006e
:103cc000f5ff34009e027800540020001100090026
:103cd0008482d80000027800240798002e02900009
:103ce000040078000080fa00000006000000fa00de
:103cf000e1fb0700cd62a80005e1a8000500370040
:103d00000000000003003700000000000100370041
:103d100000000000641680004b22de006142620059
:103d20000404a200614262000482fb00610262009e
:103d30004b22dd0066168000f57f2f0085026300b0
:103d400004827200641688003dfe070000027800bd
:103d5000e00f5200010032005c01070064b920004e
:103d600014427800e04f5200050032000042eb00a0
:103d70000440780096ebb7003101070001fe070010
:103d8000745c8000e00f52005f003a00845c8000a9
:103d9000e00f52002e003a0044b92000144278008f
:103da0000404a200e04f52000500320014c0b3002a
:103db0000440780094ebb700ef00070017f8070005
:103dc00054b92000144278000404a200e04f5200cd
:103dd0000400320014c0b3000440780095ebb70033
:103de0000d01070074b9200014427800e04f520022
:103df00017003200eaf807000042eb0004407800a8
:103e000094ebb7000042eb000440780095ebb7005c
:103e10000042eb000440780097ebb700140020004c
:103e2000845c880014c0b3000440780098ebb700ad
:103e3000755c8000945c8000848f52000400320026
:103e4000945c8000745c88000002eb00845c880055
:103e5000845c8000e10f52002b003a0044b920003e
:103e6000144278000404a200e04f52000400320023
:103e700014c0b3000440780094ebb700d2000700f0
:103e800054b92000144278000404a200e04f52000c
:103e90000400320014c0b3000440780095ebb70072
:103ea000e200070074b9200014427800e04f52008d
:103eb0001500320024f907000042eb0004407800ae
:103ec00094ebb7000042eb000440780095ebb7009c
:103ed0000042eb000440780097ebb70014c0b30039
:103ee0000440780098ebb700755c8000945c80001b
:103ef000848f520002003200945c8000745c880061
:103f00000002eb00845c8800745c8000e10f5200ca
:103f10007bff3a00845c8000e00f52002e003a00e4
:103f200044b92000144278000404a200e04f52007b
:103f30000800320014c0b3000440780094ebb700ce
:103f40008d00070046f7070014c0b3000440780056
:103f500098ebb70054b92000144278000404a20082
:103f6000e04f52000400320014c0b3000440780057
:103f700095ebb700a800070074b920001442780040
:103f8000e04f52001400320085f807000042eb00b9
:103f90000440780094ebb7000042eb000440780046
:103fa00095ebb7000042eb000440780097ebb700b8
:103fb00014002000845c8800755c8000945c8000a4
:103fc000848f520004003200945c8000745c88008e
:103fd0000002eb00845c8800845c8000e10f5200ea
:103fe00049ff3a0044b92000144278000404a200ba
:103ff000e04f52000400320014c0b30004407800c7
:1040000094ebb7007000070054b920001442780008
:104010000404a200e04f52000400320014c0b300b8
:104020000440780095ebb7008000070074b92000c9
:1040300014427800e04f520035ff3200c2f807000a
:104040000042eb000440780094ebb7000042eb0024
:104050000440780095ebb7000042eb000440780084
:1040600097ebb700755c8000945c8000848f5200f1
:1040700002003200945c8000745c88000002eb0057
:10408000845c880023ff37000a00fa00300798009c
:1040900041079800ce029000240020001100090082
:1040a0008402d80000027800440798001400200021
:1040b000140798002a0037001e02900004024200f4
:1040c000be02900004824200140278002407980087
:1040d0001e029000040fe9000c0037001e02780059
:1040e0000402e80004024200be0290008482420002
:1040f0001e027800040242003e03900004024300c6
:1041000014027800840a78001e0fe9001e0278006d
:10411000e00f5200080035001e0278000402420041
:10412000be02900004824200940278002e029000a9
:10413000848f5200e9ff39001e0278000402e80073
:1041400004024200be02900004824200ae029000cf
:10415000050a78001e0290000402e8001407980087
:104160009e0290004e029000848f5200d2ff3500d4
:104170000080fa00000006000000fa000002eb00d8
:10418000841988003063a80030a3a80030c3a800b9
:104190003103a800f4032000141d880014198000c6
:1041a0000420a0000430a0000440a1000450a1009d
:1041b000141988000080fa00000006000000fa00d0
:1041c0000080fa00000006000000fa000002eb0088
:1041d000841988003023a8003043a8003083a80049
:1041e00030e3a8003123a8003143a8003163a800c0
:1041f000f4062000141d8800141980000420a1007a
:104200000430a0000440a0000450a100141988004c
:104210000080fa00000006000000fa0099e3a80000
:1042200021e3a8000080fa00000006000000fa0068
:1042300099e3a80021e3a8000080fa00000006002e
:104240000000fa00809320007cfe07000002780046
:10425000444b88000095200078fe0700000278009b
:10426000544b8800c095200074fe070000027800bf
:10427000644b88004094200070fe07000002780024
:10428000744b8800d45c8000a44b88000002eb00d3
:10429000d45c8800e45c8000b44b88000002eb0032
:1042a000e45c8800209220002bfe070000027800ca
:1042b000844b8800c090200027fe07000002780091
:1042c000944b88000080fa00000006000000fa000d
:1042d000c44b8000945c88000080fa000000060057
:020000040000fa
:1042e000000800008e03000000000000b44500003c
:1042f0000a00000000000000be4500000a000000a7
:1043000000000000a04500001400000000000000b4
:1043100000440000a0010000000000008e0b00001f
:104320001000000002000000010000000001000079
:10433000000000000000000000000000000000007d
:104340009e0b00000c00000000000000aa0b000003
:104350000200000000000000ac0b000002000000a2
:1043600000000000c8450000100000000000000030
:10437000d84500000200000000000000000000001e
:020000040000fa
:10438000f03fb1000180b10006003500ee030900e6
:1043900000000000403fb1000180b100fbff3d0084
:1043a0001000b000203fb00002003500008009007e
:0843b0000000000000000600ff
:020000040000fa
:0200000401f009
:04000000cf0000002d
:020000040000fa
:0200000401f009
:04000400cf00000029
:020000040000fa
:0200000401f009
:0400080007000000ed
:020000040000fa
:0200000401f009
:04000c0002000000ee
:020000040000fa
:0200000401f009
:0400100042000000aa
:020000040000fa
:0200000401f009
:040014005f00000089
:020000040000fa
:0200000401f009
:04001800f7000000ed
:020000040000fa
:0200000401f009
:04001c00deff000003
:00000001FF
