:020000040000fa
:080000000002040000000000f2
:020000040000fa
:100008007a0300007a0300007a0300007a030000f4
:100018007a0300007a0300007a0300007a030000e4
:100028007a030000f84800007a0300003a03000051
:100038007a030000504900007a03000062030000c0
:100048007a0300007a0300007a030000564e00008d
:100058007c4e00007a0300007a0300007a03000057
:100068007a030000f84400007a0300007a030000d5
:100078007a0300007a0300007a0300007a03000084
:100088007a0300007a0300007a0300007a03000074
:100098007a0300007a0300007a0300007a03000064
:1000a8007a0300007a0300007a0300007a03000054
:1000b8007a0300007a0300007a0300007a03000044
:1000c8007a0300007a0300007a0300007a03000034
:1000d8007a0300007a0300007a0300007a03000024
:1000e8007a0300007a0300008c4700007a030000be
:1000f8007a0300007a0300007a0300007a03000004
:100108007a0300007a0300007a0300007a030000f3
:100118007a0300007a0300007a0300007a030000e3
:100128007a0300007a0300007a0300007a030000d3
:100138007a0300007a0300007a0300007a030000c3
:100148007a0300007a0300007a0300007a030000b3
:100158007a0300007a0300007a0300007a030000a3
:100168007a0300007a0300007a0300007a03000093
:100178007a0300007a0300007a0300007a03000083
:100188007a0300007a0300007a0300007a03000073
:100198007a0300007a0300007a0300007a03000063
:1001a8007a0300007a0300007a0300007a03000053
:1001b8007a0300007a0300007a0300007a03000043
:1001c8007a0300007a0300007a0300007a03000033
:1001d8007a0300007a0300007a0300007a03000023
:1001e8007a0300007a0300007a0300007a03000013
:1001f8007a0300007a0300007a0300007a03000003
:100208007a0300007a0300007a0300007a030000f2
:100218007a0300007a0300007a0300007a030000e2
:100228007a0300007a0300007a0300007a030000d2
:100238007a0300007a0300007a0300007a030000c2
:100248007a0300007a0300007a0300007a030000b2
:100258007a0300007a0300007a0300007a030000a2
:020000040000fa
:100400000f8121000eff2d000e018800000000006a
:10041000000020000000e000020032000001200087
:10042000200288000c00070040a3240001002000e7
:100430000f000700000020000000e0000200320072
:1004400000000200000000001e5202000000000038
:100450000040da000000fe00400a20000000e0003a
:1004600002003200002020009001880000000600f9
:10047000a1028800800078000000eb001a0037001d
:10048000e280400054a0b4009101ba00e280400034
:1004900054a0b4009102ba00e280400054a0b4001d
:1004a0000002eb00472bde00f507b200a601880032
:1004b000602ce10008003a000049eb000201e8006e
:1004c000020039003420ec0002f0a0008301e900b2
:1004d000f9ff3e00040037006128e100010032000e
:1004e0000082eb00040007001101ba000200e000e6
:1004f000e3ff3a000000060004d0a300e20f490029
:100500001c003900810278003549ba000201e80078
:10051000020039003420ec0002f0a0008301e90061
:100520000f0032002549ba000201e800020039003c
:100530003420ec0002f0a0008301e9000800320042
:100540000400e0000600320015c9ba000201e8000c
:10055000020039003420ec0002f0a0008301e90021
:100560008180e80054a0b4000300e000e2ff3a00fc
:10057000000006009102ba00055978008301e900e5
:10058000f7ff3200c82ade00055978008301e90030
:10059000f3ff32000400e000f1ff320011d9ba008d
:1005a000eeff37006e4304000000000080430400ab
:1005b000000000003a44040000000000f243040080
:1005c00000000000e044040000000000d4440400e7
:1005d00000000000464404000000000052440400f3
:1005e0000000000066440400000000008444040091
:1005f00000000000c04404000000000002460400a7
:10060000000000001446040000000000ce46040074
:10061000000000008646040000000000744704004b
:10062000000000006847040000000000da460400f3
:1006300000000000e646040000000000fa46040046
:1006400000000000184704000000000054470400a8
:1006500000000000044e040000000000124e0400e0
:1006600000000000204e0400000000002e4e040098
:1006700000000000849fbe000000fa001498800073
:100680000402e80014988800b414850084027800fd
:10069000049b8000848f520003003900049b80007b
:1006a0000402e800049b8800d49d80000402e80056
:1006b000d49d88000068a9000080fa004f02be00a7
:1006c00000400600841f78000000fa00e4998000d2
:1006d0000402e800e4998800f49980000402e8002c
:1006e000f499880000e8a9000080fa004f02780021
:1006f000004006000040da000000fe000a00fa0098
:10070000e20f500022003e00c4b08000e10f520012
:1007100006003200872320004623200024232000e7
:1007200005232000e08f530004003a0087222000b8
:10073000462220002422200005222000000028005c
:100740001500600003003a00800b780007002800c5
:10075000958a7300054020009482620001003a00ef
:1007600014a0a000820278000600370094037800ed
:100770000710b200fdff3200b103fb00070b780049
:100780008502e900e08f5200f8ff3a0008003700c8
:10079000340020001007980032079800040f7800fa
:1007a000210798000e007800ee0a07003e01900035
:1007b000020078000080fa00000006000000fa0045
:1007c000889fbe0080047800d0b08000e00f500009
:1007d00004003a000f0007000084eb00e00f500017
:1007e00008003500d8b08000e08f540005003200ca
:1007f0000900440007000700e00f500001003d0021
:100800000084eb00080078004f04be000080fa006e
:10081000000006000000fa00e00f500004003a005b
:10082000c4612100d4b088000002780006003700bf
:100830000082eb0005812100850f500002003e0080
:10084000d0b088000002eb00040078000080fa00bd
:100850000000060003f0a200889fbe008a9fbe0031
:100860008c1f78001f010700260133006450e1004f
:100870004f0032006420e1005200320003826c001d
:1008800007003b000905d0000306d000820f54008a
:100890000c065d0002003900020032008901780078
:1008a000030678008582550004003d000003fd002a
:1008b0008103fd008502ea008b854200840f7200ef
:1008c00002003b0060001000e08018006011b800da
:1008d0000005eb007a28e1000a00390006007800e4
:1008e000c75ddd00f707b200878075002d00370077
:1008f000828171000a017800610560008180d10069
:100900000080d3008502e900f9ff3b0006044000a7
:100910008784480002003b0060041400e0841c004f
:100920000988a300070032008a817100828171006a
:10093000610164008904d1000884d3008b05e800bc
:10094000170037000978a30013003a000b00e000fd
:10095000130034008b05e9000804440089844c002e
:100960000a4474000978a3000d003a000b00e0006f
:10097000070034008b05e9000804440089844c001a
:1009800001003a000b0020000978a300f7ff3200b5
:100990000001eb0002003700828171000a0178003b
:1009a000950007000cf0a70001f0a000de00370062
:1009b0006420e10002003a00838f6c00de00330007
:1009c0000801be000200be00d70037000001eb00a6
:1009d0007b0137000081eb000e013700889fbe00cd
:1009e0008a9fbe008c1f7800be000700c500330040
:1009f00003866c006450e1002e0032006420e100a8
:100a0000330032006150e1002f0032006120e1002c
:100a10003100320085855500eb07b0000900200049
:100a200008042000050037000804440089844c00b5
:100a30000a0031000603430087834b000001530086
:100a400081815b00f8ff33000203be000800a000b4
:100a50000804440089844c00f6ff3900c639dd00e3
:100a60008301730001003200130020008904d100cb
:100a70000884d3000998a300050032000800a700ed
:100a80000300a0008904d1000884d3008b05e8008e
:100a90008904d1000884d3000001eb000281d20058
:100aa0005500070001f0a1000cf0a70001f0a00024
:100ab0009d0037006420e1009f0032000801be0065
:100ac0000200be00f7ff37006120e1009a0032000b
:100ad0006000b800f3ff37000000200001f8270095
:100ae000f0ff3700140020009c013700f4ff2f00b6
:100af0009a0137000001be00650007000470a700de
:100b000003f0a1006509b100160032000d003500a8
:100b10006828e10006003500f0ff2f00f1ff2700f4
:100b20000300e00013003b00010028000000050066
:100b300000004000818048008502e900fcff3a0087
:100b400008003700f88f420002003c008000eb00f4
:100b5000000005008100d1000080d3008502e8007c
:100b6000fcff3a000300e00002003b0060001000c0
:100b7000e0801800000006000001be0044000700ed
:100b80000470a70003f0a10003f8a30013003a00cb
:100b90006509b10010003200090035006928e10044
:100ba00002003500010028000000050000004000a0
:100bb000818048008502e900fcff3a000000060041
:100bc000f88f4200050035008100d1000080d3007d
:100bd0008502e800fcff3a00000006008000eb0000
:100be000000005004f89de008201780076013700a1
:100bf0006011b80084013700810020006180550039
:100c00000b003d000b00200061fe2f000100e10001
:100c10001d00340082817100610164008904d100eb
:100c20000884d3000000e800faff3a0071002000b9
:100c300061006400030070000200600009003200df
:100c400061044400e0844c000988a50005003200de
:100c50008b05e8006808e10002003a008904d10031
:100c60000884d300f20f20000258e10005003d0087
:100c7000c75ddd00f907b2008980750008007800c3
:100c8000000006000bf827008b007800000005002c
:100c9000c70ade00f107b200f50fb200080032000b
:100ca000e1cf4200020032000170a00024000500e4
:100cb000810f7000010032000408050044000500a7
:100cc000810f700002003a00140005008502e9005f
:100cd0000000400081c04800fcff3b000170a00004
:100ce000240005000004be00e9ff07000003be0069
:100cf0000405be000200be00e5ff0700844f75003a
:100d0000000006000200be006450e100050036004d
:100d10006420e100020036000968a30001003a00e7
:100d20000800be000160a0004f0678004f05be001d
:100d30004f04be0000000600f0ff2f00f1ff270067
:100d4000f9ff3700889fbe008a9fbe008c1f780085
:100d5000e4ff0700ebff330003866c006450e10002
:100d6000240032006420e100270032006150e100dd
:100d7000220032006120e100210032008b85420018
:100d8000eb07b1000134b800003ab8000804420093
:100d900089844a00013ab8000030b80088804000d9
:100da00009014a000400330000004000818048002f
:100db000020149008b05e900c909dd0083017000cb
:100dc0000100320013002000c814de004814dd00ca
:100dd0004709de001200b200c808de000884700077
:100de00085ff070001f0a1000cf0a70001f0a000b2
:100df000cdff37006120e100cfff32000801be00c7
:100e00000200be00f7ff37006150e100fcff3a002e
:100e1000c9ff3700889fbe008a9fbe008c9fbe001e
:100e2000820578000004be0099ff07000800be009c
:100e30006420e1000700390002003a00f1ff2700ba
:100e4000f0ff2f000160a00012022000129e880017
:100e5000550037006120e10003003a000b00a700b5
:100e600001f823005000370001f0a100020021002a
:100e7000936424001bff07000800be000400350037
:100e8000b2fd2000930c24000e0107000004be00f8
:100e90000005eb000b00a6004f0dde0001f0a100e5
:100ea0000004be0032982f0023ea2300a5ff0700ac
:100eb0000001eb0003f023000b00a70003f8230060
:100ec00065fe07000bff07000000a7000a00a20054
:100ed00044ff07000b00e000030032000200200086
:100ee00003f023005bfe070001f0a2000006be0035
:100ef000020020009304240092ff07000801be00b6
:100f000055fe0700809fbe000c00be0022a22a00f2
:100f1000d3a723008bff07004f01be004efe070042
:100f20000004be0001f0a10002002000039823008d
:100f3000ecfe07000800be00190035000001be00ed
:100f400080ff07000006be00b2c52900e36223004f
:100f50007cff070022222b00f3942b003efe0700ab
:100f60000c01be0077ff0700e273280083c0230056
:100f700039fe07000c01be0072ff070042aa2a00da
:100f8000a3e22b0034fe07000c01be006dff07003a
:100f90000801be006bff07000801be002efe07001f
:100fa0000a00a70001f0a2004f06be004f05be00d8
:100fb0004f04be00000006000001eb0095ff370063
:100fc000889fbe008a9fbe008c9fbe0002067800ec
:100fd00001f0a7000cf0a0000004be002cff0700e9
:100fe0000800be006420e1000700390002003a005a
:100ff000f1ff2700f0ff2f000160a0001202200087
:10100000129e88005100370009f0a1000800be00c0
:101010000200200003f82300b4fe0700f4ff3c00a8
:101020000800be000200200003982300adfe070068
:101030000800be00300035000200200003f023004d
:10104000aafe070005003c000800be000801be0023
:101050003cff07000005be000e0037000c10a20088
:101060000000200001f823000801be00f9fd070080
:101070000200200003f0230032ff07000005be003d
:10108000e10007000200200003002c002dff0700f4
:101090000004be000a00be00b2d02800130b2c00d2
:1010a000edfd07000a01be0026ff0700020f250024
:1010b000330b2400e8fd0700809fbe000a00be003d
:1010c0005206220013f02b001eff0700b26621001b
:1010d000f3f62300e0fd07000a01be0019ff070038
:1010e0004f01be003dfe07000801be0015ff0700ce
:1010f0000801be00d8fd07000c00a700070037005c
:10110000b2fd200093fc23000c10a700d2fd0700c5
:101110000cf0a70001f0a2000c0037000cf0a700b3
:101120000200370001f0a20004003700b2fd2000e9
:10113000930424000c10a60003003700b2fd200029
:1011400093fc23000c10a700c3fd07004f06be0050
:101150004f05be004f04be0000000600889fbe0081
:101160008a9fbe00841f7800defe07004f007800d3
:1011700011003300f0ff2f00838f6c0006003b004e
:10118000040565000a00a7000800370009f0a60062
:101190001000200008003700820f5400838f5c008d
:1011a000030039001000200001003e000000200074
:1011b00009f0a7000000ea004f05be004f04be0082
:1011c0000000e00000000600881f7800030478009b
:1011d0000300e00007003d0060001000e080180000
:1011e00060011900e081190002003b0001f02d00b0
:1011f000030037000400070008f0a70001f0a0007a
:101200004f04780000000600889fbe008a9fbe0041
:101210000082700004027100048271002600320016
:101220000004be000200be006011b8006b0920007f
:10123000950220000182cf000a0039000541b1006b
:101240000082cf00070039000541b1000982cf00bc
:10125000040039000541b1000882cf0001003900c7
:101260000541b10005425200120032000a003b0065
:1012700082817100610164008100d1000080d3008f
:101280008984d3000884d3008b05e8000442e80079
:10129000f7ff3a00070037000804440089844c0037
:1012a00000004800818048008b05e9000442e90005
:1012b000f9ff3a0050fe07004f05be004f04be0084
:1012c000000006000400200000003700889fbe00d8
:1012d0008a9fbe008c1f78004f26dd0081fe07002c
:1012e00088fe33006120e100430032006250e100db
:1012f00041003e003e0039006420e1003c00320025
:10130000058255000f003b000402e80038003a0057
:10131000800f5300818f5b00350034000800be0051
:1013200003f0a10001f0a60003f0a0000cf0a7005c
:1013300049fd07007cfe37000603430087834b000e
:101340000c4646000005530081855b000200330017
:101350000a03be000c00a0000402e900f6ff3b00f7
:10136000850578000602430087824b0004003a009e
:101370006000b80009f0a70001f0a0006afe370085
:101380000002520081825a000704e000040033008a
:101390000603430087834b008b05e900faff370003
:1013a000090578000604be000203be006011b80003
:1013b00011fe0700e00f5200e08f5a0007003500d1
:1013c00002003c000c08a300040032000601be002d
:1013d00003f0a0000cf0a7001ffd07000a856800bd
:1013e00001f0a1000af0a70001f0a0004efe3700b6
:1013f0000800be004cfe3700100220000cf0a600d2
:10140000109e88004cfe3700889fbe008a9fbe0059
:101410008c1f78000004be001dfe07000478a300a6
:1014200026003a006120e1002500320009f8a300ff
:1014300025003a006420e10021003200f507b100e8
:101440000508a3000200320000004000818048002f
:101450006044b8000310200002002000000040009b
:10146000818048000805440089854c000a05410038
:101470008b8549000a0550008b8558000300330016
:101480000a00be0002047400838474008301d1004a
:101490000281d300830f7100f0ff3a008904d1006c
:1014a0000884d3006001490082017800c1adde00ec
:1014b000fb07b000d0fd07001bfe37000960a0004d
:1014c0000800be0018fe370012022000129e88009d
:1014d000f0ff2f00f1ff270013fe3700046021000a
:1014e0000400fa0005b08000889fbe008a9fbe00fd
:1014f0008c9fbe00e08f52000b003a00240298003f
:10150000e402420064b0880005b0880075b088002d
:10151000a44290000504a00025429800e4429000f7
:101520000504a0006542980067044000c4612100e2
:10153000250020004244de00098121004244dd00f4
:10154000848454003c812100110009008504d800e6
:10155000040656008502440062b080008582420085
:10156000000f7800150798000003eb00e405440025
:101570000806460002003700160020000d01780022
:101580002242900061026200020032000a0037002d
:1015900015097800920278002542900061026200ed
:1015a000fbff320008024100848f52000200390024
:1015b000e00f54003e003d00920678000d00a100af
:1015c000828f5600edff3e00e10f5300eaff3a0024
:1015d0001e027800840f540002003600890f540068
:1015e0000f003900614ab900b0ff2f000100200050
:1015f0006143b8000402500085825800840f5300f4
:10160000858f5b00020035000b0578000500370070
:10161000110009000986d8008985b900010037004a
:101620001e0590000a00780064fc0700e10f4000ee
:1016300005003a000b0578000b0078005ffc0700fe
:10164000e10f40002b00320074b08000000a7800e7
:1016500074b0800064034200a4429000860f5000e2
:10166000020032000504a000010037000504a100bb
:101670002542980064055500046021000a054000d9
:101680000a0878007ab08800040d780075b08000f0
:101690000003eb00254290000404a000a44298003f
:1016a000204290000404a10024409800b3ff3700ba
:1016b00064b08800848f5200070036001403be0017
:1016c0008042eb0046b0880057b08800120a7800cc
:1016d00064b08000254298002242900067b08000ec
:1016e0000404a00007097800244198006400410028
:1016f000010037000000eb004f06be004f05be00a2
:101700004f04be000080fa00000006000000fa004e
:10171000e00f5000080032006400500064b0800008
:10172000840f50000100310060b08800204290001a
:101730000404a100244098000080fa000000060084
:101740000000fa00889fbe00000478008a9fbe0057
:1017500081047800e08f540005003a00e00f540047
:101760003200320008007800e8ff07003000370040
:10177000e00f540004003a000900780057ff07000a
:10178000800478002a003700640254009405780031
:1017900068fa9700610262000200320008007800d7
:1017a000daff0700090078004cff0700800478008a
:1017b000e08f54001e003200888f54001b0032005e
:1017c00069bd97008885550009055500c2ddde001a
:1017d00042d5de000a0178008b0f5500010036006b
:1017e0000b0178004211dd008800780009007800c4
:1017f00014000700888f54000d0031004255dd00b1
:101800000a854400880f5500090036000804550079
:1018100044b0800055b0800042c4de004244dd0088
:1018200008844400048cbe0001003700880478005e
:101830004f05be00090078004f04be000080fa008a
:10184000000006000000fa000002780002003700e5
:10185000315a78000201e900e00f5100fcff3a0024
:101860000080fa00000006000000fa000002780084
:1018700002003700015a78000201e900e00f510030
:10188000fcff3a000080fa0000000600005d210025
:101890000000fa0068015700ceb89700b3000700b7
:1018a0000080fa0000000600d4c6b3000800fa0069
:1018b000889fbe000084fb008a9fbe00844f5000ba
:1018c0002c003600494721004b062000110009007a
:1018d0000b84d800720040004300dd00008044000b
:1018e000810578006022b8000600200007fe230072
:1018f000aa0020005001be004000be0060080700a2
:101900000002be000203be00110009008a85d80053
:10191000049fbe000697be0080057800e98545005b
:10192000c35ddd008b8544003e00be002e01be007d
:101930003b02be002b03be00510807000002be00a0
:101940000203be00110009000a84d800049fbe00f3
:101950000697be00010478004344dd0088844400fb
:101960003e00be002e01be003902be002903be00ab
:101970001d003700ea4f500013003600aa00200077
:1019800049472100110009000a84d80001057800a8
:10199000690440004355dd004344dd0008844400f1
:1019a0008a8444006022b8000600200007fe23005d
:1019b0003800be002801be00310807003902be0011
:1019c0002903be0008003700444721004344dd00de
:1019d000080442006022b8000600200007fe230031
:1019e0003800be002801be00250807004f05be00d4
:1019f0004f04be000080fa0000000600d4c6b30009
:101a00000800fa00889fbe008a9fbe00e04f500089
:101a100022003d000040ea000004fb00844f50001b
:101a20000a00340044062000a9002000110009002b
:101a30000404d8004a472100110009008900d80099
:101a4000e9004000c308dd0020003700ea4f5000e5
:101a50000f003400a4002000110009000404d80085
:101a600044472100690040004300dd0000004200bf
:101a7000430cdd00080242005001be004000be00e1
:101a80005403be004402be00fd07070033003700c8
:101a90004344dd00444721002d0037000004fb00d3
:101aa000844f50001f00340044062000a90020008d
:101ab000110009000404d8004a3c2100110009006b
:101ac0008900d800e9004000c308dd00810045001e
:101ad0008b0920008a8545003102be002103be002b
:101ae0003b00be002b01be00e50707000002be0060
:101af0000203be00110009000904d800049fbe00c3
:101b00000697be00010478004344dd000805450047
:101b10003e00be002e01be003a02be002a03be00f7
:101b2000d9ff3700ea4f500007003400a40020001e
:101b3000110009000404d800443c21006900400061
:101b40004300dd00c9ff37004344dd00443c210071
:101b5000080442003800be002801be004f05be0048
:101b60004f04be000080fa00000006005400fa0096
:101b7000889fbe00610f98008a9fbe007217980070
:101b80008c9fbe00000678008006eb006000b80065
:101b90006011b800700f9800011798001217980094
:101ba000231798005e053700ee08900054c2b3007a
:101bb0008100e800610f9800844f500006003a0051
:101bc000810378008002eb0000c3b30001c2b300c0
:101bd000b2c2b3000e0037003c0290000404b20011
:101be000040032001c027800004a7800040ee8006d
:101bf000050037000000fb008c007800530507004b
:101c0000e10f4000460532008d06e800440537002c
:101c100007027800d3c2b30037437800834f5300e4
:101c20000900320005003c00814f530008003200db
:101c3000824f53000c003a0007003700804f5300da
:101c400009003a00060037000530a000f0ff370019
:101c50000500a000eeff37000510a000ecff3700e4
:101c60000520a000eaff3700e28362000100320095
:101c70000500a100e8836200010032000520a100f8
:101c80008603fb000703b100e98f53000d003e00ff
:101c9000040378000000eb00b603fb00ea02b90081
:101ca0000703b100048043009603fb00060278009e
:101cb0000703b100e98f5300f7ff360000279800b3
:101cc0000a0037008003eb0007279800a7c2b30083
:101cd000874f530005003a007e1090000402e80090
:101ce000c00078007017980001279800e6c2b30082
:101cf000944f130017003a0005e0a000644353001e
:101d0000d44f130003003200040378000000eb00fe
:101d100009003700fe1190000402e8004303780038
:101d200073179800461f9800c0c6b3000d00370017
:101d3000ea02b9000480430006027800b603fb0003
:101d40000703b100e98f5300f9ff3600401f9800e8
:101d5000f5ff37008003eb0005c0a000471f980087
:101d6000f1ff370034437800640f9800804f530030
:101d700016003200c4c6b300844f530009003c0073
:101d800069425200844f5300910032006342420086
:101d9000844f530013003200e04f5300e50432003b
:101da000ab00370054c7b300844f5300ac0032007f
:101db00063424200844f53000d00320065425200de
:101dc000844f5300a2003a000c003700f0836200f9
:101dd0000601200001003200060028008502730081
:101de000e0ff3700064f780005a0a0009e003700f6
:101df000064f78000570a0009b0037007e11900010
:101e0000064f7800420278007217980004047800a8
:101e1000e00f520001003a00885e2100880378003c
:101e20000002eb00010037000402e80004834300d5
:101e30008041eb0096cf1100fbff3a00840478004c
:101e40004e1a9000e00f520003003200890f52003a
:101e500001003100840478000002eb008e23900022
:101e6000898f53000100360009825300e882620026
:101e70004527980035003a00481f9800591f9800e0
:101e80006a1f98007b1f980005c2b3008404780085
:101e9000100037003c0290000404b200040032003d
:101ea0001c027800054a7800040ee800070037009d
:101eb000152f98008c00780000022000a304070072
:101ec0009e2a9000e10f4000010032008d06e800dc
:101ed0008904e900e08f5400eeff3a004e1c9000a8
:101ee000de1c90006e1d9000fe1d90000082eb0035
:101ef00016003700bc0290000504b2000900320051
:101f0000880278009c03780035437800864b78007f
:101f100005047800070ee800e04f53000a003a007d
:101f20000a003700880278008c0078003500fb003a
:101f3000042f980005047800840407000e2a9000fe
:101f4000e10f4000010032008d06e80089027800b0
:101f50008504e900e08f5200e6ff3a00ce209000b1
:101f6000e08f50006e0432004827980059279800ef
:101f70006a2798007b27980005c2b3008404780084
:101f8000100037003c0290000404b200040032004c
:101f90001c027800054a7800040ee80007003700ac
:101fa000152f98008c0078000002200067040700bd
:101fb0009e2a9000e10f4000010032008d06e800eb
:101fc0008904e900e08f5400eeff3a005004370026
:101fd000fe10900070836200410278007117980033
:101fe00004007800cf80de000101780082017800d3
:101ff000402798005127980062279800732798007f
:102000004800de00480add0000007200004f780042
:10201000e00f530009003200e04f5000070032008b
:10202000e14f4000050032000ecb900010479800b1
:102030002647980029002000030037008ecb90002f
:1020400019002000174798000e04e8007cff3700b5
:10205000064f78000e0478001900200078ff370042
:10206000064f7800050cb300452798000470200047
:102070004e20900004026000630232000400210040
:10208000040260000200320061002000411f98003d
:102090004e21900070026100050032007e10900019
:1020a0004003be004002be007017980006003700d3
:1020b0007e1190004200be0072179800d8050700fc
:1020c0000002be000203be00041f9800151f980006
:1020d000261f9800371f98006022b8006033b800b0
:1020e0000e1890009e1890002e199000be199000b6
:1020f0001d050700e00f50000c003d000e18900079
:102100009e1890002e199000be19900003f0a200b6
:10211000001f9800111f9800221f9800331f98007d
:10212000ce2090003100b300412798000002eb0060
:102130000e1890009e1890002e199000be19900065
:10214000240798006022b8006033b8006a050700d1
:10215000e00f500033003200640247000e18900078
:102160009e1890002e199000be19900027060700b7
:102170002e009000a40020000000e900e300b90058
:10218000110009000400d80020079800e00f50005b
:1021900002003d000000e900200798002e04900096
:1021a0000840ea0015fe07000e1a90009e1a9000e3
:1021b0002e1b9000be1b9000310607000002be00df
:1021c0000203be00740f98000517980016179800b8
:1021d000271798006022b8000600200007ff2300a0
:1021e000e1040700e00f500002003d000804e90090
:1021f0000b0037006022b8000600200047022400d0
:102200007e0890008e1090001e119000ae1190007c
:10221000da040700e00f5000020035000804e8006f
:1022200028079800ce1a9000f88f52000f003c004b
:10223000054078009cfd07000002be000203be00be
:102240000e1890009e1890002e199000be19900054
:10225000480407000002be000203be00041f9800ed
:10226000151f9800261f9800371f98002e04900015
:10227000e90f540015003c006022b8006033b8003c
:102280000e1890009e1890002e199000be19900014
:1022900019050700e00f5000320032000e189000c0
:1022a0009e1890002e199000be1990007b05070023
:1022b000e00f5000e08f5800e00f5900e08f590008
:1022c00028003a00e10f54002600340004002000ea
:1022d00005002e00b6e02200170124007e089000c1
:1022e0008e1090001e119000ae1190009e04070009
:1022f000e00f500002003d0073045400010037005d
:1023000072045400280798004e409000bbfd07005f
:102310000002be000203be000e1890009e1890003e
:102320002e199000be199000740f980005179800a0
:1023300016179800271798009504070057050700ff
:102340000205be000004be006000b8006011b800c5
:10235000001f9800111f9800221f9800331f98003b
:10236000170037000e1890009e1890002e1990004c
:10237000be199000490507000205be000004be001a
:10238000770507000002be000203be000e18900091
:102390009e1890002e199000be1990002d0607007f
:1023a0000002be000203be00041f9800151f980023
:1023b000261f9800371f98000002eb0024079800a2
:1023c000c152210010c0b300080037003102be0026
:1023d0003103be000440e10005c8e10006d0e10081
:1023e00007d8e100030039000040e800f44f500036
:1023f000f6ff3a008e2290002e0290004e1b9000b5
:1024000004825200004f7800860252000002fb0056
:102410000482520004279800e00f530002003200ab
:102420000402e90004279800ce2390006382630031
:10243000030032000e2090000000e9000027980001
:10244000ce2090006482600045003200628260000d
:10245000e1826000e00f5200110032003c02900067
:102460000404b200080032001c037800b4c2b300b8
:10247000e08f52000100320004c2e800044b7800f3
:10248000060ee80015003700b0022000e08f520071
:10249000010032000080e8008c0078000c0037005a
:1024a000e08f5200200032003c0290000404b20091
:1024b000050032009c02780004c2b300844a780010
:1024c000050ee800050037008c00780000022000af
:1024d0001e030700e10f4000130032008d06e800e4
:1024e000110037003c0290000404b20004003200e6
:1024f0001c027800054a7800040ee8000700370047
:10250000152f98008c007800000320000f030700af
:102510009e2a9000e10f4000010032008d06e80085
:102520008904e90006003700381798004917980019
:102530005a1798006b1798008e24900005c3b300bb
:10254000e08f5400e7ff3c00092798003e149000fc
:10255000ce1490005e159000ee15900070003700cc
:10256000ce209000688260001f003a001100370002
:102570003c0290000404b200040032001c02780007
:10258000054a7800040ee80007003700152f980070
:102590008c00780000022000ec0207009e2a9000c8
:1025a000e10f4000010032008d06e8008904e900d7
:1025b0000600370038179800491798005a179800f6
:1025c0006b1798008e24900005c2b300e08f540072
:1025d000e7ff3c00092798003e149000ce149000bd
:1025e0005e159000ee159000ce2090006282600093
:1025f000e1826000e00f5200110032003c029000c6
:102600000404b200080032001c037800b4c2b30016
:10261000e08f52000100320004c2e800044b780051
:10262000060ee8003d003700b0022000e08f5200a7
:10263000010032000080e8008c0078003400370090
:10264000e08f5200360032003c0290000404b200d9
:10265000050032009c02780004c2b300844a78006e
:10266000050ee8002d0037008c00780000022000e5
:10267000270037003c0290008502fb000404b200f2
:102680001300320043522100c32add00858241003d
:102690001c0178005503be004502be0032179800a9
:1026a0000800be000a01be0021060700a4002000a9
:1026b000050020006033b800260607003e12900097
:1026c00005c3b300054a4000040ee80013003700bc
:1026d00046522100c32add00850243000800be00e7
:1026e0000a01be005503be004502be0010060700e9
:1026f000a4002000050020006033b8001506070084
:102700008c007800040320000002420004007800de
:102710008e020700e10f4000010032008d06e80044
:102720001e4278008442e900054f7800e04f5200d5
:10273000d0ff3a00110037003c0290000404b200c0
:10274000040032001c027800084a7800040ee800f9
:10275000050037008c007800000320007b02070092
:10276000e10f4000010032008d06e8002e029000cb
:102770000402e900240798000100370008c3b300f1
:102780002e029000e00f5200ebff3c00ce1b9000a9
:10279000f28f53000300340024c1b300044f7800cb
:1027a000020037000e789000004f78009e427800bb
:1027b000ce1890000502fb000482500034179800e8
:1027c000e0cf52000e0032003c0290000404b20040
:1027d000050032001c027800e5c2b300054a78000b
:1027e000040ee800050037008c007800e0022000ad
:1027f00056020700e10f4000010032008d06e8009c
:102800001e4078007dfc07000002be000203be00ef
:102810000e1890009e1890002e199000be1990007e
:10282000970407001d040700340037003c029000a5
:102830008502fb000404b200130032004352210061
:10284000c32add00858241001c0178005503be00cb
:102850004502be00421f98000800be000a01be00eb
:10286000b3050700a4002000050020006033b80075
:10287000b80507004e1a900005c3b300054a400092
:10288000040ee8001300370046522100c32add0081
:10289000850243000800be000a01be005503be00c9
:1028a0004502be00a2050700a4002000050020008c
:1028b0006033b800a70507008c00780004032000ef
:1028c000000242000400780020020700e10f4000ef
:1028d000010032008d06e800475221001e02fb0075
:1028e0004322dd00048243000800be000a01be004e
:1028f0005403be004402be00960507001e42780045
:102900000205be000004be008442e900054f7800c5
:10291000e04f5200c5ff3a0011003700bc029000a2
:102920000504b200040032009c027800844a78005a
:10293000050ee80007003700042f98008c0078008f
:1029400000032000010207000e2a9000e10f400062
:10295000010032008d06e8008904e9000600370016
:10296000be149000401f9800511f9800621f9800ed
:10297000731f980004c3b300e08f5400e7ff3a00d0
:10298000ce2090004e1c9000de1c90006e1d90002a
:10299000fe1d9000e8826000e10132000e219000ef
:1029a000e00f5100de0134004827980059279800b5
:1029b0006a2798007b2798008e24900004c2b300f9
:1029c000bc0290000504b200040032009c027800b2
:1029d000844a7800050ee80007003700042f9800ad
:1029e0008c00780000022000d80107000e2a900019
:1029f000e10f4000010032008d06e8008904e90083
:102a0000efff3a00c2013700ce209000e08f500067
:102a100005003d007e1190004205be004204be004c
:102a20007217980015003700ce219000f0826100e7
:102a30000c0032007e1090004003be006407980036
:102a40004607980057079800740798007017980079
:102a50004e049000de0490006e059000fe0590008c
:102a6000060037007e11900042047800721798002b
:102a7000090020000a0020000b002000ce19900061
:102a8000e08f510009003a0014002000441f980014
:102a9000e00f5400e08f5c00e00f5d00e08f5d0010
:102aa000020032008002eb00451f98004e23900088
:102ab00004082000060cb200560f9800840f530043
:102ac00010003200040c2000840f530021003a0053
:102ad000c152210010c0b3003102be003103be005c
:102ae0000440e10005c8e10006d0e10007d8e1009c
:102af000170039000040e800f44f5000f6ff3a009c
:102b00001300370010c0b3000401200005002000ae
:102b10006033b8000440e10005c8e10006d0e100e0
:102b200007d8e1000a003900410020000402d0006b
:102b30008582d2000683d2008783d2008100e9001b
:102b4000faff3a000040e800f04f5000f1ff3a0071
:102b5000004f78001e02fb004e199000820f5200b9
:102b600002003d00024f780004003700ce199000ab
:102b7000848f510001003d00441f98000e229000f8
:102b8000e00f520006003200ce2290006382620005
:102b9000030032000e2390000603e9000627980088
:102ba00004002400ce239000048263000900320058
:102bb0000e209000ce189000810f500003003400ca
:102bc0000100500000279800020037000001eb00d0
:102bd000022798008001eb001e02fb00031f9800f3
:102be0008e229000848f5200020034000482520032
:102bf000041f98004e2390006402630045003200d9
:102c0000e202630061026300e08f520011003200b3
:102c1000bc0290000504b200080032009c0278005b
:102c2000b6c2b300e00f52000100320006c3e80054
:102c3000864a7800050ee80015003700b002200033
:102c4000e00f5200010032000080e8008c007800a4
:102c50000c003700e00f52000e0032003c029000e2
:102c60000404b200050032001c02780005c2b30063
:102c7000054a7800040ee800050037008c00780053
:102c80000002200031010700e10f40000100320086
:102c90008d06e8008e1b9000e08f53006500320027
:102ca00008279800192798002a2798003b279800a2
:102cb00005c3b300870478003c0290000404b2000e
:102cc000040032001c027800054a7800040ee80077
:102cd00007003700152f98008c00780000032000b3
:102ce0001a0107009e2a9000e10f40000100320007
:102cf0008d06e8008904e900efff3a00091f9800fb
:102d00000e2490009e2490002e259000be25900059
:102d1000480037008e189000e08f50001f003200ee
:102d20004e219000680261001c003a0008279800bc
:102d3000192798002a2798003b2798008e1c90009e
:102d400005c2b3003c0290000404b200040032004b
:102d50001c027800054a7800040ee80007003700de
:102d6000152f98008c00780000022000f700070063
:102d70009e2a9000e10f4000010032008d06e8001d
:102d80008904e900efff3a00091f98000e24900023
:102d90009e2490002e259000be259000ce2090000d
:102da000e282600061826000e08f52001100320018
:102db000bc0290000504b200080032009c027800ba
:102dc000b6c2b300e00f52000100320006c3e800b3
:102dd000864a7800050ee80015003700b002200092
:102de000e00f5200010032000080e8008c00780003
:102df0000c003700e00f52000e0032003c02900041
:102e00000404b200050032001c02780005c2b300c1
:102e1000054a7800040ee800050037008c007800b1
:102e200000022000c9000700e10f4000010032004d
:102e30008d06e8004e199000445221008202e900fc
:102e400008279800192798002a2798003b27980000
:102e5000c229dd00c32add00030f9800048242006e
:102e6000341798004e2290007002620034079800d8
:102e700083003700ce189000040820008100e9008c
:102e80005e099000411f9800840f510056003200e7
:102e9000040c2000840f510063003a00ce21900002
:102ea000e08f51001f003d003e1290000e20900068
:102eb0009e2090002e219000be2190003404be0080
:102ec0002405be000802be000a03be001804070065
:102ed0000802be000a03be00004f78000000fb009d
:102ee000cf80de00010178008201780081040700b4
:102ef0000e2290009e2290002e239000be23900070
:102f00000002520081825a0002035b0083835b004f
:102f1000042798001527980026279800372798003f
:102f20002e003700be029000e08f520022003200d7
:102f30003e1390000e2290009e2290003604be00a8
:102f40002605be000400be00042f9800152f98002f
:102f50000801be00410307000801be00004f7800d1
:102f60000000fb00cf80de004c0307000e2a90001b
:102f70009e2a90000001520081815a000002eb005d
:102f8000120f9800230f9800440f98008001eb0067
:102f9000330f98001e089000ae0890003e09900084
:102fa000ce0990000027980011279800222798004a
:102fb0003327980009003700be1090000e219000c2
:102fc00011027800110009000481d800a40020003b
:102fd000110009000480d800014f780003c3b3003a
:102fe0001ecf4100100037000e2290009e2290005c
:102ff0002e239000be2390000e089000f15e210069
:103000000000e900050033008703d1000683d300e8
:103010008582d3000482d300f9ff37006f0262007b
:1030200001024200144f78003c0290000404b200f8
:10303000070032009c0278001e427800844a780023
:10304000050ee800e04f520006003a000600370087
:103050001e00fb008c0078003c000700e10f4000e0
:10306000010032008d06e8000e099000be119000ac
:1030700064015100e8815100020f98003317980055
:103080004e1a9000e00f52007aff3a004e23900053
:103090000e2490009e2490002e259000be259000c6
:1030a000e80263001e0032008e1b9000e08f530088
:1030b0001b00340048279800592798006a27980079
:1030c0007b27980004c2b30087047800bc029000fc
:1030d0000504b200040032009c027800844a7800a3
:1030e000050ee80007003700042f98008c007800d8
:1030f00000022000150007000e2a9000e10f40009a
:10310000010032008d06e8008904e900efff3a0073
:103110004e249000de2490006e259000fe25900045
:10312000ee08900011407800004f7800e04f50000a
:103130009dfa3a000d0078004f06be004f05be0014
:103140004f04be000080fa00000006000000fa00f4
:10315000889fbe00010478008084eb003802900054
:10316000e20262003b003200040378009802900003
:103170000620b20002003a00e08f520035003a000b
:103180000490a0008004780034049800f90fb20085
:10319000e08f520002003a00a8029000050c78006f
:1031a000ea8f540005003a000408b20003003a0018
:1031b00088007800d0002000e4ff0700180290008b
:1031c000d8029000850f52000b0032000402e80084
:1031d00015c0b3001404980018027800094a78005a
:1031e000040ce80024612100054a7800ea8f5400ad
:1031f00018003a0005003700094078008800780080
:103200001800070080047800120037003802900090
:103210000410b2000f00320018019000a8009000c6
:103220004800900035f5070018029000840f500008
:1032300004003200380290000403b3003404980004
:103240008084eb000002eb00140498002802900038
:10325000040c7800090078004f04be000080fa00da
:10326000000006000200fa00889fbe0001047800fa
:10327000004f780038029000840278000504b20004
:10328000020032000000fb0033003700e20262005f
:1032900005003a000403b3001504980034049800b4
:1032a0000080eb002c003700d8049000e08f540021
:1032b00006003a00120020008e00780048009000be
:1032c0000ef507001904980022003700a8029000ac
:1032d000e08f520008003a00656121000430a00030
:1032e00025049800050c780034049800250020007f
:1032f000550498001504980018019000a80090004b
:1033000048009000fdf40700280290008082eb0046
:10331000150498001e4a7800040ce800a4c0b3000d
:103320009e4f12000b003a00380290000410b200c9
:103330000800320018019000a8009000480090009a
:10334000eef407000002eb0014049800280290003d
:10335000040c78001e00fb004f04be000080fa0041
:10336000000006000000fa0000c0da000080fa0049
:10337000000006002800fa00889fbe008a9fbe0059
:103380008c9fbe0007067800878669000c003b0012
:10339000030478008704780008f0a10009f0a10078
:1033a000840f5000858f5800860f5900890f5c00ec
:1033b000030033000cf0a20001003a000cf0a10061
:1033c000fe0007006400e1005f0032007801470062
:1033d0006408e100610032006c0147007485570009
:1033e0003200be001201be003a04be001a05be0043
:1033f0001e039000be0a90008503530006003d00a6
:103400000004fd008104fd000205fd008305fd00b0
:103410008703ea00050378000df8a30004003200da
:1034200060041400e0841c0060051d00e0851d00a0
:103430006022b8007d0320000d38e1008006eb001b
:103440000b0039004433dd00f300b2008301730048
:1034500039003700848272000d027800e1066400b2
:103460008b85d1000a85d3008984d3000884d300da
:103470008703e900f7ff3b0008004000898048000f
:103480000a0149008b81490004003b0060001000e4
:10349000e080180060011900e08119000358a300c2
:1034a000090032008d827200848272006102600025
:1034b0008301d1000281d3008180d3000080d3003a
:1034c0000603e8001b0037000348a30017003a007a
:1034d0000600e000170034000603e9000d00a30019
:1034e00000004800818048000201490083814900b2
:1034f0000348a3000f003a000600e0000900340072
:103500000603e900000040008180480002014900f4
:103510008381490001003a000003eb000348a30047
:10352000f5ff32006022b80002003700848272008a
:10353000618266007500070003f0a1000cf0a7008f
:1035400003f0a000b1003700640147006408e10007
:1035500002003a000df8a300a9003a003200be00b4
:103560001201be00a90037008f1fd1000c03070015
:103570008f87e9000000e00000000600809feb005c
:10358000070307008f87e9000000e0000000060045
:103590002800fa00889fbe008a9fbe008c9fbe0054
:1035a00003866b00850007006400e10044003200e0
:1035b0006408e1004a0032006100e1004600320088
:1035c0006108e10049003200ec0647006000b800e5
:1035d0003d02be003d03be00f48657006011b800f6
:1035e0003d04be003d05be007d0320000b003700fa
:1035f0000000a0008d06e900130032000402420022
:1036000085824a0006034b0087834b000000400080
:10361000818048000201490083814900080252006c
:1036200089825a000a035b008b835b00f0ff3b003a
:103630000802420089824a000a034b008b834b0038
:103640008d06e900edff3a008482720086827200e6
:10365000f707b200878272000100320015002000d7
:103660001e0490003e0b900006035400e63fb0009d
:103670000368a300070032000000a7000500a000b7
:103680008301d1000281d3008180d3000080d30068
:103690000603e8008301d1000281d3008180d300ba
:1036a0000080d3000002eb000482d2001700070064
:1036b00003f0a1000cf0a70003f0a00053003700b6
:1036c000640247006408e1004d0032003400be008f
:1036d0003401be00f6ff37006108e1004800320007
:1036e0006011b8006000b800f1ff370003ff270049
:1036f00002002000fbff3700801feb00a80207003c
:103700008f87e9000000e00000000600180020009c
:1037100057002000080453000d003d000600200063
:1037200097fc2f000740e1001e00340084827200e5
:10373000610260008301d1000281d3008180d30047
:103740000080d3000804e800f8ff3a00470020009a
:103750006104600005047400040464000d0032007c
:1037600061004000e080480060014900e0814900bc
:1037700003b8a500070032000603e8006538e10041
:1037800004003a008301d1000281d3008180d3007c
:103790000080d300f87f20000830e10003003500ee
:1037a000080378006000b8006011b8004433dd0001
:1037b000f300b200830173000000060068044700b4
:1037c0000294be000094be00fc0447008694be0034
:1037d0008494be0009007800ba020700080078004f
:1037e000b802070099007800814f70000b003b0081
:1037f0000800be00930207004f00b100030037002d
:10380000f3ff2700f2ff2f006110b9004f06be0042
:103810004f05be004f04be000080fa000000060005
:10382000810378001af507000001be006000b800af
:103830000478a30013003a006220e10015003e0066
:103840000d0039008301d1000281d3008180d300b3
:103850008301d1000281d3008180d3008301d10094
:103860000281d3008180d3000538b000c42add0076
:10387000f300b2008381720007f0a70003f0a000fc
:1038800000000600f3ff2700f2ff2f006110b900cf
:10389000fbff370003ff2700f7ff37001400fa0093
:1038a000889fbe008a9fbe008c9fbe000004be00a1
:1038b0000205be00680047000a90be000890be00e6
:1038c000800207000070a7000bf0a1000bf8a30016
:1038d00020003a009e0990000e099000fe00900022
:1038e0006e0090009e0290003443200084825200bb
:1038f000c6ff32000a003c00b4fc2f000428e1009f
:10390000140034008301d1000281d3008180d300f0
:103910000080d3008502e800faff3a00bbff3700c1
:10392000b40020000428e10007003c000000400033
:103930008180480002014900838149008502e90035
:10394000faff3a00b1ff3700030028000200200010
:10395000010037006011b8006000b800abff37000d
:10396000889fbe0000827000040271000482710012
:103970002400320036432000c50020008383cf009e
:103980000a0039000541b1008283cf0007003900e9
:103990000541b1008183cf00040039000541b10029
:1039a0008083cf00010039000541b10085c3530079
:1039b0006022b800120032000a003b0084827200cc
:1039c000610260008301d1000281d3008180d300b5
:1039d0000080d3000603e8008743e800f7ff3a00c1
:1039e00007003700000040008180480002014900c4
:1039f000838149000603e9008743e900f9ff3a00a3
:103a000042ff07004f04be00000006001400fa0049
:103a1000889fbe008a9fbe008c9fbe00040678006f
:103a20000004be000205be00680047000a90be0008
:103a30000890be00230207006200e1000800be00fb
:103a40000a01be00040020000b003a001e02900094
:103a5000e43fb1006e009000fe0090000e0990005f
:103a60009e099000f300b20005fe230085817100dd
:103a70000bf0a70003f0a000040e780063ff3700ee
:103a80002800fa00889fbe008a9fbe008c9fbe005f
:103a900003866b0049ff07000028a30064003a007a
:103aa0000128a30067003a000008a30062003a0062
:103ab0000108a30065003a001e009000be089000b7
:103ac00081064000ed3fb100f4805700ee01900008
:103ad000111ab8008e099000311bb8009e099000a1
:103ae000311cb800511db800f4855700460007008e
:103af000fe0190003a0007008b85e8003e000700b9
:103b00008e09900040000700ee019000340007008d
:103b10008b85e800380007008e0990004000070000
:103b20009e0990001b18b800890440000a854800cf
:103b3000fe019000340007008b85e8003800070084
:103b4000ee019000300007008e0990001b18b800ad
:103b5000890440000a8548000a98a30008003a003a
:103b60000402420085824a0006034b0087834b0013
:103b700008044c0089844c000a054d008d06e900bc
:103b800084827200850273004c3add008502720067
:103b90000100320015002000443ade001400b2009b
:103ba0004538de00cb45dd000b007000c540de006f
:103bb000cb4ddd008b8070004549de00cb55dd002c
:103bc0000b017100c551de000d037800cffe070028
:103bd00003f0a1000cf0a70003f0a0000bff3700da
:103be0001b18b8008502400006834800e0834b00a4
:103bf00060044c00070037001b18b80006034000a3
:103c000087834800faff37001b18b800870340007d
:103c100008844800e0844c0060054d000000060068
:103c20001b18b8000804400089844800faff3700d8
:103c30000108a300f2fe3a005800be005801be0081
:103c4000e3ff37000008a300edfe3a000904780006
:103c5000f9ff370007f0a200c6fd37006022b80068
:103c6000060220000000d0008180d2000482d20031
:103c70008582d2000000a0000202520083825a0016
:103c8000030031000202420083824a000000a100ca
:103c90000603e900f3ff3a0000000600020ab9003b
:103ca000001bb9000200b8008100420081004300ff
:103cb000000006000000fa00889fbe008a9fbe0038
:103cc0003004be002005be000404440085844c007e
:103cd00006054d0087854d000898be000a90be007d
:103ce0000440e10005c8e10006d0e10007d8e1008a
:103cf00002003100680040001008e8004f05be00d7
:103d00004f04be000080fa00000006001000fa0018
:103d1000889fbe008a9fbe000605be000404be0048
:103d20003002be002003be00049fbe000697be0006
:103d3000110020000802520089825a000a035b0029
:103d40008b835b004407980055079800660798002e
:103d5000770798000498be000698be003e02be0099
:103d60002e03be000820e10009a8e1000ab0e1002e
:103d70000bb8e100010039008000eb004f05be00e8
:103d8000108810004f04be000080fa0000000600fa
:103d90001400fa00889fbe005b0007008a9fbe00e7
:103da0008c9fbe000006eb004c0798003c07980073
:103db0002c0798001c0798000c0f78000605be0021
:103dc0000404be000d0420004e039000be029000cb
:103dd000860343002e029000e00f530003003d00d5
:103de0002a000700b3ff0700020037002700070082
:103df000c6ff0700ce029000150f9800e08f52001a
:103e000009003500450007001400200005002000cf
:103e10006033b800000072008180720002017300fc
:103e200083817300380007000c06e8008d0f5600f0
:103e3000e5ff3a001e0a9000e00f520004003d002a
:103e40000802be000a03be000e00780099ff0700ba
:103e50004eba9700e00f520006003a003e04be0042
:103e60002e05be0058079800690798007a07980049
:103e70000b0f98004f06be00280007004f05be003c
:103e80004f04be000080fa00000006004f2bde0049
:103e90002200070086837300858242004f23de00e4
:103ea0004707980086827200040242003507980096
:103eb0009e0290004f2bde008582420006027200b7
:103ec000240798001e0278004f23de0004024200ff
:103ed00086827200150798004f18de00000f7200ee
:103ee0000e0007000802be000a03be0000004000ea
:103ef00081804800020149008381490002000700d7
:103f00000e00780000000600500798006107980036
:103f100072079800030f9800000006005e009000f2
:103f2000ee0090007e0190008e09900000000600d7
:103f30000000fa00881f780018002000881f780011
:103f400093ff07008f87e9004f0478000080fa0094
:103f5000000006000000fa00801feb008cff070045
:103f60008f87e9000080fa00000006000000fa00d8
:103f7000889fbe008a9fbe00e00f5000e08f58006f
:103f8000e00f5900e08f59000c003d006044b8007c
:103f90006055b8000000540081805c0002015d00a3
:103fa00083815d00180020001600070008003d0016
:103fb000190007000004eb00050037000004eb00c7
:103fc0001000070002003d00130007001800200049
:103fd000d7ff0700e00f5400060032006022b8004f
:103fe0006033b8000000520081805a0002015b007b
:103ff00083815b004f05be004f04be000080fa00c5
:1040000000000600e00f5200e08f5a00e00f5b0056
:10401000e08f5b00000006006044b8006055b80007
:104020000402540085825c0006035d0087835d0006
:10403000000006000000fa00889fbe008a9fbe00b4
:104040008c1f7800e00f5000e08f5800e00f5900ff
:10405000e08f59000d003d006044b8006055b80085
:104060001c0020000000540081805c0002015d0003
:1040700083815d000820e10009a8e1000ab0e100a9
:104080000bb8e1000d003d00080037000006eb0012
:10409000e00f5200e08f5a00e00f5b00e08f5b0002
:1040a00006003d006044b8006055b80004025400aa
:1040b00085825c0006035d0087835d00a5ff070025
:1040c000e00f5600060032006022b8006033b800ee
:1040d0000000520081805a0002015b0083815b0076
:1040e0004f0678004f05be004f04be000080fa0066
:1040f000000006000000fa00889fbe008a9fbe00f4
:104100008c1f78000006eb00e00f5000e08f580095
:10411000e00f5900e08f590007003d006044b800ef
:104120006055b8001c0020000000540081805c0035
:1041300002015d0083815d00e00f5200e08f5a00b4
:10414000e00f5b00e08f5b0007003d006044b800bb
:104150006055b8000c00a2000402540085825c0087
:1041600006035d0087835d007d000700e00f5600b9
:10417000060032006022b8006033b8000000520030
:1041800081805a0002015b0083815b004f0678004a
:104190004f05be004f04be000080fa00000006007c
:1041a000889fbe008a9fbe008c9fbe000404be0094
:1041b0000605be00809fbe00829fbe002f00070044
:1041c000040678000800be000a01be002b000700ac
:1041d000840678004f03be004f02be008d4f76006c
:1041e0007fb0970013003300f0ff2f008b8f6b0020
:1041f00006003b000d0666000c00a7000a00370011
:1042000007f0a600100020000a003700880f5200b7
:10421000898f5a008a0f5b008b8f5b000300390087
:104220001000200001003e000000200007f0a70061
:104230000000ea004f06be004f05be004f04be005e
:1042400000000600e48240001078a300070032005e
:10425000640240001178a3003400be001401be00c7
:10426000040032000330a700000006003500be0045
:104270001501be000330a0000000060005ff270066
:1042800005826100070032000428e10001003200cd
:10429000240005000600070001003a004400050064
:1042a0000408050002000700f9ff3a0014000500a9
:1042b0006f826100810270008502710085027200c8
:1042c00000000600800078005002be005003be00cf
:1042d0004439de00f700b200f37f200003016100e3
:1042e000090032000218e10016003a008501720050
:1042f00083017300838173000008200015003a00d9
:104300004000200013003700850172008301730014
:104310008381730005003a0004a8be0006a8be0011
:10432000100020000b0037000201e90004024200e7
:1043300085824a0006034b0087834b000748a30091
:10434000f9ff32000740a00004a8be0006a8be0086
:1043500020002000800098009200980000000600d5
:10436000889fbe008a9fbe008c9fbe000404b800d8
:104370000506b8008904460060854e000606b800b0
:104380000a054600e0854e000706b8008b0546008a
:10439000040eb800890446000a854e00e0854d00f1
:1043a000050eb8000a0546008b854e00060eb800c3
:1043b0008b0546000416b8000a0546008b854e00a2
:1043c0000516b8008b054600041eb8008b05460094
:1043d0000800be000a01be004f06be004f05be0029
:0843e0004f04be0000000600be
:020000040000fa
:1043e800783a000020250000662000000a0000003e
:1043f800793a000020250000662000000a0000002d
:104408000a6100005b3000005d3a000020250000d2
:10441800662000000a000000625b0000305d0000ba
:104428003a20000025660000200a00000063000012
:10443800313a000020250000662000000a00000034
:10444800615b0000315d00003a2000002566000035
:10445800200a0000006200005b3100005d3a0000a5
:1044680020250000662000000a00000063320000da
:104478003a20000025660000200a000000640000c1
:104488003a20000025660000200a000000650000b0
:104498003a20000025660000200a0000006600009f
:1044a8003a20000025660000200a0000006700008e
:1044b8003a20000025660000200a00000054000091
:1044c800656d000070200000766100006c750000ca
:1044d80065200000666f0000722000006173000014
:1044e800696e00003a20000025660000200a0000de
:1044f800006800003a20000025660000200a00003d
:10450800004800003a20000025660000200a00004c
:10451800005600003a20000025660000200a00002e
:0845280000000000c8000000c3
:020000040000fa
:104530000600fa001007980021079800e5312100d5
:104540002e029000040342001e0290000402430069
:10455000040242000482420094027800f4702200b7
:10456000848f52009b003a009e029000c4302100cc
:10457000048242008042eb00054a78006531210048
:104580001e029000040342002e0290000402430029
:1045900004024200048242008002eb00050a780017
:1045a0001e02900084024200e43a2100048242008c
:1045b0009402780074662000848f520026003e002a
:1045c0001e029000840242008430210004824200d6
:1045d00014027800e00f52001f003a001e02900003
:1045e00084024200e43a210004824200140278006e
:1045f00065092000848242001e02900004034200ec
:10460000e43a210004024300050a78001e029000eb
:10461000e00f520008003a001e029000840242009f
:10462000e43a210004824200140278000400780079
:1046300009170700200037001e0290008402420084
:10464000e43a210004824200140278000400780059
:104650002a170700180037001e029000840242004b
:10466000843021000482420014027800e00f5200de
:1046700011003a001e0290008402420084302100a2
:104680000482420015002000050a78001e029000f6
:104690008402420044302100048242001402780067
:1046a0008402e8001e02900004034200443021000e
:1046b00004024300050a78001e02900084024200b2
:1046c000e43a21000482420094027800040a2000a7
:1046d000848f5200260036001e02900084024200a1
:1046e000843021000482420014027800e00f52005e
:1046f0001f0032001e02900084024200e43a2100b2
:104700000482420014027800a5f62f008482420041
:104710001e02900004034200e43a21000402430018
:10472000050a78001e029000e00f520008003a00cf
:104730001e02900084024200e43a210004824200fa
:104740001402780004007800c31607005d013700ea
:104750001e02900084024200e43a210004824200da
:104760001402780004007800e416070055013700b1
:104770001e02900084024200843021000482420024
:1047800014027800e00f52004d0132001e0290002a
:104790008402420084302100048242008002eb0047
:1047a000050a78001e029000840242004430210075
:1047b00004824200140278008402e8001e02900085
:1047c000040342004430210004024300050a78003b
:1047d0003c0137001e029000e00f52009c003a009e
:1047e000e53121002e029000040342001e029000d9
:1047f00004024300040242000482420014027800d2
:10480000520020000119200004007800f50807007c
:1048100000027800e00f520071003a009e02900002
:10482000c43021000482420015c0b300054a78005c
:10483000653121001e029000040342002e02900008
:104840000402430004024200048242008002eb00a2
:10485000050a7800e53121002e0290000403420091
:104860001e0290000402430004024200048242003f
:104870009402780004192000848f52002c00340028
:10488000e53121002e029000040342001e02900038
:104890000402430004024200048242001402780031
:1048a00005e72f0084824200a400200011000900c7
:1048b0008402d80000027800040f78001e029000e5
:1048c00084024200e43a210004824200940278000b
:1048d0001e0378006a024300848f5200f9003600fc
:1048e0001e02900084024200e43a21000482420049
:1048f000940278001e027800848252001e0290000a
:1049000004034200e43a210004024300050a78004f
:104910001e02900084024200e43a21000482420018
:1049200014027800040078004b160700e5003700f9
:10493000e53121002e029000040342001e02900087
:104940000402430004024200048242001402780080
:104950000519200084825200a400200011000900e3
:104960008402d80000027800040f78001e02900034
:1049700084024200e43a210004824200940278005a
:10498000e46f20001e025200848f5200cd003100df
:104990001e02900084024200e43a21000482420098
:1049a000940278001e027800848242001e02900069
:1049b00004034200e43a210004024300050a78009f
:1049c0001e02900084024200e43a21000482420068
:1049d00014027800040078001f160700b9003700a1
:1049e0009e029000c43021000482420015c0b30032
:1049f000054a78001e02900084024200e43a210039
:104a00000482420094027800e63021002e029000d9
:104a1000840342001e02900004824300040242000c
:104a200004024300050a7800653121001e0290004f
:104a3000040342002e0290000402430004024200dc
:104a40000482420015002000050a78009d0037000e
:104a5000e53121002e029000040342001e02900066
:104a6000040243000402420004824200140278005f
:104a7000520020000120200004007800590807009f
:104a800000027800e00f520071003a009e02900090
:104a9000c43021000482420015c0b300054a7800ea
:104aa000653121001e029000040342002e02900096
:104ab0000402430004024200048242008002eb0030
:104ac000050a7800e53121002e029000040342001f
:104ad0001e029000040243000402420004824200cd
:104ae0009402780004202000848f52002c003400af
:104af000e53121002e029000040342001e029000c6
:104b000004024300040242000482420014027800be
:104b100005e02f0084824200a4002000110009005b
:104b20008402d80000027800040f78001e02900072
:104b300084024200e43a2100048242009402780098
:104b40001e0378006a024300848f52005d00360025
:104b50001e02900084024200e43a210004824200d6
:104b6000940278001e027800848252001e02900097
:104b700004034200e43a210004024300050a7800dd
:104b80001e02900084024200e43a210004824200a6
:104b90001402780004007800d81507004900370097
:104ba000e53121002e029000040342001e02900015
:104bb000040243000402420004824200140278000e
:104bc0000520200084825200a4002000110009006a
:104bd0008402d80000027800040f78001e029000c2
:104be00084024200e43a21000482420094027800e8
:104bf000e46f20001e025200848f52003100310009
:104c00001e02900084024200e43a21000482420025
:104c1000940278001e027800848242001e029000f6
:104c200004034200e43a210004024300050a78002c
:104c30001e02900084024200e43a210004824200f5
:104c40001402780004007800ac1507001d0037003e
:104c50009e029000c43021000482420015c0b300bf
:104c6000054a78001e02900084024200e43a2100c6
:104c70000482420094027800e63021002e02900067
:104c8000840342001e02900004824300040242009a
:104c900004024300050a7800653121001e029000dd
:104ca000040342002e02900004024300040242006a
:104cb0000482420015002000050a78000100370038
:104cc000000000000080fa00000006000400fa0066
:104cd000000f7800110798000080fa00000006001d
:104ce0000400fa00000f7800110798000080fa0015
:104cf000000006000800fa0020079800310798001d
:104d0000743e2000040f7800743e200014079800c1
:104d10002e009000b6080700004278002e03900095
:104d20002503200085b3b900e52c2100850243004e
:104d3000844a7800e53121003e02900004034200dd
:104d40002e0290000402430004024200048242004a
:104d5000f5702200050a7800ae02900024032000be
:104d600084aab9000503200084824200e4292100be
:104d700004824200144278000482fb006102620057
:104d800004427800e04f52009c003200ae029000d6
:104d90002403200084aab900050320008482420075
:104da000e429210004824200144278000482fb00be
:104db00062026200e00f520090003200ae029000ea
:104dc0002403200084aab900ea024200e429210059
:104dd00004824200940278002e03900024032000f5
:104de00084b2b9000483e800e429210004024300ee
:104df00014027800f200200085007800040078009a
:104e00007807070000027800e00f520031003200fe
:104e1000ae0290002403200084aab9008482e80036
:104e2000e429210004824200940278002e039000bd
:104e30002403200084b2b9006a034200e42921005f
:104e400004024300140278000482520004f0a70018
:104e50000402ea009e0f52001e003d00ae029000c8
:104e60002403200084aab90084027800e4292100e8
:104e700004824200940278002e0390002403200054
:104e800084b2b90068034200e4292100040243000f
:104e900014027800848242002400200011000900de
:104ea0008402d8000002780084027800e6312100f4
:104eb0002e0290000402420004024300050a78001a
:104ec000e53121002e0290000402420004824200db
:104ed000140f7800ae0290002403200084aab900c9
:104ee000e8024200e4292100048242009402780092
:104ef0002e0390002403200084b3b900e42921008c
:104f00000402430014027800f200200085007800bb
:104f1000040078003307070000027800e00f520019
:104f200036003200ae0290002403200084aab900ab
:104f300084027800e429210004824200940278006f
:104f40002e0390002403200084b2b90068034200bd
:104f5000e429210004024300140278000482520074
:104f60008402780005f0a7008502ea001e02900086
:104f7000848f520021003d00ae02900024032000e7
:104f800084aab90084027800e42921000482420046
:104f9000940278002e0390002403200084b2b9000c
:104fa00068034200e429210004024300140278004f
:104fb0008482420024002000110009008402d800ed
:104fc0000002780084027800e63121002e02900071
:104fd0000482e8000402420004024300050a78004b
:104fe000e53121002e0290000482e8000402420014
:104ff000048242009402780015079800ae029000e7
:105000002403200084aab900050320008482420002
:10501000e429210004824200144278000482fb004b
:105020006102620004427800e04f52009c003200ae
:10503000ae0290002403200084aab90005032000da
:1050400084824200e4292100048242001442780054
:105050000482fb0064026200e00f52009000320004
:10506000ae0290002403200084aab900f20242009c
:10507000e429210004824200940278002e0390006b
:105080002403200084b2b9000483e800e42921004d
:105090000402430014027800f2002000850078002a
:1050a00004007800cf06070000027800e00f5200ed
:1050b00031003200ae0290002403200084aab9001f
:1050c0008482e800e42921000482420094027800ee
:1050d0002e0390002403200084b2b9007203420022
:1050e000e4292100040243001402780004825200e3
:1050f00004f0a7000402ea009e0f52001e003d00cb
:10510000ae0290002403200084aab9008402780033
:10511000e429210004824200940278002e039000ca
:105120002403200084b2b90070034200e429210066
:10513000040243001402780084824200240020000c
:10514000110009008402d80000027800840278006f
:10515000e63121002e0290000402420004024300c6
:10516000050a7800e53121002e0290000402420079
:1051700004824200140f7800ae0290002403200045
:1051800084aab900f0024200e4292100048242000e
:10519000940278002e0390002403200084b3b90009
:1051a000e42921000402430014027800f2002000e8
:1051b00085007800040078008a0607000002780065
:1051c000e00f520036003200ae02900024032000af
:1051d00084aab90084027800e429210004824200f4
:1051e000940278002e0390002403200084b2b900ba
:1051f00070034200e42921000402430014027800f5
:10520000048252008402780005f0a7008502ea00bb
:105210001e029000848f520021003d00ae029000db
:105220002403200084aab90084027800e429210024
:1052300004824200940278002e0390002403200090
:1052400084b2b90070034200e42921000402430043
:10525000140278008482420024002000110009001a
:105260008402d8000002780084027800e631210030
:105270002e0290000482e80004024200040243006f
:10528000050a7800e53121002e0290000482e80032
:10529000040242000482420094027800150798003c
:1052a000ae0290002403200084aab9000503200068
:1052b00084824200e42921000482420014427800e2
:1052c0000482fb006102620004427800e04f520059
:1052d0009c003200ae0290002403200084aab90092
:1052e0000503200084824200e42921000482420058
:1052f000144278000482fb0068026200e00f520052
:1053000090003200ae0290002403200084aab9006d
:10531000fa024200e429210004824200940278004b
:105320002e0390002403200084b2b9000483e80017
:10533000e42921000402430014027800f200200056
:105340008500780004007800260607000002780037
:10535000e00f520031003200ae0290002403200022
:1053600084aab9008482e800e42921000482420072
:10537000940278002e0390002403200084b2b90028
:105380007a034200e4292100040243001402780059
:105390000482520004f0a7000402ea009e0f5200ab
:1053a0001e003d00ae0290002403200084aab90034
:1053b00084027800e42921000482420094027800eb
:1053c0002e0390002403200084b2b9007803420029
:1053d000e429210004024300140278008482420080
:1053e00024002000110009008402d8000002780087
:1053f00084027800e63121002e029000040242006f
:1054000004024300050a7800e53121002e029000d5
:105410000402420004824200140f7800ae029000a1
:105420002403200084aab900f8024200e4292100e4
:1054300004824200940278002e039000240320008e
:1054400084b3b900e4292100040243001402780067
:10545000f20020008500780004007800e1050700d4
:1054600000027800e00f520036003200ae029000d9
:105470002403200084aab90084027800e4292100d2
:1054800004824200940278002e039000240320003e
:1054900084b2b90078034200e429210004024300e9
:1054a00014027800048252008402780005f0a700fc
:1054b0008502ea001e029000848f520021003d0008
:1054c000ae0290002403200084aab9008402780070
:1054d000e429210004824200940278002e03900007
:1054e0002403200084b2b90078034200e42921009b
:1054f0000402430014027800848242002400200049
:10550000110009008402d8000002780084027800ab
:10551000e63121002e0290000482e80004024200dd
:1055200004024300050a7800e53121002e029000b4
:105530000482e800040242000482420094027800df
:1055400015079800ae0290002403200084aab90039
:105550000503200084824200e429210004824200e5
:10556000144278000482fb0062026200e00f5200e5
:105570009d003200ae0290002403200084aab900ee
:105580000503200084824200e429210004824200b5
:10559000144278000482fb0064026200e00f5200b3
:1055a00091003200ae0290002403200084aab900ca
:1055b000f2024200e42921000482420094027800b1
:1055c0002e0390002403200084b2b9006a03420035
:1055d000e42921000402430014027800f2002000b4
:1055e00085007800040078007e050700000278003e
:1055f000e00f520031003200ae0290002403200080
:1056000084aab900ea024200e4292100048242008f
:10561000940278002e0390002403200084b2b90085
:1056200072034200e42921000402430014027800be
:105630000482520004f0a7000402ea009e0f520008
:105640001e003d00ae0290002403200084aab90091
:10565000e8024200e429210004824200940278001a
:105660002e0390002403200084b2b900700342008e
:10567000e4292100040243001402780084824200dd
:1056800024002000110009008402d80000027800e4
:1056900084027800e63121002e02900004024200cc
:1056a00004024300050a7800e53121002e02900033
:1056b0000402420004824200140f7800ae029000ff
:1056c0002403200084aab900f0024200e42921004a
:1056d00004824200940278002e03900024032000ec
:1056e00084b2b90068034200e429210004024300a7
:1056f00014027800f2002000850078000400780091
:105700003805070000027800e00f52003600320032
:10571000ae0290002403200084aab900e8024200ef
:10572000e429210004824200940278002e039000b4
:105730002403200084b2b90070034200e429210050
:1057400004024300140278000482520084027800ac
:1057500005f0a7008502ea001e029000848f520027
:1057600021003d00ae0290002403200084aab9006d
:10577000e8024200e42921000482420094027800f9
:105780002e0390002403200084b2b900700342006d
:10579000e4292100040243001402780084824200bc
:1057a00024002000110009008402d80000027800c3
:1057b00084027800e63121002e0290000482e80085
:1057c0000402420004024300050a7800e53121008a
:1057d0002e0290000482e80004024200048242008b
:1057e0009402780015079800ae0290002403200070
:1057f00084aab9000503200084824200e429210024
:1058000004824200144278000482fb0062026200bb
:10581000e00f52009d003200ae02900024032000f1
:1058200084aab9000503200084824200e4292100f3
:1058300004824200144278000482fb006802620085
:10584000e00f520091003200ae02900024032000cd
:1058500084aab900fa024200e4292100048242002d
:10586000940278002e0390002403200084b2b90033
:105870006a034200e4292100040243001402780074
:10588000f20020008500780004007800d5040700ad
:1058900000027800e00f520031003200ae029000aa
:1058a0002403200084aab900ea024200e42921006e
:1058b00004824200940278002e039000240320000a
:1058c00084b2b9007a034200e429210004024300b3
:1058d000140278000482520004f0a7000402ea00d7
:1058e0009e0f52001e003d00ae02900024032000d7
:1058f00084aab900e8024200e4292100048242009f
:10590000940278002e0390002403200084b2b90092
:1059100078034200e42921000402430014027800c5
:105920008482420024002000110009008402d80073
:105930000002780084027800e63121002e029000f7
:105940000402420004024300050a7800e531210008
:105950002e0290000402420004824200140f7800dc
:10596000ae0290002403200084aab900f80242008d
:10597000e429210004824200940278002e03900062
:105980002403200084b2b90068034200e429210006
:105990000402430014027800f20020008500780021
:1059a000040078008f04070000027800e00f520026
:1059b00036003200ae0290002403200084aab90011
:1059c000e8024200e42921000482420094027800a7
:1059d0002e0390002403200084b2b9007803420013
:1059e000e4292100040243001402780004825200da
:1059f0008402780005f0a7008502ea001e029000ec
:105a0000848f520021003d00ae029000240320004c
:105a100084aab900e8024200e4292100048242007d
:105a2000940278002e0390002403200084b2b90071
:105a300078034200e42921000402430014027800a4
:105a40008482420024002000110009008402d80052
:105a50000002780084027800e63121002e029000d6
:105a60000482e8000402420004024300050a7800b0
:105a7000e53121002e0290000482e8000402420079
:105a8000048242009402780015079800ae0290004c
:105a90002403200084aab900050320008482420068
:105aa000e429210004824200144278000482fb00b1
:105ab00064026200e00f52009d003200ae029000ce
:105ac0002403200084aab900050320008482420038
:105ad000e429210004824200144278000482fb0081
:105ae00068026200e00f520091003200ae029000a6
:105af0002403200084aab900fa024200e42921000c
:105b000004824200940278002e03900024032000b7
:105b100084b2b90072034200e42921000402430068
:105b200014027800f200200085007800040078005c
:105b30002c04070000027800e00f52003100320010
:105b4000ae0290002403200084aab900f2024200b1
:105b5000e429210004824200940278002e03900080
:105b60002403200084b2b9007a034200e429210012
:105b700004024300140278000482520004f0a700db
:105b80000402ea009e0f52001e003d00ae0290008b
:105b90002403200084aab900f0024200e429210075
:105ba00004824200940278002e0390002403200017
:105bb00084b2b90078034200e429210004024300c2
:105bc00014027800848242002400200011000900a1
:105bd0008402d8000002780084027800e6312100b7
:105be0002e0290000402420004024300050a7800dd
:105bf000e53121002e02900004024200048242009e
:105c0000140f7800ae0290002403200084aab9008b
:105c1000f8024200e4292100048242009402780044
:105c20002e0390002403200084b2b90070034200c8
:105c3000e42921000402430014027800f20020004d
:105c40008500780004007800e60307000002780071
