:020000040000fa
:080000000002040000000000f2
:020000040000fa
:04000800dc03000015
:020000040000fa
:04000c00dc03000011
:020000040000fa
:04001000dc0300000d
:020000040000fa
:04001400dc03000009
:020000040000fa
:04001800dc03000005
:020000040000fa
:04001c00dc03000001
:020000040000fa
:04002000dc030000fd
:020000040000fa
:04002400dc030000f9
:020000040000fa
:04002800dc030000f5
:020000040000fa
:04002c00f453000089
:020000040000fa
:04003000dc030000ed
:020000040000fa
:040034005c03000069
:020000040000fa
:04003800dc030000e5
:020000040000fa
:04003c004a54000022
:020000040000fa
:04004000dc030000dd
:020000040000fa
:040044008203000033
:020000040000fa
:04004800dc030000d5
:020000040000fa
:04004c00dc030000d1
:020000040000fa
:04005000dc030000cd
:020000040000fa
:04005400ec5000006c
:020000040000fa
:040058001251000041
:020000040000fa
:04005c00dc030000c1
:020000040000fa
:04006000dc030000bd
:020000040000fa
:04006400dc030000b9
:020000040000fa
:04006800dc030000b5
:020000040000fa
:04006c00c24b000083
:020000040000fa
:04007000dc030000ad
:020000040000fa
:04007400dc030000a9
:020000040000fa
:04007800dc030000a5
:020000040000fa
:04007c00dc030000a1
:020000040000fa
:04008000dc0300009d
:020000040000fa
:04008400dc03000099
:020000040000fa
:04008800dc03000095
:020000040000fa
:04008c00dc03000091
:020000040000fa
:04009000dc0300008d
:020000040000fa
:040094009a030000cb
:020000040000fa
:04009800dc03000085
:020000040000fa
:04009c00dc03000081
:020000040000fa
:0400a000dc0300007d
:020000040000fa
:0400a400dc03000079
:020000040000fa
:0400a800dc03000075
:020000040000fa
:0400ac00dc03000071
:020000040000fa
:0400b000dc0300006d
:020000040000fa
:0400b400dc03000069
:020000040000fa
:0400b800dc03000065
:020000040000fa
:0400bc00dc03000061
:020000040000fa
:0400c000dc0300005d
:020000040000fa
:0400c400dc03000059
:020000040000fa
:0400c800dc03000055
:020000040000fa
:0400cc00dc03000051
:020000040000fa
:0400d000dc0300004d
:020000040000fa
:0400d400dc03000049
:020000040000fa
:0400d800dc03000045
:020000040000fa
:0400dc00dc03000041
:020000040000fa
:0400e000dc0300003d
:020000040000fa
:0400e400dc03000039
:020000040000fa
:0400e800dc03000035
:020000040000fa
:0400ec00dc03000031
:020000040000fa
:0400f000304e00008e
:020000040000fa
:0400f400dc03000029
:020000040000fa
:0400f800dc03000025
:020000040000fa
:0400fc00dc03000021
:020000040000fa
:04010000dc0300001c
:020000040000fa
:04010400dc03000018
:020000040000fa
:04010800dc03000014
:020000040000fa
:04010c00dc03000010
:020000040000fa
:04011000dc0300000c
:020000040000fa
:04011400dc03000008
:020000040000fa
:04011800dc03000004
:020000040000fa
:04011c00dc03000000
:020000040000fa
:04012000dc030000fc
:020000040000fa
:04012400dc030000f8
:020000040000fa
:04012800dc030000f4
:020000040000fa
:04012c00dc030000f0
:020000040000fa
:04013000dc030000ec
:020000040000fa
:04013400dc030000e8
:020000040000fa
:04013800dc030000e4
:020000040000fa
:04013c00dc030000e0
:020000040000fa
:04014000dc030000dc
:020000040000fa
:04014400dc030000d8
:020000040000fa
:04014800dc030000d4
:020000040000fa
:04014c00dc030000d0
:020000040000fa
:04015000dc030000cc
:020000040000fa
:04015400dc030000c8
:020000040000fa
:04015800dc030000c4
:020000040000fa
:04015c00dc030000c0
:020000040000fa
:04016000dc030000bc
:020000040000fa
:04016400dc030000b8
:020000040000fa
:04016800dc030000b4
:020000040000fa
:04016c00dc030000b0
:020000040000fa
:04017000dc030000ac
:020000040000fa
:04017400dc030000a8
:020000040000fa
:04017800dc030000a4
:020000040000fa
:04017c00dc030000a0
:020000040000fa
:04018000dc0300009c
:020000040000fa
:04018400dc03000098
:020000040000fa
:04018800dc03000094
:020000040000fa
:04018c00dc03000090
:020000040000fa
:04019000dc0300008c
:020000040000fa
:04019400dc03000088
:020000040000fa
:04019800dc03000084
:020000040000fa
:04019c00dc03000080
:020000040000fa
:0401a000dc0300007c
:020000040000fa
:0401a400dc03000078
:020000040000fa
:0401a800dc03000074
:020000040000fa
:0401ac00dc03000070
:020000040000fa
:0401b000dc0300006c
:020000040000fa
:0401b400dc03000068
:020000040000fa
:0401b800dc03000064
:020000040000fa
:0401bc00dc03000060
:020000040000fa
:0401c000dc0300005c
:020000040000fa
:0401c400dc03000058
:020000040000fa
:0401c800dc03000054
:020000040000fa
:0401cc00dc03000050
:020000040000fa
:0401d000dc0300004c
:020000040000fa
:0401d400dc03000048
:020000040000fa
:0401d800dc03000044
:020000040000fa
:0401dc00dc03000040
:020000040000fa
:0401e000dc0300003c
:020000040000fa
:0401e400dc03000038
:020000040000fa
:0401e800dc03000034
:020000040000fa
:0401ec00dc03000030
:020000040000fa
:0401f000dc0300002c
:020000040000fa
:0401f400dc03000028
:020000040000fa
:0401f800dc03000024
:020000040000fa
:0401fc00dc03000020
:020000040000fa
:04020000dc0300001b
:020000040000fa
:04020400dc03000017
:020000040000fa
:04020800dc03000013
:020000040000fa
:04020c00dc0300000f
:020000040000fa
:04021000dc0300000b
:020000040000fa
:04021400dc03000007
:020000040000fa
:04021800dc03000003
:020000040000fa
:04021c00dc030000ff
:020000040000fa
:04022000dc030000fb
:020000040000fa
:04022400dc030000f7
:020000040000fa
:04022800dc030000f3
:020000040000fa
:04022c00dc030000ef
:020000040000fa
:04023000dc030000eb
:020000040000fa
:04023400dc030000e7
:020000040000fa
:04023800dc030000e3
:020000040000fa
:04023c00dc030000df
:020000040000fa
:04024000dc030000db
:020000040000fa
:04024400dc030000d7
:020000040000fa
:04024800dc030000d3
:020000040000fa
:04024c00dc030000cf
:020000040000fa
:04025000dc030000cb
:020000040000fa
:04025400dc030000c7
:020000040000fa
:04025800dc030000c3
:020000040000fa
:04025c00dc030000bf
:020000040000fa
:04026000dc030000bb
:020000040000fa
:04026400dc030000b7
:020000040000fa
:10040000cfdd21000eff27000e0188000000000054
:10041000000020000000e000020032000001200087
:10042000200288000c000700207125000100200038
:100430000f000700000020000000e0000200320072
:1004400000000200000000000c5a02000000000042
:100450000040da000000fe00600a20000000e0001a
:1004600002003200002020009001880000000600f9
:10047000a1028800800078000000eb001a0037001d
:10048000e280400054a0b4009101ba00e280400034
:1004900054a0b4009102ba00e280400054a0b4001d
:1004a0000002eb00472bde00f507b200a601880032
:1004b000602ce10008003a000049eb000201e8006e
:1004c000020039003420ec0002f0a0008301e900b2
:1004d000f9ff3e00040037006128e100010032000e
:1004e0000082eb000b00070011c3ba001101ba0033
:1004f0000604e00003003a000200e000e0ff3a00da
:1005000000000600f607b200a6028800820078000c
:10051000f5ff370004d0a300e20f49001c003900aa
:10052000810278003549ba000201e8000200390072
:100530003420ec0002f0a0008301e9000f0032003b
:100540002549ba000201e800020039003420ec001d
:1005500002f0a0008301e900080032000400e0007e
:100560000600320015c9ba000201e8000200390095
:100570003420ec0002f0a0008301e9008180e80053
:1005800054a0b4000300e000e2ff3a0000000600bf
:100590009102ba00055978008301e900f7ff3200a3
:1005a000c82ade00055978008301e900f3ff320014
:1005b0000400e000f1ff320011d9ba00eeff37006d
:1005c000b050040000000000ba5004000000000019
:1005d000c450040000000000ce50040000000000e1
:1005e000264a0400000000004a4a040000000000ff
:1005f000f64a040000000000ae4a040000000000bb
:10060000a04b040000000000ac4b04000000000000
:10061000024b0400000000000e4b0400000000002c
:10062000224b040000000000404b040000000000ca
:10063000804b0400000000008c4b04000000000010
:10064000c04c040000000000d24c04000000000078
:10065000644d0400000000001c4d04000000000078
:100660000e4e0400000000001a4e040000000000be
:10067000704d0400000000007c4d040000000000ec
:10068000904d040000000000ae4d0400000000008a
:10069000ee4d040000000000fa4d040000000000d0
:1006a000680d0400000000002c1804000000000089
:1006b0000000040000000000809fbe000000fa005f
:1006c000108680000000e800108688000189800004
:1006d000800c2000808f500003003e0000898000c5
:1006e0000000e80000898800f08980000000e80030
:1006f000f08988000068a9000080fa004f00be0061
:1007000000400600801f78000000fa00108580007d
:100710000000e80010858800208580000000e800c7
:100720002085880000e8a9000080fa004f007800ca
:10073000004006003600f800809fbe00829fbe0089
:10074000849fbe00869fbe000000fa0010c0b30068
:10075000762b0700822b07000004e0000100320026
:10076000792b0700207380004700de0061406000a5
:100770000004a200614060000080fb006100600096
:100780004700dd0022738000f1f72f008100610037
:1007900001007000207388000368a9000080fa003f
:1007a0004f03be004f02be004f01be004f00be000f
:1007b0003600f900004006000040da000000fe00ac
:1007c0000a00fa0011002000b1bf9f00c0bf9f00c7
:1007d0006a805700c50a07004fb897000080fa00ea
:1007e000000006000a00fa00e20f500020003e0060
:1007f00020df8000e10f500006003200802320003f
:100800004523200023232000042320000000e000d3
:1008100004003a00802220004522200023222000ec
:1008200004222000060028001403630003003a009d
:100830000608780000002800140a700013a8a3001e
:1008400001003a0013a0a000020078000500370064
:100850001388a300feff32003102fb00840a7800f7
:100860000000e9000000e000f9ff3a00080037004e
:1008700033002000b3bf9f00c0bf9f00d1bf9f00c7
:10088000e2bf9f006a8057009a0a07006fb997007d
:10089000020078000080fa00000006000a00fa005a
:1008a00051002000b1bf9f00c0bf9f006a80570069
:1008b000920a07005fb897000080fa000000060067
:1008c000889fbe008004780030df80000000e000d8
:1008d00004003a000e0007000084eb000000e00076
:1008e0000800350038df80000900e0000500320014
:1008f00009004400060007000000e00001003d0080
:100900000084eb00080078004f04be0000000600e1
:10091000800078000100e00003003a0080be210062
:1009200030df8800000005000080eb00c2dd210000
:10093000828f500002003e0031df88000000eb0093
:100940000000060003f0a200889fbe008a9fbe0040
:100950008c1f7800b0010700b70133006450e1003c
:100960004f0032006420e1005200320003826c002c
:1009700007003b000905d0000306d000820f540099
:100980000c065d0002003900020032008901780087
:10099000030678008582550004003d000003fd0039
:1009a0008103fd008502ea008b854200840f7200fe
:1009b00002003b0060001000e08018006011b800e9
:1009c0000005eb007a28e1000a00390006007800f3
:1009d000c75ddd00f707b200878075002d00370086
:1009e000828171000a017800610560008180d10078
:1009f0000080d3008502e900f9ff3b0006044000b7
:100a00008784480002003b0060041400e0841c005e
:100a10000988a300070032008a8171008281710079
:100a2000610164008904d1000884d3008b05e800cb
:100a3000170037000978a30013003a000b00e0000c
:100a4000130034008b05e9000804440089844c003d
:100a50000a4474000978a3000d003a000b00e0007e
:100a6000070034008b05e9000804440089844c0029
:100a700001003a000b0020000978a300f7ff3200c4
:100a80000001eb0002003700828171000a0178004a
:100a9000260107000cf0a70001f0a0006f0137004d
:100aa0006420e10002003a00838f6c006f01330084
:100ab0000801be000200be00680137000001eb0023
:100ac0001c023700889fbe008a9fbe008c1f7800e2
:100ad000510107001002200002003b00708a8800cc
:100ae000550137008a0062006408e10002003a0004
:100af000708a88005d0137006108e100fcff320068
:100b00000800be00030478007200070001f0a10095
:100b10000900070008f0a600040037000001be002d
:100b200091042400b0fd200086ff070009f0a70013
:100b300001f0a20049013700889fbe008a9fbe00d5
:100b40008c9fbe000004be001e0107000800be000e
:100b5000890678006420e1000800390004003200b2
:100b60000160a00012022000728a88005300370042
:100b700091fc2300b0fd20004e0037000006eb0082
:100b800009f0a10003f82300020020000800be00c5
:100b9000a10007000600340001f823000000200037
:100ba0000801be004b0007000004be002c0020001e
:100bb0000800be0093e82300320a230096000700d5
:100bc000120034000801be00d1fd2300703d2b004f
:100bd0005dff07000005be00b3f32300f27a260094
:100be0000800be002401070003f8230002002000d3
:100bf00054ff07000801be0053ff07000a01be00b2
:100c0000340007000004be000c06e8000800be0027
:100c100001f0a10002002000039823007e000700dd
:100c20000800be00160035000801be0012010700d2
:100c30000005be0032cd2c0043fb230042ff07001d
:100c4000809fbe001269280003d52b000a00be0059
:100c500009010700620f210013ef2b003aff070084
:100c60000a01be00040107004f01be001900070081
:100c70000801be00000107000801be0032ff0700a6
:100c80000c00e0000b0032000c10a70001f0a200e5
:100c9000b2fd200093fc23006260e10004003200fa
:100ca00022a9200063f023000c10a70063f82300a2
:100cb00025ff07000df0a70001f0a2004f06be00bf
:100cc0004f05be004f04be00000006000081eb008f
:100cd0001d013700889fbe008a9fbe008c1f7800d0
:100ce000cd000700d400330003866c006450e1009f
:100cf0002e0032006420e100330032006150e10038
:100d00002f0032006120e10031003200858555005e
:100d1000eb07b000090020000804200005003700a0
:100d20000804440089844c000a0031000603430093
:100d300087834b000001530081815b00f8ff330083
:100d40000203be000800a0000804440089844c008f
:100d5000f6ff3900c639dd0083017300010032005f
:100d6000130020008904d1000884d3000998a3004f
:100d7000050032000800a7000300a0008904d1008c
:100d80000884d3008b05e8008904d1000884d300cf
:100d90000001eb000281d2006400070001f0a10015
:100da0000cf0a70001f0a000ac0037006420e100c7
:100db000ae0032000801be000200be00f7ff37009f
:100dc0006120e100a90032006000b800f3ff3700a5
:100dd0000000200001f82700f0ff3700839f680023
:100de0000100e00002003d0060001000e0801800fb
:100df0000300e00002003d0060011100e0811900e5
:100e00003c0107004f00e00002003b0060001000c2
:100e1000e08018000000060014002000ac0137003c
:100e2000f4ff2f00aa0137000001be006500070093
:100e30000470a70003f0a1006509b100160032009c
:100e40000d0035006828e10006003500f0ff2f0096
:100e5000f1ff27000300e00013003b000100280021
:100e60000000050000004000818048008502e90084
:100e7000fcff3a0008003700f88f420002003c00f7
:100e80008000eb00000005008100d1000080d3004d
:100e90008502e800fcff3a000300e00002003b008e
:100ea00060001000e0801800000006000001be0095
:100eb000440007000470a70003f0a10003f8a3009a
:100ec00013003a006509b100100032000900350036
:100ed0006928e1000200350001002800000005003b
:100ee00000004000818048008502e900fcff3a00d4
:100ef00000000600f88f4200050035008100d10097
:100f00000080d3008502e800fcff3a0000000600e4
:100f10008000eb00000005004f89de0082017800b0
:100f2000860137006011b80094013700810020006d
:100f3000618055000b003d000b00200061fe2f007a
:100f40000100e1001d003400828171006101640034
:100f50008904d1000884d3000000e800faff3a00b9
:100f60007100200061006400030070000200600056
:100f70000900320061044400e0844c000988a500a7
:100f8000050032008b05e8006808e10002003a0025
:100f90008904d1000884d300f20f20000258e10038
:100fa00005003d00c75ddd00f907b20089807500ce
:100fb00008007800000006000bf827008b0078007e
:100fc00000000500c70ade00f107b200f50fb2000d
:100fd00008003200e1cf4200020032000170a000a0
:100fe00024000500810f7000010032000408050094
:100ff00044000500810f700002003a001400050053
:101000008502e9000000400081c04800fcff3b0071
:101010000170a000240005000004be00e9ff0700e5
:101020000003be000405be000200be00e5ff07008d
:10103000844f7500000006000200be006450e1000d
:10104000050036006420e100020036000968a300b4
:1010500001003a000800be000160a0004f067800c1
:101060004f05be004f04be0000000600f0ff2f0039
:10107000f1ff2700f9ff3700889fbe008a9fbe005e
:101080008c1f7800e4ff0700ebff330003866c0041
:101090006450e100240032006420e10027003200a7
:1010a0006150e100220032006120e10021003200a5
:1010b0008b854200eb07b1000134b800003ab8005c
:1010c0000804420089844a00013ab8000030b800a0
:1010d0008880400009014a000400330000004000fd
:1010e00081804800020149008b05e900c909dd0043
:1010f000830170000100320013002000c814de00dc
:101100004814dd004709de001200b200c808de0006
:101110000884700085ff070001f0a1000cf0a70013
:1011200001f0a000cdff37006120e100cfff3200c9
:101130000801be000200be00f7ff37006150e10069
:10114000fcff3a00c9ff3700889fbe008a9fbe009f
:101150008c9fbe00820578000004be0099ff070046
:101160000800be006420e1000700390002003a00d8
:10117000f1ff2700f0ff2f000160a0001202200005
:10118000728a8800550037006120e10003003a00b0
:101190000b00a70001f823005000370001f0a10068
:1011a00002002100936424001bff07000800be001a
:1011b00004003500b2fd2000930c24001e0107003e
:1011c0000004be000005eb000b00a6004f0dde0082
:1011d00001f0a1000004be0032982f0023ea230092
:1011e000a5ff07000001eb0003f023000b00a700a0
:1011f00003f82300d4fd07000bff07000000a70041
:101200000a00a20044ff07000b00e00003003200c8
:101210000200200003f02300cafd070001f0a20035
:101220000006be00020020009304240092ff070085
:101230000801be00c4fd0700809fbe000c00be0078
:1012400022a22a00d3a723008bff07004f01be0074
:10125000bdfd07000004be0001f0a1000200200057
:1012600003982300ecfe07000800be0019003500bb
:101270000001be0080ff07000006be00b2c52900c5
:10128000e36223007cff070022222b00f3942b0053
:10129000adfd07000c01be0077ff0700e2732800d8
:1012a00083c02300a8fd07000c01be0072ff0700e9
:1012b00042aa2a00a3e22b00a3fd07000c01be00f6
:1012c0006dff07000801be006bff07000801be00ac
:1012d0009dfd07000a00a70001f0a2004f06be0016
:1012e0004f05be004f04be00000006000001eb00e9
:1012f00095ff37006022b800060220000000d000f1
:101300008180d2000482d2008582d2000000a00039
:101310000202520083825a0003003100020242009e
:1013200083824a000000a1000603e900f3ff3a00af
:1013300000000600889fbe008a9fbe008c9fbe00f2
:101340000206780001f0a7000cf0a0000004be0027
:101350001cff07000800be006420e1000700390000
:1013600002003a00f1ff2700f0ff2f000160a0000b
:1013700012022000728a88005100370009f0a10093
:101380000800be000200200003f82300a4fe0700ae
:10139000f4ff3c000800be00020020000398230078
:1013a0009dfe07000800be0030003500020020004e
:1013b00003f023009afe070005003c000800be0071
:1013c0000801be002cff07000005be000e0037001c
:1013d0000c10a2000000200001f823000801be004c
:1013e00058fd07000200200003f0230022ff070041
:1013f0000005be00e10007000200200003002c00f1
:101400001dff07000004be000a00be00b2d0280085
:10141000130b2c004cfd07000a01be0016ff07004d
:10142000020f2500330b240047fd0700809fbe00fc
:101430000a00be005206220013f02b000eff070028
:10144000b2662100f3f623003ffd07000a01be004b
:1014500009ff07004f01be001efe07000801be0085
:1014600005ff07000801be0037fd07000c00a700bc
:1014700007003700b2fd200093fc23000c10a700ea
:1014800031fd07000cf0a70001f0a2000c003700ae
:101490000cf0a7000200370001f0a20004003700a2
:1014a000b2fd2000930424000c10a60003003700b6
:1014b000b2fd200093fc23000c10a70022fd0700c2
:1014c0004f06be004f05be004f04be0000000600e0
:1014d000889fbe008a9fbe00841f7800cefe070052
:1014e0004f00780011003300f0ff2f00838f6c0055
:1014f00006003b00040565000a00a700080037004d
:1015000009f0a6001000200008003700820f5400e8
:10151000838f5c00030039001000200001003e00b2
:101520000000200009f0a7000000ea004f05be00ff
:101530004f04be000000e00000000600881f780095
:10154000030478000300e00007003d006000100085
:10155000e080180060011900e081190002003b00e2
:1015600001f02d00030037000400070008f0a70079
:1015700001f0a0004f04780000000600889fbe0024
:101580008a9fbe0000827000040271000482710014
:10159000260032000004be000200be006011b80048
:1015a0006b092000950220000182cf000a0039005b
:1015b0000541b1000082cf00070039000541b100ac
:1015c0000982cf00040039000541b1000882cf0034
:1015d000010039000541b1000542520012003200fd
:1015e0000a003b0082817100610164008100d1002a
:1015f0000080d3008984d3000884d3008b05e800e1
:101600000442e800f7ff3a000700370008044400ee
:1016100089844c0000004800818048008b05e90067
:101620000442e900f9ff3a0040fe07004f05be0002
:101630004f04be0000000600040020000000370038
:10164000889fbe008a9fbe008c1f78004f26dd0059
:1016500071fe070078fe33006120e1004300320094
:101660006250e10041003e003e0039006420e1008c
:101670003c003200058255000f003b000402e800e8
:1016800038003a00800f5300818f5b003500340032
:101690000800be0003f0a10001f0a60003f0a000c6
:1016a0000cf0a700a8fc07006cfe370006034300ff
:1016b00087834b000c4646000005530081855b0084
:1016c000020033000a03be000c00a0000402e9007f
:1016d000f6ff3b00850578000602430087824b0039
:1016e00004003a006000b80009f0a70001f0a00073
:1016f0005afe37000002520081825a000704e000bf
:10170000040033000603430087834b008b05e90088
:10171000faff3700090578000604be000203be0088
:101720006011b80001fe0700e00f5200e08f5a0080
:101730000700350002003c000c08a3000400320042
:101740000601be0003f0a0000cf0a7007efc07001d
:101750000a85680001f0a1000af0a70001f0a000ce
:101760003efe37000800be003cfe3700100220009d
:101770000cf0a600708a88003cfe3700889fbe00ef
:101780008a9fbe008c1f78000004be000dfe07007b
:101790000478a30026003a006120e1002500320011
:1017a00009f8a30025003a006420e100210032007e
:1017b000f507b1000508a300020032000000400058
:1017c000818048006044b80003102000020020001f
:1017d00000004000818048000805440089854c00d5
:1017e0000a0541008b8549000a0550008b85580089
:1017f000030033000a00be000204740083847400f6
:101800008301d1000281d300830f7100f0ff3a0001
:101810008904d1000884d300600149008201780066
:10182000c1adde00fb07b000c0fd07000bfe3700b6
:101830000960a0000800be0008fe37001202200068
:10184000728a8800f0ff2f00f1ff270003fe3700a7
:101850000000e0002f003200c0017800e38f51004b
:101860002c0036000308a3002a003a00e1de8000c5
:101870000100e00002003200810f5000040031003e
:1018800011009800e0de8800160037008200780022
:10189000110190000200e00002003200800f5100b0
:1018a000faff39001102780084824000850f500051
:1018b00018003900808f520003003a00830842006c
:1018c00001007800070037000200e000030032004a
:1018d00083014000830f51000e0039001200980070
:1018e00090009800900090000100e0000900320094
:1018f00010014000828f500006003a00a2bd210076
:101900000009eb00100178001108410091009000df
:101910001100980000000600889fbe0000047800b7
:10192000d1de80000100e0000200320001007800fa
:101930000d003700e1de8000c0bd2100040037004b
:10194000910f5400250036000180e80091009000be
:101950000100e000faff3a0010003700920f540037
:101960001e0036000280e800100178000200e0004e
:10197000faff3a0011017800e1de8000c0bd2100cd
:1019800004003700910f5400140036000180e80075
:1019900091009000828f5000faff3a00f9de80003b
:1019a000888f540001003100880478000900780015
:1019b0003d0007000000e00004003a00888f54005a
:1019c000050032008904d100f5ff370009187800be
:1019d0009fff0700d2ff37000000eb004f04be005e
:1019e00000000600881f7800630440000800a10082
:1019f0008000eb00800f540021003600e30f5400fc
:101a000001003e004800200008007800c2ff0700e7
:101a10008000eb000000e000190032009000780028
:101a20009101780064815100880f5100030031005a
:101a3000110190000208780007003700088140007b
:101a400002087800910190001301980010017800bd
:101a50001109140088087800100178000000eb00dc
:101a60000200e00004003200920190000300e00058
:101a7000010032000280e800d0de88008180e800aa
:101a8000010078004f047800000006008001780013
:101a900002003700815978000201e9000200e000ed
:101aa000fcff3a0000000600800078000000eb0018
:101ab0000100e000050034000100780080fb070011
:101ac000e10f400001003a000000eb0000000600ba
:101ad000889fbe000004780001007800820478002e
:101ae00088017800090178001100200052030700e6
:101af000890f5000010032000004eb00080078005c
:101b00004f04be00000006000000fa00e881570004
:101b10004fb99700a1a7210080d62000020007003e
:101b20000080fa00000006006200fa00889fbe00f4
:101b30008a1f78000005780081047800020478008c
:101b40008300780080f92f000f004000ed040700ab
:101b50009a979f00a9979f000000eb00b09f9f00fd
:101b60001885fb008a04fb000a05ea004f55de00d9
:101b700050022000808f54000d003200e10f55000c
:101b80000b003a000a017800880078002f90970037
:101b90009f91970003000100a0979f000000e000c4
:101ba0008e0032003f9897000000e800b09f9f0031
:101bb0000a04440050022000808f540004003200c8
:101bc0000900e000e6ff3a003f98970084003700e4
:101bd0000000eb00909f9f00809f9f00f0979f0068
:101be000e0979f00d0979f00c0979f0007003700a5
:101bf00041bd2100010050000000400081bc2100d7
:101c0000808040005f98970011007000d09f9f0077
:101c10008804780009047800384578008a00fb00c1
:101c200040bd21007e0307000000e000f0ff3a0005
:101c3000a1c2b300814f55000e003a00cf88970033
:101c40000180e900c08f9f0010007800c09f9f00b6
:101c50000000e00005003d000000ea00c09f9f007a
:101c60005f9897000020a000d09f9f000904e80023
:101c70000f003700c09f9f000000eb0005003700f9
:101c8000f2ff2700820f500002003200ea00b90084
:101c9000008040000904780088047800b900fb0047
:101ca0000103b100e98f5000f5ff3600c09f9f008f
:101cb000e0c2b300984f1000020032000080eb0039
:101cc00019003700a0c2b300d84f100007003a0037
:101cd000cf8897000180e900c08f9f001000780036
:101ce000a09f9f000804e800100037000000eb00f0
:101cf000a09f9f008800780005003700f3ff2700b1
:101d0000830f500002003200ea00b90000004100d9
:101d100001047800880078003101fb000203b10063
:101d2000e90f5100f5ff3600a09f9f00984478000e
:101d30008900fb0000bc2100390307000000e0001f
:101d4000020032000804e800010037008044eb0084
:101d5000c97f9f0080c6b30080cf540004003a00c2
:101d600098cf14000a003a00664050000600370081
:101d7000c0c6b30080cf540005003a0098cf1400cd
:101d800003003a0065404000c07f9f000804e8005f
:101d90001801fb00e3fb2f008f81410081f92f0028
:101da0008f804000a0f92f000f00400010000700b6
:101db0000000e00009003a00e1fb2f008f804000a6
:101dc000a0f92f000f004000920307000000e00080
:101dd000020035000804e80061ff37000080eb00d6
:101de0004f0578004f04be000080fa000000060096
:101df000889fbe008a1f7800000478008244780023
:101e00000305780070c4b30080cf54000a003c0082
:101e100000c0e90080cf54000f003d0050c2b30065
:101e200080cf5400380032007c40400080cf540006
:101e300038003a000800370010c6b30080cf5400c5
:101e40000500320033003500b0c9b30000c04400c3
:101e5000e24f50002f003e0028619000c0c4b30044
:101e6000804f510006003a001101780068005100cf
:101e7000800878005001be004000be000500370019
:101e80001101780064005100800878001000be0045
:101e9000c5050700009cbe000294be00b80090007b
:101ea000780090000100e00003003d008000450044
:101eb000d2c2b3000a003700881090000118a300b6
:101ec0000300320080004500b2c2b30004003700b6
:101ed0000108a300050032008000450002c2b300e3
:101ee000824878000000e8007004980078009000b4
:101ef000000545006a0498008900fb00080078008e
:101f0000100007000b003700780090000005450026
:101f10000500370078009000000545000904e00046
:101f200001003a0059c2b300094d78000000e800f2
:101f3000700498000000eb004f0578004f04be00cd
:101f4000000006002f04b000889fbe008a9fbe00dc
:101f50008c9fbe008e1f78000007780081f79f00dd
:101f60003e04be002e05be005e0890000000e000aa
:101f700002003d0060002000500f98008e007800a5
:101f800020fb2f000f004000f8020700e20f500076
:101f90000a003a0030002000100f9800b1c9b300c9
:101fa0000ff097008140400040b42100e1cf500085
:101fb0000d003e0000b421000b0037000000e000df
:101fc0000f00340030002000100f9800b1c9b3009a
:101fd0000ff1970081404100c0b42100e1cf5000d3
:101fe00001003e0080b42100ee009000b04878006f
:101ff000b06878001040780090409800f3003700f7
:102000000000e00005003a0022fb2f000f01410014
:10201000001978008001eb00e70037006022b8006b
:102020006033b8000800be000a01be00b504070016
:102030000000e00001003d000bf0a20070592700f5
:102040009f9897000088b900026a280013002000ba
:1020500062fb0700640650009c9f9f0013003b003a
:1020600063061600c0ff2f00000666008c01ea0020
:10207000939f9f000db521000800be000a01be001d
:10208000070037000c08a300030032003d02be0029
:102090002d03be00920507000c86d100e88646009d
:1020a0000c00e000f7ff3c00180037000c00e000d7
:1020b00018003200c0ff2f00000666009c9f9f00a2
:1020c0000db521006000b8000200200003ff2300ce
:1020d000070037000c08a300030032003d02be00d9
:1020e0002d03be007e0507000c86d100e886460061
:1020f0000c00e000f7ff3c000002be000203be003f
:102100000800be000a01be00880407000004be00eb
:102110000205be00de08900060c6b3000ff2970013
:10212000804f5200040032006000200062c4b300ff
:10213000824f520002003a009f9a97006a80420044
:1021400081004000f1b79f0001037800f30f5300b6
:102150000200340037012000f7b79f0000c3b3002e
:10216000c0779f0056fb2f000f0343000e0078003e
:10217000a0b79f00060778003d0037000800be00aa
:102180000a01be00270507000006be007fb19700c8
:1021900068015100f2b79f004240a9000c003400d2
:1021a0004c0507000002be000203be000800be008e
:1021b0000a01be00bf0507006022b80046782d0066
:1021c00077192400460507000004be000205be0082
:1021d000e80047008e0020000802be000a03be008f
:1021e000b4b79f00c5b79f00d6b79f00e7b79f0061
:1021f0000c01be00010478000c003700a400200090
:1022000005002000c0fd2f000f004000de01070088
:102210006fa89700ffa897000fb197009fb1970094
:1022200005c3b300056441000001be00e00f51008a
:10223000e08f5900030034000e07e900e10f47006a
:10224000eeff3a00880078003fb49700cfb49700c3
:102250005fb59700efb597000200370000c3b300e9
:10226000806078000e07e900fcff3b0068874000b3
:102270007fb397000600e000070034006022b8003a
:102280006033b8000800be000a01be002204070047
:102290000000e000b9ff3c000e0378002fb7970064
:1022a00051fb2f008f804000010353009f9b97003c
:1022b00067804300909f9f00020037000603e900fb
:1022c0000000e900010178008200780003c3b30038
:1022d000b1cf1100f9ff3200909f9f00de099000fe
:1022e00061c6b3000ff29700814f52000300320025
:1022f00061c4b300814f520002003a000000e800c0
:102300000a0037001000200051c6b3008ff297007a
:1023100081cf5200050032000540780050c4b20061
:102320000080fb000000e9004f00de008301400058
:10233000868f510001003400860178000300e00020
:102340001d00350000c3b300868f510006003d001c
:10235000030241006940400041c3b30094cf100024
:1023600001003c00694050008300e9008100410009
:1023700001003700840178000302e90001037800be
:10238000a142780080cf5200faff320091c3b3001f
:10239000814f500001003a00054be8000400e000c6
:1023a00005003d000201e9008301e8001f9b970042
:1023b0000603e800969f9f008ff397008700fb00bd
:1023c0001f9a97000e007800060007004f0778005c
:1023d0004f06be004f05be004f04be002f04b100e3
:1023e00000000600f0874700889fbe008a9fbe005d
:1023f0008c9fbe008e1f7800000478008144780016
:102400000205be00040678000b00e00002003c005c
:102410001b0020000abe210060c6b30080cf54001c
:102420000e00320060c4b30080cf54000b003200b5
:1024300070c6b30080cf54000300320070c4b300f4
:1024400080cf540085003a00e40f46008300350039
:1024500058089000800f560080003d000c06e800f0
:1024600060c6b30080cf54001000320060c4b300d7
:1024700080cf54000d003200081090000038a300f7
:1024800004003a0058089000808f550001003d007c
:102490005b0c9800580890000c005000500c9800fd
:1024a00002003b000000eb00500c980098089000e0
:1024b000680090000c00e00028003c000100400093
:1024c00002c3b300024878008100e800110c9800b4
:1024d000580890000000e00003003c000810900045
:1024e0000038a300060032006800900001004000a0
:1024f000e2c2b300024878008100e800110c9800a5
:10250000580890008c00ea00810f500001003d0047
:102510000006ea008c00ea00210c98000006460044
:102520005c0c98008b0f5600010034000b067800fd
:102530003c0c9800e80090001808900000804000d3
:102540000c0178008a0078002e01070058089000de
:102550000c0650004c0c9800940037008c8f5500ee
:1025600019003d00010040000b0178008a0078004e
:10257000240107001808900000804500100c980006
:102580008b0556002b0c9800d80890000100e00045
:1025900003003c00881090000138a30007003200bf
:1025a000e800900000804000e1c2b30001487800dc
:1025b000380890000000e800300c9800580890009f
:1025c000400c980079003700010040000c017800b1
:1025d0008a0078000b0107001808900000004600f0
:1025e000100c98008c855500d80890000100e00080
:1025f00003003c00881090000138a3000600320060
:10260000e800900080804000e2c2b3008248780079
:102610000000e800100c980058089000808f5500ca
:102620000100340080057800e80090001808900050
:10263000008040008c0045000b017800f10007008d
:10264000180890000b004000100c980058089000eb
:102650008b0550002b0c9800540037001808900090
:10266000e8009000808040009a4878000000e80070
:10267000100c9800d80890000100e00003003c0016
:10268000881090000138a30006003200e800900096
:1026900080804000e2c2b300824878000000e80079
:1026a000100c9800580890000000e0001000340062
:1026b0008b05e900808f550001003400800578000b
:1026c000e800900018089000008040008a00e800b0
:1026d0000b017800cb000700180890000b004000a9
:1026e000100c9800580890008b0550002b0c980097
:1026f000e800900018089000008040000958780019
:102700000007e8000c00e00004003500b1c2b3008f
:10271000014878008e04780004003700d1c2b3006d
:10272000014878008e0478000c06ea007d85570089
:102730008006eb0009003700a20020008c00780022
:1027400072805700310007007fb097008fb8970064
:10275000016d7800000678008d06e8000c00e000ae
:10276000f5ff3c000d00e00009003a008e047800ff
:1027700000c3b300805c7800050037008d06e900d7
:10278000fc8057000d80400001c3b30090dc400086
:102790000d00e000f9ff3c00e800900018089000f0
:1027a0000080400080845400390c9800081090008c
:1027b00074006000f00f50000e003a00980890007e
:1027c0007800900000804000a808900001004000c0
:1027d000b808900001004000c808900001004000c7
:1027e000f8089000810f500002003d00008050006a
:1027f000000c98004f0778004f06be004f05be0042
:102800004f04be000f01b1000000060080027800f6
:1028100001037800110009000203d800800178004c
:10282000830a78008299b9008200530091029800cf
:102830000500780000000600889fbe008a9fbe0049
:102840008c9fbe008e1f780000067800010478007f
:1028500002007800830478008881b90002077800bc
:102860000e00e000420032000800e00041003200ab
:102870008e057800c900900069009000808f50009c
:102880000400390009007800710007000000e00032
:102890002900350000402000190060000a003200c5
:1028a0000b017800a10020000c0078004b0007000d
:1028b000800678000d00e000060032006105160079
:1028c0000a854600040037000b0578008006eb00ff
:1028d000010037000b05780049009000e9009000e6
:1028e000808050008a8f500002003100010578007e
:1028f0008006eb000a0178008c0078004100070098
:102900008a855500490090000a004000c0049800e4
:102910000d00e0000400320009007800df0107002c
:102920000000e00004003a000b00e000020032006a
:102930000a064600cfff3700008020001900600023
:102940000200320009007800d401070000c0200016
:10295000190060000200320049009000e004980075
:102960008b055700110009008885d8000100370049
:102970000000eb004f0778004f06be004f05be0079
:102980004f04be0000000600881f78008a9fbe002a
:102990008c9fbe00000478000205be000406be0045
:1029a0000401be000a00be000cf90700008cbe0046
:1029b0000c01be00c10307000005550081855d00c4
:1029c0002a0498003b049800080078004f06be00d7
:1029d0004f05be004f0478000000060003003700da
:1029e000b0cf1000050032000201e900800178003c
:1029f0000200e000faff3a00000005000300780042
:102a0000000006008001780002003700b15978000c
:102a10000201e9000200e000fcff3a0000000600ad
:102a2000020037000304e0000600320000017800d5
:102a300002007800b041780081cf5100f9ff3a00e0
:102a4000010037000001eb000200780000000600e2
:102a5000889fbe008a1f780000047800c80090009c
:102a6000680190000000eb00828f50003c003900ac
:102a7000180078002200290002016000e20f5100d6
:102a800007003200012024000000e00001003d00aa
:102a900001202000008c70000080eb003000370027
:102aa0000200260002006000820f500009003a0078
:102ab00038009000808f5000060039000800780030
:102ac00076010700800078000080eb000100e00044
:102ad00023003a001805780000c0200000006500bf
:102ae00018003a00a804900060022000080040008e
:102af000808f540013003a0000202000b9fb07002b
:102b0000200498000000e00005003a002904980025
:102b1000490498008904e800390498000800370047
:102b20000a60a0000a0c78004004980001202000f0
:102b30008080400031049800400c9800500c9800b0
:102b4000f40007002800900050049800380090001e
:102b50006004980000002600180c70000000eb00d4
:102b60004f0578004f04be0000000600889fbe009d
:102b700000047800e68440001900d0004500de0023
:102b8000f27f2000820f500010003a00000ceb0092
:102b9000990478006f816400200020001b003a0037
:102ba000210190000200e00018003a00110190009d
:102bb0000200e00015003a00100020001100e000c3
:102bc0001200320020002000100037000000e0005a
:102bd00004003a0001007800780107000000e000de
:102be00008003c00f20028001901610001fe2300ea
:102bf000810c710021c02f00010c40000080eb000f
:102c000002003700000ceb000000eb004f04be0098
:102c1000000006000400fa00889fbe008a9fbe00e4
:102c20008c1f78000004780001067800f80d9000f1
:102c30007800900080855500080890008085550038
:102c40001808900080855500280890008085550060
:102c50003808900080855500480890008085550010
:102c60000002220090bf9f0000032300a0bf9f002e
:102c7000081090000028a30015003a000b00e000a7
:102c8000130034000b0578008a047800e20f550029
:102c90000100360029002000c801900009017800d9
:102ca000ee80570058009000030001005004980087
:102cb0000000e0008c00320068089000090040002d
:102cc000600c9800090555004240a900eeff3c0049
:102cd000780190000200e0000c003400c801900070
:102ce0008c00780058009000030001005004980008
:102cf0008080eb000000e0007c003200e8089000db
:102d00007800900000804000600c9800880c9000d3
:102d10000900e0001100340009057800e28f54003a
:102d2000010036002a002000c80190000a01780046
:102d3000ec805700580090000300010050049800f8
:102d40000000e00068003200680890000a004000bf
:102d5000600c98008a845400edff37001809900039
:102d60000200e0000c003400c8019000e800900070
:102d70005800900003000100500498008080eb0090
:102d80000000e00059003200e808900018089000a8
:102d900000804000600c9800a80c90000900e00042
:102da0001100340009057800e28f5400010036005c
:102db0002a002000c80190000a017800ec8057002a
:102dc0005800900003000100500498000000e0004b
:102dd00045003200680890000a004000600c98002e
:102de0008a845400edff3700380990000200e000ab
:102df0000e003400e8009000180890008080400029
:102e0000c801900058009000030001005004980091
:102e10008080eb000000e00034003200e808900001
:102e20003808900000804000600c9800c80c9000aa
:102e30000900e0001100340009057800e28f540019
:102e4000010036002a002000c80190000a01780025
:102e5000ec805700580090000300010050049800d7
:102e60000000e00020003200680890000a004000e6
:102e7000600c98008a845400edff37000810900021
:102e80008000eb000028a300180032000b00e000d7
:102e9000160034008b04780009057800e28f540096
:102ea000010036002a002000c80190000a017800c5
:102eb000ee80570058009000030001005004980075
:102ec0000000e00008003200680890000a0040009e
:102ed000600c98008a8454004240a900eeff3c0038
:102ee0008000eb00010037008080eb0001007800db
:102ef0004f0678004f05be004f04be000080fa0068
:102f0000000006000108780000000600c0822100d1
:102f10009d003700881f780028be21001804e000bb
:102f200003003a00f9ff070020c0b300004c78000e
:102f30004f04780000000600889fbe00000478005f
:102f40000800780055000700800478000004200085
:102f50001800600002003200280090003cfa0700d0
:102f60000000eb0020049800384090000004e000ce
:102f7000050035000000fb0011f607000000e0002e
:102f8000010032008084eb00181090000000e00087
:102f90000800320041f607000000e00001003200a6
:102fa0008084eb001810900029fa07000000eb0065
:102fb000101498000008200018006000150032006e
:102fc0000001eb006000b8000202d000a3ac2100b9
:102fd00003024200940f140005003a000000400074
:102fe00081804800008041000008eb0006003700a7
:102ff00061004000e08048000201e800e80f500056
:10300000e08f5800f0ff3a000800780010fa07003f
:103010000e003700000c780000c0eb003044980030
:10302000600220000800400020049800400498003e
:1030300050049800400c980060049800500c9800d0
:103040007004980076004400000c98000900780095
:103050004f04be0000000600881f78000004eb004b
:103060006140b800e2ff2f00f3ff2f0013020700ba
:1030700082ad210080004100110078000000e000d6
:1030800001003200acff07000804e800e80f54001c
:10309000f3ff3a004f04780000000600889fbe004e
:1030a000000478000800e0000f003a008004eb0004
:1030b0008800d000a0ac2100008040001000780003
:1030c0000000e00004003200f4ff07000000e00010
:1030d00001003d008084eb000804e800e80f540084
:1030e000f3ff3a00250037000000220018006000be
:1030f0008004eb0021003200a80490000f0037008c
:1031000009015100384090000000fb008900780060
:10311000b4f507000000e00007003c002800900024
:103120004004980060049800500c98001890a0008b
:103130008084eb0011003700808444004801900037
:10314000828f5400eeff3900280090004004980060
:103150009800780002c020000281600001003a005f
:103160003800900001e8a3000200320060049800db
:1031700001003700500c98008004eb000900780033
:103180004f04be0000000600010020000100e00026
:1031900009003200010080000100e000060032005a
:1031a0008100e900010088008100d0000200800059
:1031b000828040008008780000000600e6004000a1
:1031c0001101780005002800850261006f0161008f
:1031d000820878000200320012002000110037003f
:1031e000a0019000120020000300e0000d003a0052
:1031f000900190000300e0000a003a001000e00097
:1032000008003a0036003700640340009608780052
:1032100080017800530b780090097800040878004a
:1032200070015100110278000400e000f6ff320046
:103230001300370064024000140378004f33de00af
:10324000838141008308730080017800d3037800f4
:10325000cf3bde001403780006034300068a7300a8
:103260001302780004024200100378004f33de009e
:103270008609720090017800038841000201e9008c
:1032800091017800ef8f5100eaff360010003700ff
:1032900080017800530378004f33dd001002d10025
:1032a000040873006402400094037800cf3bdd0003
:1032b0001303d10086897300110378004f33dd00ba
:1032c0009401d100030a73009108d1000201e800c3
:1032d00091017800ff8f5100edff3e00ef88610003
:1032e00091887200020078000000060000c0da0039
:1032f0000000060000c0da000000060000c0da008e
:10330000000006008f1fd100ef0107008f87e90042
:103310000000e00000000600809feb00ea010700cb
:103320008f87e9000000e000000006002800fa0096
:10333000889fbe008a9fbe008c9fbe0003866b00e4
:10334000800007006400e100440032006408e100ee
:103350004a0032006100e100460032006108e100ed
:1033600049003200ec0647006000b8003d02be0094
:103370003d03be00f48657006011b8003d04be0056
:103380003d05be007d0320000b0037000000a000bb
:103390008d06e900130032000402420085824a00d3
:1033a00006034b0087834b000000400081804800eb
:1033b00002014900838149000802520089825a00b3
:1033c0000a035b008b835b00f0ff3b0008024200b6
:1033d00089824a000a034b008b834b008d06e9006b
:1033e000edff3a008482720086827200f707b20015
:1033f0008782720001003200150020001e04900038
:103400003e0b900006035400e63fb0000368a300a3
:10341000070032000000a7000500a0008301d100d2
:103420000281d3008180d3000080d3000603e8002e
:103430008301d1000281d3008180d3000080d300ba
:103440000002eb000482d2001200070003f0a1008a
:103450000cf0a70003f0a0004e0037006402470004
:103460006408e100480032003400be003401be00b0
:10347000f6ff37006108e100430032006011b80038
:103480006000b800f1ff370003ff270002002000b2
:10349000fbff3700180020005700200008045300ed
:1034a0000d003d000600200097fc2f000740e100c2
:1034b0001e00340084827200610260008301d1002a
:1034c0000281d3008180d3000080d3000804e8008b
:1034d000f8ff3a0047002000610460000504740012
:1034e000040464000d00320061004000e0804800e8
:1034f00060014900e081490003b8a50007003200df
:103500000603e8006538e10004003a008301d100b9
:103510000281d3008180d3000080d300f87f200097
:103520000830e10003003500080378006000b800af
:103530006011b8004433dd00f300b2008301730072
:1035400000000600680447000294be000094be001c
:10355000fc0447008694be008494be0009007800f5
:10356000a201070008007800a00107009900780078
:10357000814f70000b003b000800be007b0107007c
:103580004f00b10003003700f3ff2700f2ff2f00c8
:103590006110b9004f06be004f05be004f04be00cb
:1035a0000080fa00000006008103780085f607001d
:1035b0000001be006000b8000478a30013003a00c8
:1035c0006220e10015003e000d0039008301d100aa
:1035d0000281d3008180d3008301d1000281d30016
:1035e0008180d3008301d1000281d3008180d30088
:1035f0000538b000c42add00f300b20083817200f8
:1036000007f0a70003f0a00000000600f3ff27006a
:10361000f2ff2f006110b900fbff370003ff270006
:10362000f7ff37001400fa00889fbe008a9fbe0093
:103630008c9fbe000004be000205be00680047006b
:103640000a90be000890be00680107000070a70045
:103650000bf0a100304320009e02900080825200b7
:10366000b0fe2f000028e10011003d00b0fc2f004b
:103670000028e100150034001e0990008e0890001b
:103680007e0090000501b0000201d1008180d300ce
:103690000080d3008502e800fbff3a000b00e00049
:1036a000bcff3b0060001000e0801800b9ff37004d
:1036b000f0ff2f00f1ff27000b00e000b5ff3b00fb
:1036c0000100280000002000b2ff37006000b800b1
:1036d000b0ff37004f89de00820178006a013700b1
:1036e0002800fa00889fbe008a9fbe008c9fbe0003
:1036f00003866b0093ff07000028a30064003a00d4
:103700000128a30067003a000008a30062003a0005
:103710000108a30065003a001e009000be0890005a
:1037200081064000ed3fb100f4805700ee019000ab
:10373000111ab8008e099000311bb8009e09900044
:10374000311cb800511db800f48557004600070031
:10375000fe0190003a0007008b85e8003e0007005c
:103760008e09900040000700ee0190003400070031
:103770008b85e800380007008e09900040000700a4
:103780009e0990001b18b800890440000a85480073
:10379000fe019000340007008b85e8003800070028
:1037a000ee019000300007008e0990001b18b80051
:1037b000890440000a8548000a98a30008003a00de
:1037c0000402420085824a0006034b0087834b00b7
:1037d00008044c0089844c000a054d008d06e90060
:1037e00084827200850273004c3add00850272000b
:1037f0000100320015002000443ade001400b2003f
:103800004538de00cb45dd000b007000c540de0012
:10381000cb4ddd008b8070004549de00cb55dd00cf
:103820000b017100c551de000d03780019ff070080
:1038300003f0a1000cf0a70003f0a00055ff370033
:103840001b18b8008502400006834800e0834b0047
:1038500060044c00070037001b18b8000603400046
:1038600087834800faff37001b18b8008703400021
:1038700008844800e0844c0060054d00000006000c
:103880001b18b8000804400089844800faff37007c
:103890000108a3003cff3a005800be005801be00da
:1038a000e3ff37000008a30037ff3a00090478005f
:1038b000f9ff370007f0a20006003700020ab9003e
:1038c000001bb9000200b8008100420081004300e3
:1038d000000006002800fa00889fbe008a9fbe00f4
:1038e0008c9fbe0007067800878669000c003b00ad
:1038f000030478008704780008f0a10009f0a10013
:10390000840f5000858f5800860f5900890f5c0086
:10391000030033000cf0a20001003a000cf0a100fb
:1039200008ff07006400e1005f00320078014700f3
:103930006408e100610032006c01470074855700a3
:103940003200be001201be003a04be001a05be00dd
:103950001e039000be0a90008503530006003d0040
:103960000004fd008104fd000205fd008305fd004b
:103970008703ea00050378000df8a3000400320075
:1039800060041400e0841c0060051d00e0851d003b
:103990006022b8007d0320000d38e1008006eb00b6
:1039a0000b0039004433dd00f300b20083017300e3
:1039b00039003700848272000d027800e10664004d
:1039c0008b85d1000a85d3008984d3000884d30075
:1039d0008703e900f7ff3b000800400089804800aa
:1039e0000a0149008b81490004003b00600010007f
:1039f000e080180060011900e08119000358a3005d
:103a0000090032008d8272008482720061026000bf
:103a10008301d1000281d3008180d3000080d300d4
:103a20000603e8001b0037000348a30017003a0014
:103a30000600e000170034000603e9000d00a300b3
:103a4000000048008180480002014900838149004c
:103a50000348a3000f003a000600e000090034000c
:103a60000603e9000000400081804800020149008f
:103a70008381490001003a000003eb000348a300e2
:103a8000f5ff32006022b800020037008482720025
:103a9000618266007ffe070003f0a1000cf0a70022
:103aa00003f0a000bbfe3700640147006408e1009a
:103ab00002003a000df8a300b3fe3a003200be0047
:103ac0001201be00b3fe3700889fbe008a9fbe0071
:103ad0008c9fbe000404be000605be00809fbe0091
:103ae000829fbe002f000700040678000800be0079
:103af0000a01be002b000700840678004f03be00b9
:103b00004f02be008d4f76007fb097001300330048
:103b1000f0ff2f008b8f6b0006003b000d06660048
:103b20000c00a7000a00370007f0a60010002000d4
:103b30000a003700880f5200898f5a008a0f5b00f5
:103b40008b8f5b00030039001000200001003e0055
:103b50000000200007f0a7000000ea004f06be00aa
:103b60004f05be004f04be0000000600e482400086
:103b70001078a30007003200640240001178a3000f
:103b80003400be001401be00040032000330a70060
:103b9000000006003500be001501be000330a00085
:103ba0000000060005ff27000582610007003200c3
:103bb0000428e1000100320024000500060007008f
:103bc00001003a0044000500040805000200070057
:103bd000f9ff3a00140005006f8261008102700055
:103be00085027100850272000000060080007800e6
:103bf0005002be005003be004439de00f700b200a0
:103c0000f37f200003016100090032000218e10087
:103c100016003a00850172008301730083817300ee
:103c20000008200015003a00400020001300370073
:103c300085017200830173008381730005003a00df
:103c400004a8be0006a8be00100020000b0037002c
:103c50000201e9000402420085824a0006034b008b
:103c600087834b000748a300f9ff32000740a000fc
:103c700004a8be0006a8be00200020008000980016
:103c80009200980000000600881f78000304780066
:103c90000300e00007003d0060001000e080180015
:103ca00060011900e081190002003b0001f02d00c5
:103cb000030037000400070008f0a70003f0a0008d
:103cc0004f04780000000600889fbe00008270004c
:103cd0000402710004827100240032003643200087
:103ce000c50020008383cf000a0039000541b100e0
:103cf0008283cf00070039000541b1008183cf00e6
:103d0000040039000541b1008083cf000100390073
:103d10000541b10085c353006022b8001200320093
:103d20000a003b0084827200610260008301d100be
:103d30000281d3008180d3000080d3000603e80015
:103d40008743e800f7ff3a00070037000000400013
:103d50008180480002014900838149000603e9008f
:103d60008743e900f9ff3a00cafd07004f04be008f
:043d70000000060049
:020000040000fa
:103d7400783a000020250000662000000a000000b8
:103d8400793a000020250000662000000a000000a7
:103d94000a6100005b3000005d3a0000202500004d
:103da400662000000a000000625b0000305d000035
:103db4003a20000025660000200a0000006300008d
:103dc400313a000020250000662000000a000000af
:103dd400615b0000315d00003a20000025660000b0
:103de400200a0000006200005b3100005d3a000020
:103df40020250000662000000a0000006332000055
:103e04003a20000025660000200a0000006400003b
:103e14003a20000025660000200a0000006500002a
:103e24003a20000025660000200a00000066000019
:103e34003a20000025660000200a00000067000008
:103e44003a20000025660000200a0000005400000b
:103e5400656d000070200000766100006c75000044
:103e640065200000666f000072200000617300008e
:103e7400696e00003a20000025660000200a000058
:103e8400006800003a20000025660000200a0000b7
:103e9400004800003a20000025660000200a0000c7
:103ea400005600003a20000025660000200a0000a9
:0c3eb40000000000e12e0000654200004c
:020000040000fa
:103ec0000600fa001007980021079800c10d210094
:103ed0002e009000000140001e00900000004100f4
:103ee000000040000080400090007800f070220048
:103ef000808f500097003a00e1b321001e0090002f
:103f0000008040008040eb0001487800410d210016
:103f10001e009000000140002e00900000004100b3
:103f200000004000008040008000eb0001087800a5
:103f30001e009000800040006013210000804000bf
:103f40009000780070662000808f500024003e00b2
:103f50001e00900080004000800c21000080400086
:103f6000100078000000e0001d003a001e009000e4
:103f700080004000601321000080400010007800a5
:103f800061092000808040001e0090000001400078
:103f90006013210000004100010878001e0090001d
:103fa0000000e00007003a001e0090008000400082
:103fb000601321000080400010007800ad1c070055
:103fc0001f0037001e009000800040006013210099
:103fd0000080400010007800c81c0700180037005f
:103fe0001e00900080004000800c210000804000f6
:103ff000100078000000e00011003a001e00900060
:1040000080004000800c2100008040001100200052
:10401000010878001e00900080004000400c210044
:1040200000804000100078008000e8001e00900032
:1040300000014000400c2100000041000108780010
:104040001e009000800040006013210000804000ae
:1040500090007800000a2000808f50002400360075
:104060001e00900080004000800c21000080400075
:10407000100078000000e0001d0032001e009000db
:104080008000400060132100008040001000780094
:10409000a1f62f00808040001e009000000140002b
:1040a0006013210000004100010878001e0090000c
:1040b0000000e00007003a001e0090008000400071
:1040c000601321000080400010007800691c070088
:1040d000540137001e009000800040006013210052
:1040e0000080400010007800841c07004d0137005c
:1040f0001e00900080004000800c210000804000e5
:10410000100078000000e000450132001e00900021
:1041100080004000800c2100008040008000eb0007
:10412000010878001e00900080004000400c210033
:1041300000804000100078008000e8001e00900021
:1041400000014000400c21000000410001087800ff
:10415000340137001e0090000000e00098003a0093
:10416000c10d21002e009000000140001e009000b3
:104170000000410000004000008040001000780076
:1041800052002000011920002e0807000000e00066
:104190006f003a00e1b321001e0090000080400053
:1041a00011c0b30001487800410d21001e009000ad
:1041b000000140002e00900000004100000040007f
:1041c000008040008000eb0001087800c10d210054
:1041d0002e009000000140001e00900000004100f1
:1041e000000040000080400090007800001920008e
:1041f000808f50002b003400c10d21002e00900054
:10420000000140001e00900000004100000040003e
:10421000008040001000780001e72f0080804000ff
:10422000a000200000017800110009008200d800e1
:10423000000f78001e0090008000400060132100f5
:1042400000804000900078001e0178006a00410064
:10425000808f5000f30036001e0090008000400068
:104260006013210000804000900078001e0078005c
:10427000808050001e00900000014000601321006b
:1042800000004100010878001e00900080004000fe
:10429000601321000080400010007800f51b07002b
:1042a000e0003700c10d21002e0090000001400009
:1042b0001e0090000000410000004000008040000f
:1042c000100078000119200080805000a00020001c
:1042d00000017800110009008200d800000f78006a
:1042e0001e0090008000400060132100008040000c
:1042f00090007800e06f20001e005000808f50007a
:10430000c80031001e0090008000400060132100b2
:1043100000804000900078001e00780080804000ff
:104320001e009000000140006013210000004100c9
:10433000010878001e0090008000400060132100fa
:104340000080400010007800ca1b0700b50037004d
:10435000e1b321001e0090000080400011c0b300b6
:10436000014878001e00900080004000601321008a
:104370000080400090007800c20c21002e009000c8
:10438000800140001e0090000080410000004000bd
:104390000000410001087800410d21001e0090003e
:1043a000000140002e00900000004100000040008d
:1043b00000804000110020000108780099003700bb
:1043c000c10d21002e009000000140001e00900051
:1043d0000000410000004000008040001000780014
:1043e0005200200001202000960707000000e00096
:1043f0006f003a00e1b321001e00900000804000f1
:1044000011c0b30001487800410d21001e0090004a
:10441000000140002e00900000004100000040001c
:10442000008040008000eb0001087800c10d2100f1
:104430002e009000000140001e009000000041008e
:104440000000400000804000900078000020200024
:10445000808f50002b003400c10d21002e009000f1
:10446000000140001e0090000000410000004000dc
:10447000008040001000780001e02f0080804000a4
:10448000a000200000017800110009008200d8007f
:10449000000f78001e009000800040006013210093
:1044a00000804000900078001e0178006a00410002
:1044b000808f50005b0036001e009000800040009e
:1044c0006013210000804000900078001e007800fa
:1044d000808050001e009000000140006013210009
:1044e00000004100010878001e009000800040009c
:1044f0006013210000804000100078007f1b07003f
:1045000048003700c10d21002e009000000140003e
:104510001e009000000041000000400000804000ac
:10452000100078000120200080805000a0002000b2
:1045300000017800110009008200d800000f780007
:104540001e009000800040006013210000804000a9
:1045500090007800e06f20001e005000808f500017
:10456000300031001e0090008000400060132100e8
:1045700000804000900078001e007800808040009d
:104580001e00900000014000601321000000410067
:10459000010878001e009000800040006013210098
:1045a0000080400010007800541b07001d003700f9
:1045b000e1b321001e0090000080400011c0b30054
:1045c000014878001e009000800040006013210028
:1045d0000080400090007800c20c21002e00900066
:1045e000800140001e00900000804100000040005b
:1045f0000000410001087800410d21001e009000dc
:10460000000140002e00900000004100000040002a
:1046100000804000110020000108780001003700f0
:10462000000000000080fa00000006000400fa000c
:10463000000f7800110798000080fa0000000600c3
:104640000400fa00000f7800110798000080fa00bb
:10465000000006000800fa002007980031079800c3
:10466000703e2000000f7800703e20001007980078
:104670002e009000c70707002e01900021032000a4
:104680008191b900a1b021008100410080487800eb
:10469000c10d21003e009000000140002e0090005e
:1046a000000041000000400000804000f170220046
:1046b00001087800ae009000200320008088b90037
:1046c0000103200080804000a0ad21000080400058
:1046d000104078000080fb0061006000004078001e
:1046e0000004e00096003200ae009000200320009d
:1046f0008088b9000103200080804000a0ad210027
:1047000000804000104078000080fb0062006000e4
:104710000000e0008a003200ae009000200320007c
:104720008088b900ea004000a0ad21000080400070
:10473000900078002e019000200320008090b900a6
:104740000081e800a0ad21000000410010007800c9
:10475000f2002000bb0607000000e000310032003c
:10476000ae009000200320008088b9008080e8001f
:10477000a0ad210000804000900078002e01900044
:10478000200320008090b9006a014000a0ad210004
:1047900000004100100078000080500000f0a700e9
:1047a0000000ea009e0f50001e003d00ae00900089
:1047b000200320008088b90080007800a0ad21008f
:1047c00000804000900078002e019000200320001f
:1047d0008090b90068014000a0ad210000004100b8
:1047e0001000780080804000200020000001780048
:1047f000110009008200d80080007800c20d21005d
:104800002e009000000040000000410001087800e8
:10481000c10d21002e0090000000400000804000eb
:10482000100f7800ae009000200320008088b900af
:10483000e8004000a0ad210000804000900078001a
:104840002e019000200320008091b900a0ad21002e
:104850000000410010007800f200200079060700f7
:104860000000e00036003200ae009000200320007f
:104870008088b90080007800a0ad21000080400051
:10488000900078002e019000200320008090b90055
:1048900068014000a0ad2100000041001000780038
:1048a000008050008000780001f0a7008100ea003d
:1048b0001e009000808f500021003d00ae0090004f
:1048c000200320008088b90080007800a0ad21007e
:1048d00000804000900078002e019000200320000e
:1048e0008090b90068014000a0ad210000004100a7
:1048f0001000780080804000200020000001780037
:10490000110009008200d80080007800c20d21004b
:104910002e0090000080e8000000400000004100f0
:1049200001087800c10d21002e0090000080e800f1
:1049300000004000008040009000780011079800bf
:10494000ae009000200320008088b9000103200001
:1049500080804000a0ad2100008040001040780021
:104960000080fb0061006000004078000004e0006f
:1049700096003200ae009000200320008088b9002d
:104980000103200080804000a0ad21000080400095
:10499000104078000080fb00640060000000e00030
:1049a0008a003200ae009000200320008088b90009
:1049b000f2004000a0ad210000804000900078008f
:1049c0002e019000200320008090b9000081e800b3
:1049d000a0ad21000000410010007800f20020008e
:1049e000180607000000e00031003200ae00900021
:1049f000200320008088b9008080e800a0ad21005d
:104a000000804000900078002e01900020032000dc
:104a10008090b90072014000a0ad2100000041006b
:104a2000100078000080500000f0a7000000ea00ad
:104a30009e0f50001e003d00ae009000200320009d
:104a40008088b90080007800a0ad2100008040007f
:104a5000900078002e019000200320008090b90083
:104a600070014000a0ad210000004100100078005e
:104a70008080400020002000000178001100090023
:104a80008200d80080007800c20d21002e00900026
:104a9000000040000000410001087800c10d210025
:104aa0002e0090000000400000804000100f7800b1
:104ab000ae009000200320008088b900f000400084
:104ac000a0ad210000804000900078002e019000f1
:104ad000200320008091b900a0ad2100000041001a
:104ae00010007800f2002000d60507000000e0006a
:104af00036003200ae009000200320008088b9000c
:104b000080007800a0ad2100008040009000780077
:104b10002e019000200320008090b9007001400019
:104b2000a0ad21000000410010007800008050007e
:104b30008000780001f0a7008100ea001e009000cc
:104b4000808f500021003d00ae0090002003200027
:104b50008088b90080007800a0ad2100008040006e
:104b6000900078002e019000200320008090b90072
:104b700070014000a0ad210000004100100078004d
:104b80008080400020002000000178001100090012
:104b90008200d80080007800c20d21002e00900015
:104ba0000080e8000000400000004100010878009b
:104bb000c10d21002e0090000080e80000004000a0
:104bc000008040009000780011079800ae0090002f
:104bd000200320008088b90001032000808040006d
:104be000a0ad210000804000104078000080fb0054
:104bf00061006000004078000004e0009600320090
:104c0000ae009000200320008088b900010320003e
:104c100080804000a0ad210000804000104078005e
:104c20000080fb00680060000000e0008a003200a5
:104c3000ae009000200320008088b900fa004000f8
:104c4000a0ad210000804000900078002e0190006f
:104c5000200320008090b9000081e800a0ad210071
:104c60000000410010007800f200200075050700e8
:104c70000000e00031003200ae0090002003200070
:104c80008088b9008080e800a0ad2100008040004d
:104c9000900078002e019000200320008090b90041
:104ca0007a014000a0ad2100000041001000780012
:104cb0000080500000f0a7000000ea009e0f5000a6
:104cc0001e003d00ae009000200320008088b90047
:104cd00080007800a0ad21000080400090007800a6
:104ce0002e019000200320008090b9007801400040
:104cf000a0ad21000000410010007800808040003d
:104d00002000200000017800110009008200d80076
:104d100080007800c20d21002e00900000004000ad
:104d20000000410001087800c10d21002e00900014
:104d30000000400000804000100f7800ae0090009e
:104d4000200320008088b900f8004000a0ad2100b9
:104d500000804000900078002e0190002003200089
:104d60008091b900a0ad2100000041001000780042
:104d7000f2002000330507000000e000360032009a
:104d8000ae009000200320008088b90080007800e9
:104d9000a0ad210000804000900078002e0190001e
:104da000200320008090b90078014000a0ad2100d0
:104db0000000410010007800008050008000780062
:104dc00001f0a7008100ea001e009000808f5000d3
:104dd00021003d00ae009000200320008088b90033
:104de00080007800a0ad2100008040009000780095
:104df0002e019000200320008090b900780140002f
:104e0000a0ad21000000410010007800808040002b
:104e10002000200000017800110009008200d80065
:104e200080007800c20d21002e0090000080e80074
:104e3000000040000000410001087800c10d210081
:104e40002e0090000080e80000004000008040003c
:104e50009000780011079800ae0090002003200019
:104e60008088b9000103200080804000a0ad2100af
:104e700000804000104078000080fb00620060006d
:104e80000000e00097003200ae00900020032000f8
:104e90008088b9000103200080804000a0ad21007f
:104ea00000804000104078000080fb00640060003b
:104eb0000000e0008b003200ae00900020032000d4
:104ec0008088b900f2004000a0ad210000804000c1
:104ed000900078002e019000200320008090b900ff
:104ee0006a014000a0ad21000000410010007800e0
:104ef000f2002000d30407000000e000310032007f
:104f0000ae009000200320008088b900ea00400035
:104f1000a0ad210000804000900078002e0190009c
:104f2000200320008090b90072014000a0ad210054
:104f300000004100100078000080500000f0a70041
:104f40000000ea009e0f50001e003d00ae009000e1
:104f5000200320008088b900e8004000a0ad2100b7
:104f600000804000900078002e0190002003200077
:104f70008090b90070014000a0ad21000000410008
:104f800010007800808040002000200000017800a0
:104f9000110009008200d80080007800c20d2100b5
:104fa0002e00900000004000000041000108780041
:104fb000c10d21002e009000000040000080400044
:104fc000100f7800ae009000200320008088b90008
:104fd000f0004000a0ad210000804000900078006b
:104fe0002e019000200320008090b900680140004d
:104ff000a0ad21000000410010007800f200200068
:10500000900407000000e00036003200ae0090007f
:10501000200320008088b900e8004000a0ad2100f6
:1050200000804000900078002e01900020032000b6
:105030008090b90070014000a0ad21000000410047
:1050400010007800008050008000780001f0a70078
:105050008100ea001e009000808f500021003d007a
:10506000ae009000200320008088b900e8004000d6
:10507000a0ad210000804000900078002e0190003b
:10508000200320008090b90070014000a0ad2100f5
:1050900000004100100078008080400020002000c7
:1050a00000017800110009008200d800800078001b
:1050b000c20d21002e0090000080e800000040009a
:1050c0000000410001087800c10d21002e00900071
:1050d0000080e80000004000008040009000780060
:1050e00011079800ae009000200320008088b900ce
:1050f0000103200080804000a0ad2100008040001e
:10510000104078000080fb00620060000000e000ba
:1051100097003200ae009000200320008088b90084
:105120000103200080804000a0ad210000804000ed
:10513000104078000080fb00680060000000e00084
:105140008b003200ae009000200320008088b90060
:10515000fa004000a0ad21000080400090007800df
:105160002e019000200320008090b9006a014000c9
:10517000a0ad21000000410010007800f2002000e6
:10518000300407000000e00031003200ae00900063
:10519000200320008088b900ea004000a0ad210073
:1051a00000804000900078002e0190002003200035
:1051b0008090b9007a014000a0ad210000004100bc
:1051c000100078000080500000f0a7000000ea0006
:1051d0009e0f50001e003d00ae00900020032000f6
:1051e0008088b900e8004000a0ad210000804000a8
:1051f000900078002e019000200320008090b900dc
:1052000078014000a0ad21000000410010007800ae
:10521000808040002000200000017800110009007b
:105220008200d80080007800c20d21002e0090007e
:10523000000040000000410001087800c10d21007d
:105240002e0090000000400000804000100f780009
:10525000ae009000200320008088b900f8004000d4
:10526000a0ad210000804000900078002e01900049
:10527000200320008090b90068014000a0ad21000b
:105280000000410010007800f2002000ed0307004c
:105290000000e00036003200ae0090002003200045
:1052a0008088b900e8004000a0ad210000804000e7
:1052b000900078002e019000200320008090b9001b
:1052c00078014000a0ad21000000410010007800ee
:1052d000008050008000780001f0a7008100ea0003
:1052e0001e009000808f500021003d00ae00900015
:1052f000200320008088b900e8004000a0ad210014
:1053000000804000900078002e01900020032000d3
:105310008090b90078014000a0ad2100000041005c
:1053200010007800808040002000200000017800fc
:10533000110009008200d80080007800c20d210011
:105340002e0090000080e8000000400000004100b6
:1053500001087800c10d21002e0090000080e800b7
:105360000000400000804000900078001107980085
:10537000ae009000200320008088b90001032000c7
:1053800080804000a0ad21000080400010407800e7
:105390000080fb00640060000000e0009700320025
:1053a000ae009000200320008088b9000103200097
:1053b00080804000a0ad21000080400010407800b7
:1053c0000080fb00680060000000e0008b003200fd
:1053d000ae009000200320008088b900fa00400051
:1053e000a0ad210000804000900078002e019000c8
:1053f000200320008090b90072014000a0ad210080
:105400000000410010007800f20020008d0307002a
:105410000000e00031003200ae00900020032000c8
:105420008088b900f2004000a0ad2100008040005b
:10543000900078002e019000200320008090b90099
:105440007a014000a0ad210000004100100078006a
:105450000080500000f0a7000000ea009e0f5000fe
:105460001e003d00ae009000200320008088b9009f
:10547000f0004000a0ad21000080400090007800c6
:105480002e019000200320008090b9007801400098
:10549000a0ad210000004100100078008080400095
:1054a0002000200000017800110009008200d800cf
:1054b00080007800c20d21002e0090000000400006
:1054c0000000410001087800c10d21002e0090006d
:1054d0000000400000804000100f7800ae009000f7
:1054e000200320008088b900f8004000a0ad210012
:1054f00000804000900078002e01900020032000e2
:105500008090b90070014000a0ad21000000410072
:1055100010007800f20020004a0307000000e000bd
:1055200036003200ae009000200320008088b900d1
:10553000f0004000a0ad2100008040009000780005
:105540002e019000200320008090b90078014000d7
:10555000a0ad210000004100100078000080500044
:105560008000780001f0a7008100ea001e00900092
:10557000808f500021003d00ae00900020032000ed
:105580008088b900f0004000a0ad210000804000fc
:10559000900078002e019000200320008090b90038
:1055a00078014000a0ad210000004100100078000b
:1055b00080804000200020000001780011000900d8
:1055c0008200d80080007800c20d21002e009000db
:1055d0000080e80000004000000041000108780061
:1055e000c10d21002e0090000080e8000000400066
:1055f0000080400090007800110798000080fa00b9
:10560000000006000000fa0010c0b3003af1b70035
:10561000e0b321008040eb0001487800f0b32100a6
:105620008040eb0001487800400d21008000eb0035
:1056300011009800400d21008000eb000108780067
:10564000400d21008000eb0031009800400d21004a
:105650008000eb0021009800a0b021008040eb000a
:1056600001487800c0b321008040eb000148780079
:10567000c00c21008000eb0011009800c00c21003c
:105680008000eb0001087800c00c21008000eb00d6
:1056900031009800c00c21008000eb002100980030
:1056a0000080fa00000006000400fa00000f7800f5
:1056b000110798009e0078000000eb00e5fb070052
:1056c0009e00900010002000e2fb07009e00780082
:1056d0000000eb00faf907009e0090001000200087
:1056e000f7f907009e0090001e007800cffb07002e
