:020000040000fa
:080000000002040000000000f2
:020000040000fa
:100008008c0300008c0300008c0300008c030000ac
:100018008c0300008c0300008c0300008c0300009c
:100028008c0300004c0300008c0300003403000024
:100038008c0300006c0300008c0300008c0300009c
:100048008c0300008c0300008c0300004c4500006a
:10005800724500008c0300008c0300008c03000034
:100068008c030000d84000008c0300008c030000c3
:100078008c0300008c0300008c0300008c0300003c
:100088008c0300008c0300008c0300008c0300002c
:100098008c0300008c0300008c0300008c0300001c
:1000a8008c0300008c0300008c0300008c0300000c
:1000b8008c0300008c0300008c0300008c030000fc
:1000c8008c0300008c0300008c0300008c030000ec
:1000d8008c0300008c0300008c0300008c030000dc
:1000e8008c0300008c0300004e4300008c030000ca
:1000f8008c0300008c0300008c0300008c030000bc
:100108008c0300008c0300008c0300008c030000ab
:100118008c0300008c0300008c0300008c0300009b
:100128008c0300008c0300008c0300008c0300008b
:100138008c0300008c0300008c0300008c0300007b
:100148008c0300008c0300008c0300008c0300006b
:100158008c0300008c0300008c0300008c0300005b
:100168008c0300008c0300008c0300008c0300004b
:100178008c0300008c0300008c0300008c0300003b
:100188008c0300008c0300008c0300008c0300002b
:100198008c0300008c0300008c0300008c0300001b
:1001a8008c0300008c0300008c0300008c0300000b
:1001b8008c0300008c0300008c0300008c030000fb
:1001c8008c0300008c0300008c0300008c030000eb
:1001d8008c0300008c0300008c0300008c030000db
:1001e8008c0300008c0300008c0300008c030000cb
:1001f8008c0300008c0300008c0300008c030000bb
:100208008c0300008c0300008c0300008c030000aa
:100218008c0300008c0300008c0300008c0300009a
:100228008c0300008c0300008c0300008c0300008a
:100238008c0300008c0300008c0300008c0300007a
:100248008c0300008c0300008c0300008c0300006a
:100258008c0300008c0300008c0300008c0300005a
:020000040000fa
:100400004f7d21000eff2d000e018800000000002e
:1004100000012000200288000c000700a05a2400e0
:10042000010020000f000700000020000000e00095
:1004300002003200000002000000000066490200d5
:10044000000000000040da000000fe00200a20004a
:100450000000e0000200320000202000900188002f
:1004600000000600a1028800800078000000eb0078
:100470001a003700e280400054a0b4009101ba0095
:10048000e280400054a0b4009102ba00e280400033
:1004900054a0b4000002eb00472bde00f507b200c9
:1004a000a6018800602ce10008003a000049eb003a
:1004b0000201e800020039003420ec0002f0a00044
:1004c0008301e900f9ff3e00040037006128e100e4
:1004d000010032000082eb00040007001101ba00a5
:1004e0000200e000e3ff3a000000060004d0a30091
:1004f000e20f49001c003900810278003549ba003a
:100500000201e800020039003420ec0002f0a000f3
:100510008301e9000f0032002549ba000201e8001a
:10052000020039003420ec0002f0a0008301e90051
:10053000080032000400e0000600320015c9ba00cd
:100540000201e800020039003420ec0002f0a000b3
:100550008301e9008180e80054a0b4000300e000ba
:10056000e2ff3a00000006009102ba000559780047
:100570008301e900f7ff3200c82ade000559780040
:100580008301e900f3ff32000400e000f1ff3200d4
:1005900011d9ba00eeff37004e3f04000000000002
:1005a000603f0400000000001a400400000000004a
:1005b000d23f040000000000c04004000000000022
:1005c000b4400400000000002640040000000000c9
:1005d000324004000000000046400400000000001b
:1005e0006440040000000000a0400400000000007f
:1005f000c441040000000000d641040000000000d7
:100600009042040000000000484204000000000086
:1006100036430400000000002a43040000000000ec
:100620009c42040000000000a842040000000000fa
:10063000bc42040000000000da4204000000000098
:100640001643040000000000fc4404000000000009
:100650000a450400000000001845040000000000e6
:100660002645040000000000841f78000000fa0006
:10067000049b80000402e800049b8800c499800069
:100680000402e800c49988000068a9000080fa000c
:100690004f02780000400600801f7800841f780019
:1006a0000000fa00049a80000402e800049a88001e
:1006b000240a8000449a880014c0b30004407800e3
:1006c0003ef3b7000028a9000080fa004f0278002e
:1006d0004f00780000400600801f7800841f7800db
:1006e0000000fa00149a80000402e800149a8800be
:1006f000640a8000549a880014c0b3000440780053
:100700003ff3b70000a8a9000080fa004f0278006c
:100710004f007800004006000040da000000fe00b4
:1007200003f0a200889fbe008a9fbe008c1f780045
:1007300002010700090133006450e1004f0032005c
:100740006420e1005200320003826c0007003b008d
:100750000905d0000306d000820f54000c065d008e
:100760000200390002003200890178000306780097
:100770008582550004003d000003fd008103fd005b
:100780008502ea008b854200840f720002003b0064
:1007900060001000e08018006011b8000005eb0058
:1007a0007a28e1000a00390006007800c75ddd0004
:1007b000f707b200878075002d0037008281710035
:1007c0000a017800610560008180d1000080d300bb
:1007d0008502e900f9ff3b000604400087844800d9
:1007e00002003b0060041400e0841c000988a300a0
:1007f000070032008a81710082817100610164000a
:100800008904d1000884d3008b05e8001700370065
:100810000978a30013003a000b00e0001300340035
:100820008b05e9000804440089844c000a447400e4
:100830000978a3000d003a000b00e0000700340027
:100840008b05e9000804440089844c0001003a004b
:100850000b0020000978a300f7ff32000001eb0035
:1008600002003700828171000a01780078000700d9
:100870000cf0a70001f0a000c10037006420e100e7
:1008800002003a00838f6c00c10033000801be00f3
:100890000200be00ba0037000001eb005e01370025
:1008a0000081eb00f1003700889fbe008a9fbe00e8
:1008b0008c1f7800a1000700a800330003866c009d
:1008c0006450e1002e0032006420e1003300320069
:1008d0006150e1002f0032006120e1003100320060
:1008e00085855500eb07b0000900200008042000b2
:1008f000050037000804440089844c000a003100d8
:100900000603430087834b000001530081815b0095
:10091000f8ff33000203be000800a00008044400f2
:1009200089844c00f6ff3900c639dd00830173006d
:1009300001003200130020008904d1000884d30094
:100940000998a300050032000800a7000300a000da
:100950008904d1000884d3008b05e8008904d10004
:100960000884d3000001eb000281d20038000700a8
:1009700001f0a1000cf0a70001f0a00080003700fa
:100980006420e100820032000801be000200be00c7
:10099000f7ff37006120e1007d0032006000b80001
:1009a000f3ff37000000200001f82700f0ff3700b8
:1009b000140020007f013700f4ff2f007d01370075
:1009c0000001be00480007000470a70003f0a1006a
:1009d0006509b100160032000d0035006828e100fd
:1009e00006003500f0ff2f00f1ff27000300e000b4
:1009f00013003b000100280000000500000040003b
:100a0000818048008502e900fcff3a0008003700b9
:100a1000f88f420002003c008000eb00000005005f
:100a20008100d1000080d3008502e800fcff3a007d
:100a30000300e00002003b0060001000e0801800ae
:100a4000000006004f89de00820178007401370043
:100a500081002000618055000b003d000b0020004c
:100a600061fe2f000100e1001d0034008281710051
:100a7000610164008904d1000884d3000000e8000b
:100a8000faff3a007100200061006400030070006a
:100a9000020060000900320061044400e0844c0060
:100aa0000988a500050032008b05e8006808e10010
:100ab00002003a008904d1000884d300f20f20001c
:100ac0000258e10005003d00c75ddd00f907b200f6
:100ad0008980750008007800000006000bf82700e8
:100ae0008b00780000000500c70ade00f107b200a5
:100af000f50fb20008003200e1cf420002003200e0
:100b00000170a00024000500810f70000100320078
:100b10000408050044000500810f700002003a003f
:100b2000140005008502e9000000400081c0480073
:100b3000fcff3b000170a000240005000004be0083
:100b4000e9ff07000003be000405be000200be006e
:100b5000e5ff0700844f7500000006000200be009c
:100b60006450e100050036006420e1000200360018
:100b70000968a30001003a000800be000160a0005f
:100b80004f0678004f05be004f04be00000006006f
:100b9000f0ff2f00f1ff2700f9ff3700889fbe000c
:100ba0008a9fbe008c1f7800e4ff0700ebff330034
:100bb00003866c006450e100240032006420e100f0
:100bc000270032006150e100220032006120e10084
:100bd000210032008b854200eb07b1000134b800e0
:100be000003ab8000804420089844a00013ab8007b
:100bf0000030b8008880400009014a00040033003a
:100c00000000400081804800020149008b05e90096
:100c1000c909dd00830170000100320013002000cb
:100c2000c814de004814dd004709de001200b200df
:100c3000c808de000884700085ff070001f0a100ed
:100c40000cf0a70001f0a000cdff37006120e1000b
:100c5000cfff32000801be000200be00f7ff3700e0
:100c60006150e100fcff3a00c9ff3700889fbe00d9
:100c70008a9fbe008c9fbe00820578000004be00e3
:100c800099ff07000800be006420e100070039005a
:100c900002003a00f1ff2700f0ff2f000160a000e2
:100ca00012022000329c8800550037006120e100cc
:100cb00003003a000b00a70001f8230050003700a2
:100cc00001f0a100020021009364240038ff070016
:100cd0000800be0004003500b2fd2000930c240083
:100ce0000e0107000004be000005eb000b00a6008b
:100cf0004f0dde0001f0a1000004be0032982f006d
:100d000023ea2300a5ff07000001eb0003f0230006
:100d10000b00a70003f8230082fe070028ff07004e
:100d20000000a7000a00a20046ff07000b00e00039
:100d3000030032000200200003f0230078fe0700c9
:100d400001f0a2000006be0002002000930424006f
:100d500092ff07000801be0072fe0700809fbe00e0
:100d60000c00be0022a22a00d3a723008bff07009d
:100d70004f01be006bfe07000004be0001f0a100a1
:100d8000020020000398230009ff07000800be00ae
:100d9000190035000001be0080ff07000006be00fc
:100da000b2c52900e36223007cff070022222b004a
:100db000f3942b005bfe07000c01be0077ff0700d9
:100dc000e273280083c0230056fe07000c01be001a
:100dd00072ff070042aa2a00a3e22b0051fe07007f
:100de0000c01be006dff07000801be006bff07008d
:100df0000801be004bfe07000a00a70001f0a20098
:100e00004f06be004f05be004f04be0000000600a6
:100e10000001eb0095ff3700889fbe008a9fbe004f
:100e20008c9fbe000206780001f0a7000cf0a00025
:100e30000004be002cff07000800be006420e10093
:100e40000700390002003a00f1ff2700f0ff2f00f1
:100e50000160a00012022000329c8800510037007f
:100e600009f0a1000800be000200200003f82300e2
:100e7000d1fe0700f4ff3c000800be000200200085
:100e800003982300cafe07000800be0030003500aa
:100e90000200200003f02300c7fe070005003c000d
:100ea0000800be000801be003cff07000005be00b0
:100eb0000e0037000c10a2000000200001f82300f3
:100ec0000801be0016fe07000200200003f0230008
:100ed00032ff07000005be00e1000700020020000d
:100ee00003002c002dff07000004be000a00be0016
:100ef000b2d02800130b2c000afe07000a01be0026
:100f000026ff0700020f2500330b240005fe070013
:100f1000809fbe000a00be005206220013f02b0084
:100f20001eff0700b2662100f3f62300fdfd070057
:100f30000a01be0019ff07004f01be005afe07005c
:100f40000801be0015ff07000801be00f5fd0700ff
:100f50000c00a70007003700b2fd200093fc23001f
:100f60000c10a700effd07000cf0a70001f0a20095
:100f70000c0037000cf0a7000200370001f0a200bf
:100f800004003700b2fd2000930424000c10a600da
:100f900003003700b2fd200093fc23000c10a700d3
:100fa000e0fd07004f06be004f05be004f04be0027
:100fb00000000600889fbe008a9fbe00841f780044
:100fc000defe07004f00780011003300f0ff2f0015
:100fd000838f6c0006003b00040565000a00a70033
:100fe0000800370009f0a6001000200008003700b4
:100ff000820f5400838f5c00030039001000200032
:1010000001003e000000200009f0a7000000ea00f7
:101010004f05be004f04be000000e00000000600c7
:10102000881f7800030478000300e00007003d00fb
:1010300060001000e080180060011900e0811900d4
:1010400002003b0001f02d00030037000400070000
:1010500008f0a70001f0a0004f047800000006008f
:10106000889fbe008a9fbe0000827000040271004b
:1010700004827100260032000004be000200be009f
:101080006011b8006b092000950220000182cf009a
:101090000a0039000541b1000082cf000700390085
:1010a0000541b1000982cf00040039000541b100bb
:1010b0000882cf00010039000541b100054252000d
:1010c000120032000a003b0082817100610164005d
:1010d0008100d1000080d3008984d3000884d3002c
:1010e0008b05e8000442e800f7ff3a0007003700ec
:1010f0000804440089844c000000480081804800b6
:101100008b05e9000442e900f9ff3a0050fe0700b0
:101110004f05be004f04be00000006000400200082
:1011200000003700889fbe008a9fbe008c1f780099
:101130004f26dd0081fe070088fe33006120e100bc
:10114000430032006250e10041003e003e003900a1
:101150006420e1003c003200058255000f003b0096
:101160000402e80038003a00800f5300818f5b00d2
:10117000350034000800be0003f0a10001f0a60015
:1011800003f0a0000cf0a70066fd07007cfe37000e
:101190000603430087834b000c46460000055300be
:1011a00081855b00020033000a03be000c00a00032
:1011b0000402e900f6ff3b008505780006024300c3
:1011c00087824b0004003a006000b80009f0a700d5
:1011d00001f0a0006afe37000002520081825a002e
:1011e0000704e000040033000603430087834b003c
:1011f0008b05e900faff3700090578000604be00f8
:101200000203be006011b80011fe0700e00f52009b
:10121000e08f5a000700350002003c000c08a300d4
:10122000040032000601be0003f0a0000cf0a7008d
:101230003cfd07000a85680001f0a1000af0a70044
:1012400001f0a0004efe37000800be004cfe370043
:10125000100220000cf0a600309c88004cfe3700e5
:10126000889fbe008a9fbe008c1f78000004be00cd
:101270001dfe07000478a30026003a006120e1006b
:101280002500320009f8a30025003a006420e1009f
:1012900021003200f507b1000508a300020032006a
:1012a00000004000818048006044b8000310200026
:1012b0000200200000004000818048000805440032
:1012c00089854c000a0541008b8549000a055000bc
:1012d0008b855800030033000a00be00020474002e
:1012e000838474008301d1000281d300830f7100d5
:1012f000f0ff3a008904d1000884d300600149005e
:1013000082017800c1adde00fb07b000d0fd070010
:101310001bfe37000960a0000800be0018fe370061
:1013200012022000329c8800f0ff2f00f1ff2700fe
:1013300013fe37000400fa00889fbe008a9fbe009b
:101340008c9fbe00645c210035ae8000e08f5200af
:101350000b003a00e402420035ae880085ae8800fa
:101360002402980074ae8800a44290000504a000f6
:1013700025429800e44290000504a00065429800d0
:10138000670440004244de004244dd0072ae80004b
:10139000045e2100497d2100848454002500200042
:1013a000110009008504d800000f78008502440070
:1013b00085824200150798000003eb00e405440015
:1013c0007c7d210004065600080646000200370016
:1013d000160020000d017800224290006102620098
:1013e000020032000a0037001509780092027800e6
:1013f0002542900061026200fbff320008024100ba
:10140000848f520002003900e00f54003e003d007e
:10141000920678000d00a100828f5600edff3e007d
:10142000e10f5300eaff3a001e027800840f5400d7
:1014300002003600890f54000f0039006143b800e4
:10144000614ab900b0ff2f000100200004025000e3
:1014500085825800840f5300858f5b0002003500a1
:101460000b05780005003700110009000986d80037
:101470008905b800010037001e0590000a007800b9
:10148000df050700e10f400005003a000b0578007a
:101490000b007800da050700e10f40002b00320056
:1014a00084ae8000000a780084ae800064034200ad
:1014b000a4429000860f5000020032000504a000f4
:1014c000010037000504a10025429800640555007d
:1014d0000a0540000a0878008aae8800645c210092
:1014e000040d780085ae8000254290000404a00021
:1014f000a4429800204290000404a10024409800d7
:101500000003eb00b3ff370074ae8800848f5200f5
:10151000070036001403be0096ae8800a7ae880010
:10152000120a78008042eb0074ae800025429800d9
:1015300077ae800007097800224290000404a000e2
:101540002441980064004100010037000000eb00d6
:101550004f06be004f05be004f04be000080fa00db
:10156000000006000000fa00e00f50000800320002
:101570006400500074ae8000840f50000100310000
:1015800070ae8800204290000404a100244098001e
:101590000080fa00000006000000fa00889fbe00ec
:1015a0008a9fbe000004be00e08f540005003a0090
:1015b000e00f54003200320008007800e9ff070015
:1015c00030003700e00f540004003a0009007800b2
:1015d00058ff0700800478002a0037006402540096
:1015e0009405780068fa97006102620002003200f8
:1015f00008007800dbff0700090078004dff0700b6
:1016000080047800e08f54001e003200888f540060
:101610001b00320069bd97000905550042d5de0068
:1016200088855500c2ddde000a0178008b0f550069
:10163000010036000b0178004211dd0088007800bf
:101640000900780014000700888f54000d00310055
:101650004255dd000a854400880f55000900360018
:101660000804550042c4de004244dd000884440002
:1016700094ae8000a5ae8000048cbe00010037004f
:1016800088047800090078004f05be004f04be00b2
:101690000080fa00000006000000fa000002780056
:1016a00002003700315a78000201e900e00f5100d2
:1016b000fcff3a000080fa00000006000000fa007b
:1016c0000002780002003700015a78000201e900a8
:1016d000e00f5100fcff3a000080fa000000060015
:1016e0000000fa0068015700ceb897004059210069
:1016f000b30007000080fa00000006000800fa00ae
:10170000889fbe008a9fbe000084fb00d4c6b30041
:10171000844f50002c0036004b06200011000900b9
:101720000b84d80081057800720040004300dd0082
:1017300089432100008044006022b8000600200098
:1017400007fe23005001be004000be001507070041
:101750000002be000203be00049fbe000697be004a
:10176000aa002000110009008a85d80080057800b1
:10177000e9854500c35ddd008b8544003b02be006a
:101780002b03be003e00be002e01be000507070071
:101790000002be000203be00049fbe000697be000a
:1017a000110009000a84d800010478004344dd00d8
:1017b000888444003902be002903be003e00be00fa
:1017c0002e01be001d003700ea4f50001300360006
:1017d000aa002000110009000a84d8000105780041
:1017e000690440004344dd0089432100088444002b
:1017f0006022b8000600200007fe23003800be006b
:101800002801be00e70607004355dd008a84440036
:101810003902be002903be00080037004344dd0042
:1018200084432100080442006022b8000600200022
:1018300007fe23003800be002801be00d9060700bd
:101840004f05be004f04be000080fa0000000600f5
:101850000800fa00889fbe008a9fbe00d4c6b3006d
:10186000e04f500022003d000040ea000004fb0071
:10187000844f50000a003400440620001100090083
:101880000404d800a9002000110009008900d80034
:10189000e9004000c308dd008a4321002000370032
:1018a000ea4f50000f003400a4002000110009008e
:1018b0000404d800690040004300dd008443210097
:1018c00000004200430cdd00080242005403be0049
:1018d0004402be005001be004000be00b106070039
:1018e000330037004344dd00844321002d003700de
:1018f0000004fb00844f50001f0034004406200009
:10190000110009000404d800a900200011000900fa
:101910008900d800e9004000c308dd008a382100b2
:10192000810045003102be002103be008b0920006a
:101930008a8545003b00be002b01be0099060700ca
:101940000002be000203be00049fbe000697be0058
:10195000110009000904d800010478004344dd00a7
:10196000080545003a02be002a03be003e00be0044
:101970002e01be00d9ff3700ea4f500007003400a7
:10198000a4002000110009000404d80069004000f0
:101990004300dd0084382100c9ff37004344dd00e7
:1019a00084382100080442003800be002801be002f
:1019b0004f05be004f04be000080fa000000060084
:1019c0004000fa00889fbe008a9fbe008c9fbe0028
:1019d00030179800010f9800520f98006000b8006f
:1019e0006011b800100f9800210f9800320f980076
:1019f000430f98000006eb00bc0337008e089000f0
:101a00008100e800010f980054c2b300844f5000d9
:101a100006003a00810378008002eb0000c3b300a7
:101a200001c2b300b2c2b300070037000000fb00e0
:101a3000be109000b8030700e10f4000ab03320076
:101a40000c06e800a9033700070278003743780046
:101a5000d3c2b300834f53000900320005003c009d
:101a6000814f530008003200824f53000c003a00af
:101a700007003700804f530009003a000600370086
:101a80000530a000f0ff37000500a000eeff370092
:101a90000510a000ecff37000520a000eaff37008a
:101aa000e2836200010032000500a100e8836200c9
:101ab000010032000520a1008603fb000703b100ee
:101ac000e98f53000d003e0004037800070020005a
:101ad000ea3ab800b603fb000703b1008483430071
:101ae000060278001600fb000003b100e90f500069
:101af000f7ff3600271798000a0037008003eb0035
:101b000027179800a7c2b300874f530005003a007b
:101b10005e089000c0007800500f980021179800d0
:101b20000402e800e6c2b300944f130017003a0025
:101b300005e0a00064435300d44f130003003200bb
:101b4000040378000000200009003700de0990003f
:101b500043037800530f9800061f98000402e80022
:101b6000c7c6b3000d003700ea00b800008043008c
:101b700006027800b603fb000703b100e98f5300ab
:101b8000f9ff3600001f9800f5ff370005c0a000e0
:101b90008003eb00071f9800f1ff37003443780003
:101ba000040f9800874f530016003200c4c6b300dc
:101bb000844f530009003c0069425200844f530097
:101bc0006100320063424200844f53001300320030
:101bd000e04f53004a0332007a00370054c7b30085
:101be000844f53007b00320063424200844f530015
:101bf0000d00320065425200844f530071003a00dc
:101c00000c003700708062000601200001003200e5
:101c10000600280086827200e0ff3700064f780039
:101c200005a0a0006d003700064f78000570a000e9
:101c30006a003700064f7800de0890004102780005
:101c4000510f980004047800e00f520001003a00a0
:101c5000e85a2100880378000002eb0001003700f9
:101c60000402e800048343000041eb00964f11009a
:101c7000fbff3a00840478008e199000e08f510039
:101c800003003200898f5100010031008304780085
:101c90008006eb002e139000890f530001003600e0
:101ca00089065300e8826200051f980014003a007c
:101cb00007003700be109000000220001603070046
:101cc000e10f4000010032000c06e8008d06e9003b
:101cd000e08f5600f7ff3a008086eb0008003700df
:101ce000080278003400fb0004047800be10900065
:101cf00009030700e10f4000010032000c06e80074
:101d0000090278008404e900e00f5200f4ff3a0071
:101d10008e1b9000e08f5300f40232000700370062
:101d2000be10900000022000fb020700e10f4000ff
:101d3000010032000c06e8008d06e900e08f560035
:101d4000f7ff3a00e90237005e0890004002780091
:101d5000500f980004007800cf80de000101780069
:101d60008201780040179800511798006217980078
:101d7000731798004800de00480add00000072007a
:101d8000004f78007083620009003200e04f50007d
:101d900007003200e14f4000050032001047980074
:101da0000e6b9000264798002900200003003700a2
:101db0008e6b900017479800190020000e04e80071
:101dc000adff3700064f78000e04780019002000a0
:101dd000a9ff3700064f7800050cb300451798009f
:101de000047020004e10900004026000bd0132001b
:101df00004002100040260000200320061002000a3
:101e0000011f98004e119000700261000500320021
:101e10005e0890004003be004002be00500f9800d4
:101e2000060037005e0990004200be00520f980085
:101e3000c40407000002be000203be00640f980045
:101e4000750f980006179800171798006022b800c1
:101e50006033b8006e089000fe0890000e119000ec
:101e60009e11900009040700e00f50000c003d0097
:101e70006e089000fe0890000e1190009e119000d8
:101e800003f0a200600f9800710f980002179800ed
:101e900013179800ce1090003100b300411798003e
:101ea0000002eb00240798006022b8006033b800fd
:101eb0006e089000fe0890000e1190009e11900098
:101ec00056040700e00f5000340032006e08900006
:101ed000fe0890000e1190009e119000a8050700ca
:101ee00064014700120507002e0090000000e90081
:101ef000e300b800a4002000110009000400d8008d
:101f000020079800e00f500002003d000000e900ab
:101f1000200798002e0490000840ea004cfe0700bd
:101f20006e0a9000fe0a90000e1390009e1390001f
:101f30001c0507000002be000203be00140f98003b
:101f4000250f9800360f9800470f98006022b800c0
:101f50000600200007ff2300cc030700e00f50001d
:101f600002003d000804e9000b0037006022b800c1
:101f700006002000470224001e089000ae089000d2
:101f80003e099000ce099000c5030700e00f500005
:101f9000020035000804e800280798008e1a900017
:101fa000f88f52000f003c0005407800d3fd070079
:101fb0000002be000203be006e089000fe08900002
:101fc0000e1190009e119000330307000002be0026
:101fd0000203be00640f9800750f98000617980062
:101fe000171798002e049000e90f540015003c00cc
:101ff0006022b8006033b8006e089000fe089000c0
:102000000e1190009e11900004040700e00f500094
:10201000320032006e089000fe0890000e11900011
:102020009e11900066040700e00f5000e08f5800fa
:10203000e00f5900e08f590028003a00e10f5400ea
:10204000260034000400200005002e00b6e0220027
:10205000170124001e089000ae0890003e09900071
:10206000ce09900089030700e00f500002003d00f8
:1020700073045400010037007204540028079800cc
:102080004e409000f2fd07000002be000203be00b9
:10209000140f9800250f9800360f9800470f9800ee
:1020a0006e089000fe0890000e1190009e119000a6
:1020b00080030700420407000205be000004be00c2
:1020c0006000b8006011b800600f9800710f9800b0
:1020d0000217980013179800170037006e08900039
:1020e000fe0890000e1190009e119000340407002d
:1020f0000205be000004be00620407000002be002c
:102100000203be006e089000fe0890000e119000c1
:102110009e119000180507000002be000203be00d9
:10212000640f9800750f980006179800171798000d
:102130000002eb0024079800014f210010c0b300fb
:10214000080037003102be003103be000440e10048
:1021500005c8e10006d0e10007d8e100030039001e
:102160000040e800f44f5000f6ff3a00004f7800be
:102170002e029000ae129000048252000e1b9000be
:10218000060252000000fb0080065200e00f5300e0
:10219000010032008d06e900ce13900063826300d7
:1021a000010032008d06e9004e10900064026000cc
:1021b0001d003200e202600061026000e08f520008
:1021c00006003200b0022000e00f52000100320091
:1021d0000080e800be10900004003700e00f5200bd
:1021e0000e003200be10900000022000ca0107005d
:1021f000e10f4000090032000c06e800070037003c
:10220000be10900000032000c3010700e10f400052
:10221000010032000c06e8008d06e900e08f560050
:10222000f7ff3c0032003700ce109000688260005b
:102230000a003a0007003700be109000000220009c
:10224000b5010700e10f4000010032000c06e80074
:102250008d06e900e08f5600f7ff3c004e1190001c
:10226000e202610061026100e08f5200060032006c
:10227000b0022000e00f5200010032000080e800b0
:10228000be10900016003700e00f52001800320018
:10229000be10900000022000110037008502fb00f4
:1022a000c32add00834e2100858241005503be0014
:1022b0004502be000800be000a01be007a05070004
:1022c000a4002000050020006033b8007f0507004f
:1022d0000403200000024200be10900004007800b9
:1022e0008d010700e10f4000010032000c06e800fc
:1022f0001e4278008442e900054f7800e04f52000a
:10230000e6ff3a0008003700be10900000032000ee
:1023100081010700e10f4000010032000c06e800d7
:102320000804e900280798002e049000e00f5400ec
:10233000f5ff3c000e1a9000f20f5200030034002b
:1023400024c1b300044f7800020037008e72900061
:10235000054f78001e4278008402fb000e1b90009f
:102360008502530025179800e04f52000600320006
:10237000be109000e002200067010700e10f40005e
:10238000010032000c06e8001e40780030fd070016
:102390000002be000203be006e089000fe0890001e
:1023a0000e1190009e119000fe03070084030700a9
:1023b000220037008502fb00c32add00874e210082
:1023c000858243003500be002501be00001f980035
:1023d000111f9800221f9800331f98000203be00af
:1023e0000002be000800be000a01be002e05070064
:1023f000a4002000050020006033b800330507006a
:102400000403200000024200be1090000400780087
:1024100041010700e10f4000010032000c06e80016
:102420000e1a90009e1a90002e1b9000be1b90006a
:102430000800be000a01be00240507000205be0018
:102440000004be001e4278008442e900054f780077
:10245000e04f5200d7ff3a000203be000002be0068
:10246000ae1490000f003700be1090000003200053
:10247000441f9800551f9800661f9800771f98000a
:10248000250107004e1a9000de1a90006e1b900086
:10249000fe1b9000e10f4000010032000c06e80036
:1024a0008904e900e08f5400efff3a00ce1090005d
:1024b000e88260000d013200e08f56000b0134000d
:1024c000be1090000002200013010700e10f400041
:1024d000010032000c06e8008d06e900f8ff3a0022
:1024e000020137004e119000e00f510005003d0041
:1024f000de0990004305be004304be00530f980060
:10250000150037004e139000f00263000c003200fb
:102510005e0990004200be00520f980030079800fc
:102520004107980054079800640798003e04900003
:10253000ce0490005e059000ee0590000600370086
:102540005e0a900044047800540f980009002000af
:102550000a0020000b0020008e1a9000e08f52002d
:1025600009003a0016002000061f9800e00f5400f2
:10257000e08f5c00e00f5d00e08f5d000200320044
:102580008003eb00071f98004e109000000cb20073
:10259000600f980004082000840f500010003200e3
:1025a000040c2000840f500021003a00054f210048
:1025b00014c0b3003500be003501be000040e1008c
:1025c00001c8e10002d0e10003d8e10017003900a2
:1025d0000442e800f44f5200f6ff3a0013003700bf
:1025e00014c0b30000012000010020006011b800f9
:1025f0000040e10001c8e10002d0e10003d8e100a1
:102600000a003900450020000000d0008180d2007f
:102610000281d2008381d2008502e900faff3a00ec
:102620000442e800f04f5200f1ff3a00044f7800f6
:102630001e02fb000e1b9000860f520002003d00a0
:10264000064f7800040037008e1b9000848f5300e3
:1026500001003d00041f98002e109000e00f500074
:1026600005003200ce10900063826000020032004c
:102670000000e90020179800040024004e1190008b
:102680000402610009003200ae1190000e1a9000a1
:10269000848f510003003400848151002317980077
:1026a000020037008002eb00251798001e02fb0095
:1026b0008006eb002e139000840f530001003400bd
:1026c00084065300ce139000648263001c00320025
:1026d000e282630061826300e08f520006003200f4
:1026e000b0022000e00f5200010032000080e8003c
:1026f000be10900004003700e00f520006003200c8
:10270000be1090000002200083000700e10f40008f
:10271000010032000c06e800e08f5600280032006d
:10272000be109000000320007b000700e10f400076
:10273000010032000c06e8008d06e900f6ff3700c4
:10274000e08f56000b0032004e10900068026000cf
:1027500008003a00be109000000220006e00070042
:10276000e10f4000010032000c06e8008d06e90090
:10277000f8ff3a00ce109000e282600061826000b3
:10278000e08f520006003200b0022000e00f52003d
:10279000010032000080e800be1090000400370005
:1027a000e00f520006003200be1090000002200030
:1027b00059000700e10f4000010032000c06e8005c
:1027c0000e1990000202e9004323dd00854e21002e
:1027d00085024300251798004222dd007407980007
:1027e000320037008e1990008301e900031f980022
:1027f0006e0a900005082000850f5200110032007b
:10280000040c20006e0b9000840f53001b003a0054
:102810002e1090003002be002003be000800be0053
:102820000a01be0020040700a400200005002000cb
:102830006033b8002504070004c3b300044f400010
:102840000e0037000802be000a03be007e009000a2
:102850000000e900050033008703d1000683d300a0
:102860008582d3000482d300f9ff37006f02620033
:10287000515b210001024200144f78001e00fb0052
:10288000be10900024000700e10f4000010032005c
:102890000c06e8002e1190006801510022179800e4
:1028a000fe019000e4815100730798000e1a900019
:1028b000e00f5200cbff3a004e139000e802630095
:1028c0000a003200e08f560008003400be1090006d
:1028d0000002200010000700e10f4000010032005c
:1028e0000c06e8008d06e900f8ff3a008e0b900018
:1028f00017407800004f7800e04f50003ffc3a004e
:102900000c0078004f06be004f05be004f04be000d
:102910000080fa00000006000000fa00889fbe0058
:102920000104780038029000e20262008084eb002b
:102930003b003200040378000620b20098029000a9
:1029400002003a00e08f520035003a000490a000e7
:102950003404980080047800f90fb200e08f520030
:1029600002003a00a8029000050c7800ea8f54009b
:1029700005003a000408b20003003a00880078001d
:10298000d0002000e4ff070018029000d802900059
:10299000850f52000b0032000402e8001404980076
:1029a00018027800094a7800040ce80015c0b3004a
:1029b000645d2100054a7800ea8f540018003a004f
:1029c00005003700880078000940780018000700eb
:1029d0008004780012003700380290000410b20022
:1029e0000f00320018019000a800900048009000ed
:1029f0005300070018029000840f500004003200ba
:102a0000380290000403b300340498008084eb0083
:102a10000002eb001404980028029000040c7800d7
:102a2000090078004f04be000080fa000000060094
:102a30000200fa00889fbe00004f78000104780071
:102a400038029000840278000504b20002003200cf
:102a50000000fb0033003700e202620005003a008c
:102a60000403b30034049800150498000080eb00c0
:102a70002c003700d8049000e08f540006003a0084
:102a8000120020008e007800480090002c00070003
:102a90001904980022003700a8029000e08f52002d
:102aa00008003a00955d210025049800050c780087
:102ab0002500200055049800150498000430a0005b
:102ac0003404980018019000a8009000480090007d
:102ad0001b000700280290008082eb00150498007c
:102ae0001e4a7800040ce800a4c0b3009e4f1200f8
:102af0000b003a00380290000410b20008003200c7
:102b000018019000a8009000480090000c000700f9
:102b10000002eb001404980028029000040c7800d6
:102b20001e00fb004f04be000080fa0000000600fb
:102b30000000fa0000c0da000080fa000000060081
:102b40000a00fa00e20f500022003e00e4ae8000ce
:102b5000e10f5200060032008723200046232000a8
:102b60002423200005232000e08f530004003a00b6
:102b70008722200046222000242220000522200057
:102b8000000028001500600003003a00800b780068
:102b900007002800958a7300054020009482620097
:102ba00001003a0014a0a00082027800060037005d
:102bb000940378000710b200fdff3200b103fb0060
:102bc000070b78008502e900e08f5200f8ff3a0019
:102bd0000800370034002000040f78001007980028
:102be00021079800320798000e007800d0ff0700f8
:102bf0003e019000020078000080fa00000006000c
:102c00000000fa00889fbe0080047800f0ae8000cb
:102c1000e00f500004003a000f0007000084eb00b2
:102c2000e00f500008003500f8ae8000e08f54003f
:102c3000050032000900440007000700e00f5000c3
:102c400001003d000084eb00080078004f04be0046
:102c50000080fa00000006000000fa00e00f5000bb
:102c600004003a00045e2100f4ae880000027800ff
:102c7000060037000082eb00457d2100850f5000e3
:102c800002003e00f0ae88000002eb000400780075
:102c90000080fa00000006002800fa00889fbe00ad
:102ca0008a9fbe008c9fbe00070678008786690059
:102cb0000c003b00030478008704780008f0a100b2
:102cc00009f0a100840f5000858f5800860f59002d
:102cd000890f5c00030033000cf0a20001003a00f1
:102ce0000cf0a100fe0007006400e1005f0032006c
:102cf000780147006408e100610032006c01470080
:102d0000748557003200be001201be003a04be00b6
:102d10001a05be001e039000be0a900085035300f2
:102d200006003d000004fd008104fd000205fd00d9
:102d30008305fd008703ea00050378000df8a30072
:102d40000400320060041400e0841c0060051d00d3
:102d5000e0851d006022b8007d0320000d38e100f1
:102d60008006eb000b0039004433dd00f300b200b5
:102d70008301730039003700848272000d027800ed
:102d8000e10664008b85d1000a85d3008984d300d5
:102d90000884d3008703e900f7ff3b0008004000e8
:102da000898048000a0149008b81490004003b00ea
:102db00060001000e080180060011900e081190037
:102dc0000358a300090032008d82720084827200d1
:102dd000610260008301d1000281d3008180d300b1
:102de0000080d3000603e8001b0037000348a3005f
:102df00017003a000600e000170034000603e9005f
:102e00000d00a30000004800818048000201490035
:102e1000838149000348a3000f003a000600e00048
:102e2000090034000603e9000000400081804800ea
:102e3000020149008381490001003a000003eb00d0
:102e40000348a300f5ff32006022b80002003700fb
:102e500084827200618266007500070003f0a100a1
:102e60000cf0a70003f0a000b10037006401470098
:102e70006408e10002003a000df8a300a9003a003e
:102e80003200be001201be00a90037008f1fd10022
:102e9000f60207008f87e9000000e000000006004e
:102ea000809feb00f10207008f87e9000000e0003f
:102eb000000006002800fa00889fbe008a9fbe001e
:102ec0008c9fbe0003866b00850007006400e10054
:102ed000440032006408e1004a0032006100e10071
:102ee000460032006108e10049003200ec0647006c
:102ef0006000b8003d02be003d03be00f4865700ee
:102f00006011b8003d04be003d05be007d032000f9
:102f10000b0037000000a0008d06e900130032000e
:102f20000402420085824a0006034b0087834b005f
:102f3000000040008180480002014900838149006f
:102f40000802520089825a000a035b008b835b00ef
:102f5000f0ff3b000802420089824a000a034b004e
:102f60008b834b008d06e900edff3a0084827200ee
:102f700086827200f707b200878272000100320079
:102f8000150020001e0490003e0b90000603540024
:102f9000e63fb0000368a300070032000000a7006e
:102fa0000500a0008301d1000281d3008180d300fd
:102fb0000080d3000603e8008301d1000281d30022
:102fc0008180d3000080d3000002eb000482d20095
:102fd0001700070003f0a1000cf0a70003f0a00009
:102fe00053003700640247006408e1004d003200de
:102ff0003400be003401be00f6ff37006108e10076
:10300000480032006011b8006000b800f1ff3700de
:1030100003ff270002002000fbff3700801feb00aa
:10302000920207008f87e9000000e0000000060020
:103030001800200057002000080453000d003d0038
:103040000600200097fc2f000740e1001e0034001e
:1030500084827200610260008301d1000281d3008a
:103060008180d3000080d3000804e800f8ff3a0014
:10307000470020006104600005047400040464003b
:103080000d00320061004000e0804800600149000e
:10309000e081490003b8a500070032000603e800fc
:1030a0006538e10004003a008301d1000281d300b9
:1030b0008180d3000080d300f87f20000830e10039
:1030c00003003500080378006000b8006011b80004
:1030d0004433dd00f300b2008301730000000600fa
:1030e000680447000294be000094be00fc04470040
:1030f0008694be008494be0009007800a4020700f4
:1031000008007800a202070099007800814f700043
:103110000b003b000800be007d0207004f00b1001d
:1031200003003700f3ff2700f2ff2f006110b90002
:103130004f06be004f05be004f04be000080fa00df
:10314000000006008103780067f607000001be005a
:103150006000b8000478a30013003a006220e10088
:1031600015003e000d0039008301d1000281d3001b
:103170008180d3008301d1000281d3008180d300fc
:103180008301d1000281d3008180d3000538b000d3
:10319000c42add00f300b2008381720007f0a700ab
:1031a00003f0a00000000600f3ff2700f2ff2f004d
:1031b0006110b900fbff370003ff2700f7ff37005e
:1031c0001400fa00889fbe008a9fbe008c9fbe003c
:1031d0000004be000205be00680047000a90be0061
:1031e0000890be006a0207000070a7000bf0a10063
:1031f0000bf8a30020003a009e0990000e099000f1
:10320000fe0090006e0090009e029000344320006b
:1032100084825200c6ff32000a003c00b4fc2f003a
:103220000428e100140034008301d1000281d3009e
:103230008180d3000080d3008502e800faff3a00c5
:10324000bbff3700b40020000428e10007003c0069
:10325000000040008180480002014900838149004c
:103260008502e900faff3a00b1ff370003002800a9
:1032700002002000010037006011b8006000b800b3
:10328000abff3700889fbe0000827000040271000f
:10329000048271002400320036432000c500200063
:1032a0008383cf000a0039000541b1008283cf003b
:1032b000070039000541b1008183cf0004003900c7
:1032c0000541b1008083cf00010039000541b10004
:1032d00085c353006022b800120032000a003b0090
:1032e00084827200610260008301d1000281d300f8
:1032f0008180d3000080d3000603e8008743e80004
:10330000f7ff3a00070037000000400081804800c6
:1033100002014900838149000603e9008743e9006f
:10332000f9ff3a0042ff07004f04be00000006000c
:103330001400fa00889fbe008a9fbe008c9fbe00ca
:10334000040678000004be000205be0068004700c5
:103350000a90be000890be000d0207006200e10066
:103360000800be000a01be00040020000b003a0065
:103370001e029000e43fb1006e009000fe0090003d
:103380000e0990009e099000f300b20005fe230094
:10339000858171000bf0a70003f0a000040e7800f7
:1033a00063ff37002800fa00889fbe008a9fbe0096
:1033b0008c9fbe0003866b0049ff07000028a30016
:1033c00064003a000128a30067003a000008a30047
:1033d00062003a000108a30065003a001e00900058
:1033e000be08900081064000ed3fb100f480570018
:1033f000ee019000111ab8008e099000311bb80040
:103400009e099000311cb800511db800f48557008a
:1034100046000700fe0190003a0007008b85e80097
:103420003e0007008e09900040000700ee0190006a
:10343000340007008b85e800380007008e099000f3
:10344000400007009e0990001b18b8008904400046
:103450000a854800fe019000340007008b85e800d3
:1034600038000700ee019000300007008e09900040
:103470001b18b800890440000a8548000a98a30078
:1034800008003a000402420085824a0006034b000d
:1034900087834b0008044c0089844c000a054d00ca
:1034a0008d06e90084827200850273004c3add00cb
:1034b000850272000100320015002000443ade004f
:1034c0001400b2004538de00cb45dd000b00700073
:1034d000c540de00cb4ddd008b8070004549de002d
:1034e000cb55dd000b017100c551de000d037800e6
:1034f000cffe070003f0a1000cf0a70003f0a0002e
:103500000bff37001b18b8008502400006834800f7
:10351000e0834b0060044c00070037001b18b80024
:103520000603400087834800faff37001b18b800e5
:103530008703400008844800e0844c0060054d008b
:10354000000006001b18b8000804400089844800e9
:10355000faff37000108a300f2fe3a005800be004f
:103560005801be00e3ff37000008a300edfe3a005b
:1035700009047800f9ff370007f0a200c6fd370004
:103580001400fa00889fbe008a9fbe008c9fbe0078
:103590000005be000206be00680047000c90be0099
:1035a0000a90be007a0107006400e1001a003200b0
:1035b00016003e006100e1001a0032006e04900027
:1035c000fe0490000e0b90009e0b90006011b8005e
:1035d0009e0590000b38b100d5012000828171005a
:1035e000610164008703d1000683d3008984d3007e
:1035f0000884d3008502e900f8ff3a0014f50700bb
:103600000df0a70001f0a000c9fe3700f1ff270070
:10361000f0ff2f00c6fe370001f827000000200051
:10362000f7ff37006000b800f5ff37000000fa0030
:10363000889fbe008a9fbe003004be002005be00e9
:103640000404440085844c0006054d0087854d0028
:103650000898be000a90be000440e10005c8e100e1
:1036600006d0e10007d8e100020031006800400008
:103670001008e8004f05be004f04be000080fa00ad
:10368000000006001000fa00889fbe008a9fbe005e
:103690000605be000404be003002be002003be00ca
:1036a000049fbe000697be000802520089825a009d
:1036b0000a035b008b835b00440798005507980062
:1036c00066079800770798000498be000698be0029
:1036d000110020003e02be002e03be000820e100c3
:1036e00009a8e1000ab0e1000bb8e10001003900cf
:1036f0008000eb00108810004f05be004f04be0094
:103700000080fa00000006001400fa00889fbe0046
:103710008a9fbe008c9fbe00590007000605be00b0
:103720000404be000006eb004c0798003c0798001c
:103730002c0798001c0798000c0f78000d0420003f
:103740004e039000be029000860343002e029000bc
:10375000e00f530003003d002a000700b3ff0700fd
:103760000200370027000700c6ff0700ce029000c6
:10377000150f9800e08f5200090035004500070042
:1037800014002000050020006033b8000000720023
:10379000818072000201730083817300380007008a
:1037a0000c06e8008d0f5600e5ff3a001e0a900057
:1037b000e00f520004003d000802be000a03be00f4
:1037c0000e00780099ff07004eba9700e00f5200f4
:1037d00006003a003e04be002e05be0058079800c1
:1037e000690798007a0798000b0f980029000700d6
:1037f0004f06be004f05be004f04be000080fa0019
:10380000000006004f2bde00870373004707980077
:103810004f23de0085824200850273003507980041
:103820009e0290004f2bde0004024200040273004f
:10383000240798001e0278004f23de008582420094
:103840008502730015079800120007004f18de006c
:1038500004024200000f72000e000700000040004a
:10386000818048000201490083814900040007006b
:103870000802be000a03be000e0078000000060029
:10388000500798006107980072079800030f98008e
:10389000000006005e009000ee0090007e019000a7
:1038a0008e099000000006000000fa00881f7800d2
:1038b00018002000881f780093ff07008f87e90019
:1038c0004f0478000080fa00000006000000fa00b3
:1038d000801feb008cff07008f87e9000080fa0053
:1038e000000006000000fa00889fbe008a9fbe000c
:1038f000e00f5000e08f5800e00f5900e08f5900b2
:103900000c003d006044b8006055b8000000540051
:1039100081805c0002015d0083815d001800200051
:103920001600070008003d00190007000004eb0026
:10393000050037000004eb001000070002003d0006
:103940001300070018002000d7ff0700e00f540005
:10395000060032006022b8006033b8000000520058
:1039600081805a0002015b0083815b004f05be002d
:103970004f04be000080fa0000000600e00f520075
:10398000e08f5a00e00f5b00e08f5b000000060054
:103990006044b8006055b8000402540085825c00a1
:1039a00006035d0087835d00000006000000fa004a
:1039b000889fbe008a9fbe008c1f7800e00f5000d9
:1039c000e08f5800e00f5900e08f59000d003d00d6
:1039d0006044b8006055b8000000540081805c006d
:1039e00002015d0083815d001c0020000820e100d1
:1039f00009a8e1000ab0e1000bb8e1000d003d00ac
:103a0000080037000006eb00e00f5200e08f5a007c
:103a1000e00f5b00e08f5b0006003d006044b800f3
:103a20006055b8000402540085825c0006035d0006
:103a300087835d00a5ff0700e00f560006003200f7
:103a40006022b8006033b8000000520081805a0044
:103a500002015b0083815b004f0678004f05be00ca
:103a60004f04be000080fa0000000600889fbe00e0
:103a70008a9fbe008c9fbe000404be000605be00e7
:103a8000809fbe00829fbe002f00070004067800c2
:103a90000800be000a01be002b0007008406780063
:103aa0004f03be004f02be008d4f76007fb09700df
:103ab00013003300f0ff2f008b8f6b0006003b00dc
:103ac0000d0666000c00a7000a00370007f0a600ec
:103ad000100020000a003700880f5200898f5a001a
:103ae0008a0f5b008b8f5b00030039001000200001
:103af00001003e000000200007f0a7000000ea00df
:103b00004f06be004f05be004f04be000000060079
:103b1000e48240001078a3000700320064024000f5
:103b20001178a3003400be001401be00040032006e
:103b30000330a700000006003500be001501be00de
:103b40000330a0000000060005ff27000582610089
:103b5000070032000428e1000100320024000500c3
:103b60000600070001003a004400050004080500b3
:103b700002000700f9ff3a00140005006f8261009f
:103b8000810270008502710085027200000006004b
:103b9000800078005002be005003be004439de00b1
:103ba000f700b200f37f200003016100090032003a
:103bb0000218e10016003a008501720083017300cb
:103bc000838173000008200015003a0040002000a7
:103bd0001300370085017200830173008381730035
:103be00005003a0004a8be0006a8be001000200090
:103bf0000b0037000201e9000402420085824a00fe
:103c000006034b0087834b000748a300f9ff3200ef
:103c10000740a00004a8be0006a8be0020002000a7
:0c3c200080009800920098000000060050
:020000040000fa
:103c2c00783a000020250000662000000a00000001
:103c3c00793a000020250000662000000a000000f0
:103c4c000a6100005b3000005d3a00002025000096
:103c5c00662000000a000000625b0000305d00007e
:103c6c003a20000025660000200a000000630000d6
:103c7c00313a000020250000662000000a000000f8
:103c8c00615b0000315d00003a20000025660000f9
:103c9c00200a0000006200005b3100005d3a000069
:103cac0020250000662000000a000000633200009e
:103cbc003a20000025660000200a00000064000085
:103ccc003a20000025660000200a00000065000074
:103cdc003a20000025660000200a00000066000063
:103cec003a20000025660000200a00000067000052
:103cfc003a20000025660000200a00000054000055
:103d0c00656d000070200000766100006c7500008d
:103d1c0065200000666f00007220000061730000d7
:103d2c00696e00003a20000025660000200a0000a1
:103d3c00006800003a20000025660000200a000000
:103d4c00004800003a20000025660000200a000010
:103d5c00005600003a20000025660000200a0000f2
:043d6c000000000053
:020000040000fa
:103d70000000fa0014c0b300044078005cf3b70000
:103d80000042eb0004407800fef2b7000042eb0076
:103d900004407800fff2b7000002eb00c49a8800ec
:103da0000002eb00d49a88000042eb000440780047
:103db000c6f2b7000042eb0004407800f8f2b7000a
:103dc000043021008002eb0015029800043021002d
:103dd0008002eb00050a7800043021008002eb002d
:103de00035029800043021008002eb002502980083
:103df0000080fa00000006000400fa00000f7800be
:103e0000110798009e0078000000eb00aa0307004d
:103e10009e00900010002000a70307009e0078007d
:103e20000000eb00c90707009e0090001000200072
:103e3000c60707005b03070060092000730907003d
:103e40000080fa00000006000400fa00000f78006d
:103e5000110798009e0090001e0078008400070063
:103e600000027800e00f520003003a009e0090002c
:103e70001e007800e0ff07000080fa000000060046
:103e80000000fa001100200010002000daff0700f7
:103e90000080fa00000006000000fa008000eb003d
:103ea0000000eb00d4ff07000080fa0000000600cd
:103eb0000000fa00c435210014427800e04f52009f
:103ec0000a0032004000070000027800e00f5200b4
:103ed00002003a00eaff07000d0037000042eb0045
:103ee000044078005cf3b700090037004b0007007e
:103ef00000027800e00f520002003a00e6ff0700df
:103f00000300370014c0b300044078005cf3b7002e
:103f10000080fa00000006000800fa00c435210005
:103f200014427800e04f52000a00320026000700d9
:103f300000027800e00f520002003a00d0ff0700b4
:103f40001f0037000042eb00044078005cf3b7002c
:103f50001b0037003100070000027800e00f52001c
:103f600002003a00ccff07001500370014c0b30070
:103f7000044078005cf3b7000e007800530007009f
:103f800000427800e04f52000d0032001e02be00d9
:103f9000849fbe0064e12900841f7800d0f50700eb
:103fa000e68757002e029000be029000849fbe005c
:103fb000e4e12900841f7800c9f50700e68757006f
:103fc0000080fa00000006000000fa00c49a800099
:103fd000e00f52000d003200d49a8000e00f520032
:103fe0000a00320011002000100020001203070018
:103ff0005fff07000002eb00a49a88000002eb00bc
:10400000b49a880014002000010037000002eb0081
:10401000040078000080fa00000006000000fa00aa
:10402000c49a8000e00f52000d003200d49a800044
:10403000e00f52000a0032008000eb000000eb00ad
:10404000fd0207004aff070014002000a49a880020
:1040500014002000b49a88001400200001003700ea
:104060000002eb00040078000080fa000000060067
:104070000400fa00000f780011079800c49a80002d
:10408000e00f52000d003200d49a8000e00f520081
:104090000a0032009e0090001e007800e602070031
:1040a00033ff070014002000a49a880014002000a9
:1040b000b49a880014002000010037000002eb00d1
:1040c000040078000080fa00000006003200fa00c8
:1040d000889fbe00001f9800043021001402900049
:1040e00044179800043021001402780054179800f7
:1040f000043021003402900064179800043021003d
:1041000024029000741798004e129000cfa2de0097
:104110000400be004bf207000002be0092382c00e3
:1041200043ae23000400be009cf207000002be0064
:104130000400be0022f207000002be000402780064
:10414000441798006e129000cfa2de000400be005b
:104150003cf207000002be0092382c0043ae230060
:104160000400be008df207000002be000400be0085
:1041700013f207000002be000402780064179800e2
:104180005e129000cfa2de000400be002df20700f8
:104190000002be0092382c0043ae23000400be0093
:1041a0007ef207000002be000400be0004f2070019
:1041b0000002be0004027800541798005e129000be
:1041c000cfa2de000400be001ef207000002be0007
:1041d00092382c0043ae23000400be006ff20700ab
:1041e0000002be000400be00f5f107000002be00a0
:1041f0000402780054179800ce1290006e129000be
:1042000004825200cfa2de000400be000df20700bf
:104210000002be00048fbe006022b8002407980090
:10422000350798004e129000cfa2de000400be00b9
:1042300004f207000004be00020020000300240076
:104240001e00be0098f107000002be000401be007f
:104250000800be0032f107000002be0044079800cb
:10426000550798005e129000cfa2de000400be0049
:10427000f4f107000002be000401be00b0fd200002
:104280009104240026f107000002be000404be00d1
:1042900002002000030024002e009000be009000c9
:1042a00081f107000002be000401be000800be004c
:1042b0001bf107000002be00640798007507980014
:1042c0004e019000de019000b0fd2000910424001a
:1042d00013f107000002be006e019000fe01900085
:1042e0000400be000ef107000002be00040f98009b
:1042f000150f98004e129000cfa2de000400be0001
:10430000d0f107000002be000401be00b0fd200095
:104310009104240002f107000002be000400be0068
:10432000bbf207000002be00d2cc2c00c3e4230085
:104330000400be0019f207000002be000404be0023
:1043400002002000030024001e00be0056f10700fa
:104350000002be000400be00adf207000002be0075
:104360000401be000800be004ff107000002be00bd
:10437000240f9800350f98002e0a9000be0a900076
:1043800005f0a100240f9800350f98005e129000f0
:10439000cfa2de000400be00aaf107000002be00aa
:1043a0000400be009af207000002be00d2cc2c002e
:1043b000c3e423000400be00f8f107000002be00c1
:1043c0000404be0002002000030024002e00900020
:1043d000be00900034f107000002be000400be00e1
:1043e0008bf207000002be000401be000800be0000
:1043f0002df107000002be00440f9800550f9800f1
:104400004e0a9000de0a900005f0a100440f9800cb
:10441000550f98000e0890009e0890007cf207004f
:104420000002be004e099000de0990000400be00ac
:10443000daf107000002be003233230033f9230013
:104440000400be0018f107000002be00640f9800cf
:10445000750f98006e089000fe0890000ef107009e
:104460000002be0004179800151798000e11900066
:104470009e119000b0fd200091042400a8f00700d8
:104480000002be000e0990009e0990000400be00cc
:10449000a3f007000002be0024179800351798000b
:1044a0004e129000cfa2de000400be0065f10700ae
:1044b0000002be0002ee2200532624000400be00cb
:1044c000b6f107000002be00849fbe0064e229002e
:1044d000841f780082f40700e68757006e12900070
:1044e000cfa2de000400be0056f107000002be00ad
:1044f00002ee2200532624000400be00a7f10700ac
:104500000002be00849fbe0024e32900841f7800bf
:1045100073f40700e687570002ee220053262400ba
:104520001e00be009df107000002be00849fbe0079
:10453000d4e32900841f780069f40700e687570058
:104540005e129000cfa2de000400be003df1070025
:104550000002be0002ee2200532624000400be002a
:104560008ef107000002be00849fbe0064e42900b3
:10457000841f78005af40700e68757005e12900007
:10458000cfa2de000400be002ef107000002be0034
:1045900002ee2200532624000400be007ff1070033
:1045a0000002be00849fbe0014e52900841f78002d
:1045b0004bf40700e687570002ee22005326240042
:1045c0002e009000be00900074f107000002be00b3
:1045d000849fbe00c4e52900841f780040f40700d2
:1045e000e687570002ee2200532624004e0090007a
:1045f000de00900069f107000002be00849fbe004b
:1046000054e62900841f780035f40700e687570038
:1046100002ee2200532624006e009000fe0090005f
:104620005ef107000002be00849fbe00d4e62900b0
:10463000841f78002af40700e687570002ee220064
:10464000532624000e0890009e08900053f10700a6
:104650000002be00849fbe0054e72900841f78003a
:104660001ff40700e687570002ee220053262400bd
:104670002e109000be10900048f107000002be000e
:10468000849fbe00d4e72900841f780014f407003b
:10469000e68757006e0a9000fe0a9000849fbe00d5
:1046a00054e82900841f78000df40700e6875700be
:1046b00002ee2200532624000e1090009e1090005f
:1046c00036f107000002be00849fbe00f4e9290015
:1046d000841f780002f40700e68757002e0a900036
:1046e000be0a9000849fbe0074ea2900841f7800ef
:1046f000fbf30700e68757004e0a9000de0a9000a1
:10470000849fbe00f4ea2900841f7800f4f30700b8
:10471000e687570018c0b30092ff200093fc2300e7
:104720002e109000be109000a3f007000002780049
:10473000e00f520001003c000044eb00e04f540049
:104740003400320018c0b30092ff200093fc230015
:104750000e1090009e10900095f007000002780067
:10476000e00f5200010035000044eb00e04f540020
:10477000280032002e119000be119000b0fd2000e4
:1047800091042400e6ef07000002be000400be0012
:1047900043f007000002be004e099000de099000c1
:1047a0000400be00fdf007000002be000401be00d0
:1047b0000000200001f82300d9ef07000002be002e
:1047c0000e1b9000048bbe002e119000be119000b5
:1047d000b0fd200091042400d1ef07000002be00cc
:1047e0000400be008af107000002be004e099000de
:1047f000de0990000400be00e8f007000002be00e1
:104800000e1b9000240398003503980014c0b300d9
:104810008f00370018c0b30092ff200093fc2300e4
:104820002e109000be10900061f00700000278008a
:10483000e00f5200010035000044eb00e04f54004f
:104840002900320018c0b30092ff200093fc23001f
:104850000e1090009e10900055f0070000027800a6
:10486000e00f5200010035000044eb00e04f54001f
:104870001d0032002e109000be10900008f00700be
:104880000002be004e099000de0990000400be0048
:10489000c2f007000002be000200200003f823005f
:1048a0000400be009fef07000002be000e1b900038
:1048b000048bbe002e109000be10900054f1070033
:1048c0000002be004e099000de0990000400be0008
:1048d000b2f007000002be000e1b9000048bbe0069
:1048e00014c0b3005a00370018c0b30092ff200074
:1048f00093fc23002e109000be1090002cf00700b7
:1049000000027800e00f5200010035000044eb0087
:10491000e04f54002900320018c0b30092ff20007d
:1049200093fc23000e1090009e10900022f00700d0
:1049300000027800e00f520001003c000044eb0050
:10494000e04f54001d0032002e109000be10900069
:10495000d3ef07000002be004e099000de09900070
:104960000400be008df007000002be00020020001f
:1049700003f823000400be006aef07000002be0037
:104980000e1b9000048bbe002e109000be109000f5
:104990001ff107000002be004e099000de099000e2
:1049a0000400be007df007000002be000e1b900058
:1049b000048bbe0014c0b3002500370092ff200016
:1049c00093fc23002e109000be109000f8ef07001b
:1049d00000027800e00f52000a003a000e1b90001f
:1049e0000400200005f82300048bbe000e1a90007e
:1049f0004e0b9000de0b9000068abe0014c0b30080
:104a00001300370092ff200093fc23000e1090004b
:104a10009e109000e6ef070000027800e00f5200c1
:104a20000a003a000e1b9000a4992900950024006a
:104a3000048bbe000e1a90002e0b9000be0b90004f
:104a4000068abe0014c0b300010037000042eb002c
:104a5000044078004f04be000080fa000000060009
:104a60000200fa00000f78001e027800044278006d
:104a7000614262000482fb00610262004722dd00a5
:104a800026728000f5f72f00850263000482720011
:104a90002472880044aea80044cea80064eea800aa
:104aa000650ea8009e02780024032000842ab80026
:104ab0000503200084824200642921000482420010
:104ac000144278000482fb00610262000442780014
:104ad000e04f52000100320044aea9009e0278006f
:104ae00024032000842ab8000503200084824200a9
:104af0006429210004824200144278000482fb00f1
:104b000062026200e00f52000100320044cea900b0
:104b10009e02780024032000842ab80005032000a8
:104b200084824200642921000482420014427800f9
:104b30000482fb0064026200e00f520001003200b8
:104b400064eea9009e02780024032000842ab800a5
:104b5000050320008482420064292100048242006f
:104b6000144278000482fb0068026200e00f5200e9
:104b700001003200650ea900401f20002306070037
:104b800044aea80044cea80064eea800650ea800bc
:104b900044eea800401f20001c0607000080fa0019
:104ba000000006000000fa00e42f21001442780003
:104bb0000482fb008400780090c0b300ad0a0700b7
:104bc000f42f2100144278000482fb008400780056
:104bd000a0c0b300a70a0700d49780008400780023
:104be000b0c0b300a30a0700849a80008400780054
:104bf000c0c0b3009f0a0700949a80008400780028
:104c0000d0c0b3009b0a0700c49a800084007800db
:104c1000e0c0b300970a0700d49a800084007800af
:104c2000f0c0b300930a070010c0b300e908070002
:104c30000080fa00000006000400fa00000f78006f
:104c400011079800053021001e027800040242007e
:104c5000048242001402780084007800c0c0b300cf
:104c6000840a0700053021001e0290000482e8003b
:104c7000040242000482420014027800840078009a
:104c8000d0c0b3007b0a0700c49a8000840078007b
:104c9000e0c0b300770a0700d49a8000840078004f
:104ca000f0c0b300730a070010c0b300c9080700c2
:104cb0000080fa00000006000800fa0020079800b3
:104cc00031079800743e2000040f7800743e2000e5
:104cd000140798002e0090008f060700004278000d
:104ce0002e039000250320008533b800652c210099
:104cf00085024300844a7800853021003e029000fe
:104d0000040342002e029000040243000402420009
:104d100004824200f5702200050a7800ae0290007d
:104d200024032000842ab800050320008482420066
:104d30006429210004824200144278000482fb00ae
:104d40006102620004427800e04f52009c00320091
:104d5000ae02900024032000842ab800050320003e
:104d600084824200642921000482420014427800b7
:104d70000482fb0062026200e00f520090003200e9
:104d8000ae02900024032000842ab800ea02420008
:104d90006429210004824200940278002e039000ce
:104da000240320008432b8000483e8006429210031
:104db0000402430014027800f2002000850078000d
:104dc00004007800cd03070000027800e00f5200d5
:104dd00031003200ae02900024032000842ab80083
:104de0008482e80064292100048242009402780051
:104df0002e039000240320008432b8006a0342008e
:104e00006429210004024300140278000482520045
:104e100004f0a7000402ea009e0f52001e003d00ad
:104e2000ae02900024032000842ab8008402780097
:104e30006429210004824200940278002e0390002d
:104e4000240320008432b800680342006429210052
:104e500004024300140278008482420024002000ef
:104e6000110009008402d800000278008402780052
:104e7000863021002e02900004024200040243000a
:104e8000050a7800853021002e02900004024200bd
:104e900004824200140f7800ae0290002403200028
:104ea000842ab800e80242006429210004824200fa
:104eb000940278002e039000240320008433b8006d
:104ec000642921000402430014027800f20020004b
:104ed000850078000400780088030700000278004d
:104ee000e00f520036003200ae0290002403200092
:104ef000842ab800840278006429210004824200d8
:104f0000940278002e039000240320008432b8001d
:104f1000680342006429210004024300140278005f
:104f2000048252008402780005f0a7008502ea009e
:104f30001e029000848f520021003d00ae029000be
:104f400024032000842ab800840278006429210008
:104f500004824200940278002e0390002403200073
:104f60008432b8006803420064292100040243002f
:104f700014027800848242002400200011000900fd
:104f80008402d80000027800840278008630210074
:104f90002e0290000482e800040242000402430052
:104fa000050a7800853021002e0290000482e80076
:104fb000040242000482420094027800150798001f
:104fc000ae02900024032000842ab80005032000cc
:104fd0008482420064292100048242001442780045
:104fe0000482fb006102620004427800e04f52003c
:104ff0009c003200ae02900024032000842ab800f6
:1050000005032000848242006429210004824200ba
:10501000144278000482fb0064026200e00f520038
:1050200090003200ae02900024032000842ab800d1
:10503000f2024200642921000482420094027800b6
:105040002e039000240320008432b8000483e8007b
:10505000642921000402430014027800f2002000b9
:10506000850078000400780024030700000278001f
:10507000e00f520031003200ae0290002403200005
:10508000842ab8008482e800642921000482420056
:10509000940278002e039000240320008432b8008c
:1050a00072034200642921000402430014027800c4
:1050b0000482520004f0a7000402ea009e0f52008e
:1050c0001e003d00ae02900024032000842ab80098
:1050d000840278006429210004824200940278004e
:1050e0002e039000240320008432b8007003420095
:1050f00064292100040243001402780084824200e3
:1051000024002000110009008402d8000002780069
:1051100084027800863021002e02900004024200b2
:1051200004024300050a7800853021002e02900019
:105130000402420004824200140f7800ae02900084
:1051400024032000842ab800f002420064292100d0
:1051500004824200940278002e0390002403200071
:105160008433b8006429210004024300140278004b
:10517000f20020008500780004007800df020700bc
:1051800000027800e00f520036003200ae029000bc
:1051900024032000842ab8008402780064292100b6
:1051a00004824200940278002e0390002403200021
:1051b0008432b800700342006429210004024300d5
:1051c00014027800048252008402780005f0a700df
:1051d0008502ea001e029000848f520021003d00eb
:1051e000ae02900024032000842ab80084027800d4
:1051f0006429210004824200940278002e0390006a
:10520000240320008432b800700342006429210086
:10521000040243001402780084824200240020002b
:10522000110009008402d80000027800840278008e
:10523000863021002e0290000482e8000402420021
:1052400004024300050a7800853021002e029000f8
:105250000482e800040242000482420094027800c2
:1052600015079800ae02900024032000842ab8009d
:105270000503200084824200642921000482420048
:10528000144278000482fb0061026200044278004c
:10529000e04f52009c003200ae0290002403200038
:1052a000842ab8000503200084824200642921007a
:1052b00004824200144278000482fb00680262000b
:1052c000e00f520090003200ae0290002403200054
:1052d000842ab800fa0242006429210004824200b4
:1052e000940278002e039000240320008432b8003a
:1052f0000483e800642921000402430014027800ba
:10530000f200200085007800040078007b0207008e
:1053100000027800e00f520031003200ae0290002f
:1053200024032000842ab8008482e8006429210034
:1053300004824200940278002e039000240320008f
:105340008432b8007a034200642921000402430039
:10535000140278000482520004f0a7000402ea005c
:105360009e0f52001e003d00ae029000240320005c
:10537000842ab80084027800642921000482420053
:10538000940278002e039000240320008432b80099
:1053900078034200642921000402430014027800cb
:1053a0008482420024002000110009008402d800f9
:1053b0000002780084027800863021002e029000de
:1053c0000402420004024300050a780085302100ef
:1053d0002e0290000402420004824200140f780062
:1053e000ae02900024032000842ab800f802420094
:1053f0006429210004824200940278002e03900068
:10540000240320008433b8006429210004024300ef
:1054100014027800f2002000850078000400780073
:105420003602070000027800e00f5200360032001a
:10543000ae02900024032000842ab8008402780081
:105440006429210004824200940278002e03900017
:10545000240320008432b80078034200642921002c
:10546000040243001402780004825200840278008f
:1054700005f0a7008502ea001e029000848f52000a
:1054800021003d00ae02900024032000842ab800d1
:10549000840278006429210004824200940278008a
:1054a0002e039000240320008432b80078034200c9
:1054b000642921000402430014027800848242001f
:1054c00024002000110009008402d80000027800a6
:1054d00084027800863021002e0290000482e800c9
:1054e0000402420004024300050a780085302100ce
:1054f0002e0290000482e80004024200048242006e
:105500009402780015079800ae0290002403200052
:10551000842ab80005032000848242006429210007
:1055200004824200144278000482fb00620262009e
:10553000e00f52009d003200ae02900024032000d4
:10554000842ab800050320008482420064292100d7
:1055500004824200144278000482fb00640262006c
:10556000e00f520091003200ae02900024032000b0
:10557000842ab800f2024200642921000482420019
:10558000940278002e039000240320008432b80097
:105590006a034200642921000402430014027800d7
:1055a000f20020008500780004007800d301070095
:1055b00000027800e00f520031003200ae0290008d
:1055c00024032000842ab800ea0242006429210052
:1055d00004824200940278002e03900024032000ed
:1055e0008432b8007203420064292100040243009f
:1055f000140278000482520004f0a7000402ea00ba
:105600009e0f52001e003d00ae02900024032000b9
:10561000842ab800e8024200642921000482420082
:10562000940278002e039000240320008432b800f6
:105630007003420064292100040243001402780030
:105640008482420024002000110009008402d80056
:105650000002780084027800863021002e0290003b
:105660000402420004024300050a7800853021004c
:105670002e0290000402420004824200140f7800bf
:10568000ae02900024032000842ab800f0024200f9
:105690006429210004824200940278002e039000c5
:1056a000240320008432b8006803420064292100ea
:1056b0000402430014027800f20020008500780004
:1056c000040078008d01070000027800e00f52000e
:1056d00036003200ae02900024032000842ab80075
:1056e000e80242006429210004824200940278000a
:1056f0002e039000240320008432b800700342007f
:10570000642921000402430014027800048252003c
:105710008402780005f0a7008502ea001e029000ce
:10572000848f520021003d00ae029000240320002f
:10573000842ab800e8024200642921000482420061
:10574000940278002e039000240320008432b800d5
:10575000700342006429210004024300140278000f
:105760008482420024002000110009008402d80035
:105770000002780084027800863021002e0290001a
:105780000482e8000402420004024300050a780093
:10579000853021002e0290000482e80004024200bd
:1057a000048242009402780015079800ae0290002f
:1057b00024032000842ab8000503200084824200cc
:1057c0006429210004824200144278000482fb0014
:1057d00062026200e00f52009d003200ae029000b3
:1057e00024032000842ab80005032000848242009c
:1057f0006429210004824200144278000482fb00e4
:1058000068026200e00f520091003200ae02900088
:1058100024032000842ab800fa02420064292100ef
:1058200004824200940278002e039000240320009a
:105830008432b8006a034200642921000402430054
:1058400014027800f200200085007800040078003f
:105850002a01070000027800e00f520031003200f8
:10586000ae02900024032000842ab800ea0242001d
:105870006429210004824200940278002e039000e3
:10588000240320008432b8007a03420064292100f6
:1058900004024300140278000482520004f0a700be
:1058a0000402ea009e0f52001e003d00ae0290006e
:1058b00024032000842ab800e80242006429210061
:1058c00004824200940278002e03900024032000fa
:1058d0008432b800780342006429210004024300a6
:1058e0001402780084824200240020001100090084
:1058f0008402d800000278008402780086302100fb
:105900002e0290000402420004024300050a7800bf
:10591000853021002e0290000402420004824200e1
:10592000140f7800ae02900024032000842ab800ef
:10593000f8024200642921000482420094027800a7
:105940002e039000240320008432b8006803420034
:10595000642921000402430014027800f2002000b0
:105960008500780004007800e40007000002780059
:10597000e00f520036003200ae02900024032000f7
:10598000842ab800e802420064292100048242000f
:10599000940278002e039000240320008432b80083
:1059a00078034200642921000402430014027800b5
:1059b000048252008402780005f0a7008502ea0004
:1059c0001e029000848f520021003d00ae02900024
:1059d00024032000842ab800e80242006429210040
:1059e00004824200940278002e03900024032000d9
:1059f0008432b80078034200642921000402430085
:105a00001402780084824200240020001100090062
:105a10008402d800000278008402780086302100d9
:105a20002e0290000482e8000402420004024300b7
:105a3000050a7800853021002e0290000482e800db
:105a40000402420004824200940278001507980084
:105a5000ae02900024032000842ab8000503200031
:105a600084824200642921000482420014427800aa
:105a70000482fb0064026200e00f52009d003200cd
:105a8000ae02900024032000842ab8000503200001
:105a9000848242006429210004824200144278007a
:105aa0000482fb0068026200e00f520091003200a5
:105ab000ae02900024032000842ab800fa024200bb
:105ac0006429210004824200940278002e03900091
:105ad000240320008432b8007203420064292100ac
:105ae0000402430014027800f200200085007800d0
:105af000040078008100070000027800e00f5200e7
:105b000031003200ae02900024032000842ab80045
:105b1000f2024200642921000482420094027800cb
:105b20002e039000240320008432b8007a03420040
:105b30006429210004024300140278000482520008
:105b400004f0a7000402ea009e0f52001e003d0070
:105b5000ae02900024032000842ab800f002420024
:105b60006429210004824200940278002e039000f0
:105b7000240320008432b800780342006429210005
:105b800004024300140278008482420024002000b2
:105b9000110009008402d800000278008402780015
:105ba000863021002e0290000402420004024300cd
:105bb000050a7800853021002e0290000402420080
:105bc00004824200140f7800ae02900024032000eb
:105bd000842ab800f80242006429210004824200ad
:105be000940278002e039000240320008432b80031
:105bf000700342006429210004024300140278006b
:105c0000f200200085007800040078003b000700c7
:105c100000027800e00f520036003200ae02900021
:105c200024032000842ab800f002420064292100e5
:105c300004824200940278002e0390002403200086
:105c40008432b80078034200642921000402430032
